{
  "_format": "hh-sol-artifact-1",
  "contractName": "CoinrushFactory",
  "sourceName": "contracts/CoinrushFactory.sol",
  "abi": [
    {
      "inputs": [
        {
          "internalType": "address",
          "name": "_treasury",
          "type": "address"
        },
        {
          "internalType": "uint16",
          "name": "_platformFeeBps",
          "type": "uint16"
        },
        {
          "internalType": "uint256",
          "name": "_creationFeeWei",
          "type": "uint256"
        }
      ],
      "stateMutability": "nonpayable",
      "type": "constructor"
    },
    {
      "inputs": [],
      "name": "MathOverflowedMulDiv",
      "type": "error"
    },
    {
      "inputs": [
        {
          "internalType": "address",
          "name": "owner",
          "type": "address"
        }
      ],
      "name": "OwnableInvalidOwner",
      "type": "error"
    },
    {
      "inputs": [
        {
          "internalType": "address",
          "name": "account",
          "type": "address"
        }
      ],
      "name": "OwnableUnauthorizedAccount",
      "type": "error"
    },
    {
      "anonymous": false,
      "inputs": [
        {
          "indexed": false,
          "internalType": "uint256",
          "name": "oldFeeWei",
          "type": "uint256"
        },
        {
          "indexed": false,
          "internalType": "uint256",
          "name": "newFeeWei",
          "type": "uint256"
        }
      ],
      "name": "CreationFeeUpdated",
      "type": "event"
    },
    {
      "anonymous": false,
      "inputs": [
        {
          "indexed": true,
          "internalType": "address",
          "name": "previousOwner",
          "type": "address"
        },
        {
          "indexed": true,
          "internalType": "address",
          "name": "newOwner",
          "type": "address"
        }
      ],
      "name": "OwnershipTransferred",
      "type": "event"
    },
    {
      "anonymous": false,
      "inputs": [
        {
          "indexed": false,
          "internalType": "uint16",
          "name": "oldBps",
          "type": "uint16"
        },
        {
          "indexed": false,
          "internalType": "uint16",
          "name": "newBps",
          "type": "uint16"
        }
      ],
      "name": "PlatformFeeUpdated",
      "type": "event"
    },
    {
      "anonymous": false,
      "inputs": [
        {
          "indexed": true,
          "internalType": "address",
          "name": "creator",
          "type": "address"
        },
        {
          "indexed": false,
          "internalType": "address",
          "name": "token",
          "type": "address"
        },
        {
          "indexed": false,
          "internalType": "address",
          "name": "pool",
          "type": "address"
        }
      ],
      "name": "PoolCreated",
      "type": "event"
    },
    {
      "anonymous": false,
      "inputs": [
        {
          "indexed": true,
          "internalType": "address",
          "name": "oldTreasury",
          "type": "address"
        },
        {
          "indexed": true,
          "internalType": "address",
          "name": "newTreasury",
          "type": "address"
        }
      ],
      "name": "TreasuryUpdated",
      "type": "event"
    },
    {
      "inputs": [],
      "name": "CREATOR_FEE_CAP_BPS",
      "outputs": [
        {
          "internalType": "uint16",
          "name": "",
          "type": "uint16"
        }
      ],
      "stateMutability": "view",
      "type": "function"
    },
    {
      "inputs": [],
      "name": "CREATOR_FIRST_BUY_CAP_BPS",
      "outputs": [
        {
          "internalType": "uint16",
          "name": "",
          "type": "uint16"
        }
      ],
      "stateMutability": "view",
      "type": "function"
    },
    {
      "inputs": [],
      "name": "MAX_PLATFORM_FEE_BPS",
      "outputs": [
        {
          "internalType": "uint16",
          "name": "",
          "type": "uint16"
        }
      ],
      "stateMutability": "view",
      "type": "function"
    },
    {
      "inputs": [],
      "name": "PUBLIC_BUY_CAP_BPS",
      "outputs": [
        {
          "internalType": "uint16",
          "name": "",
          "type": "uint16"
        }
      ],
      "stateMutability": "view",
      "type": "function"
    },
    {
      "inputs": [],
      "name": "TOTAL_SUPPLY",
      "outputs": [
        {
          "internalType": "uint256",
          "name": "",
          "type": "uint256"
        }
      ],
      "stateMutability": "view",
      "type": "function"
    },
    {
      "inputs": [
        {
          "internalType": "string",
          "name": "name",
          "type": "string"
        },
        {
          "internalType": "string",
          "name": "symbol",
          "type": "string"
        },
        {
          "internalType": "uint16",
          "name": "creatorFeeBps",
          "type": "uint16"
        },
        {
          "internalType": "uint256",
          "name": "",
          "type": "uint256"
        },
        {
          "internalType": "uint256",
          "name": "initialBuyWei",
          "type": "uint256"
        },
        {
          "internalType": "uint256",
          "name": "minTokensOut",
          "type": "uint256"
        }
      ],
      "name": "createTokenAndPoolWithFirstBuy",
      "outputs": [
        {
          "internalType": "address",
          "name": "tokenAddr",
          "type": "address"
        },
        {
          "internalType": "address",
          "name": "poolAddr",
          "type": "address"
        }
      ],
      "stateMutability": "payable",
      "type": "function"
    },
    {
      "inputs": [],
      "name": "creationFeeWei",
      "outputs": [
        {
          "internalType": "uint256",
          "name": "",
          "type": "uint256"
        }
      ],
      "stateMutability": "view",
      "type": "function"
    },
    {
      "inputs": [],
      "name": "owner",
      "outputs": [
        {
          "internalType": "address",
          "name": "",
          "type": "address"
        }
      ],
      "stateMutability": "view",
      "type": "function"
    },
    {
      "inputs": [],
      "name": "platformFeeBps",
      "outputs": [
        {
          "internalType": "uint16",
          "name": "",
          "type": "uint16"
        }
      ],
      "stateMutability": "view",
      "type": "function"
    },
    {
      "inputs": [],
      "name": "renounceOwnership",
      "outputs": [],
      "stateMutability": "nonpayable",
      "type": "function"
    },
    {
      "inputs": [
        {
          "internalType": "uint256",
          "name": "newFeeWei",
          "type": "uint256"
        }
      ],
      "name": "setCreationFeeWei",
      "outputs": [],
      "stateMutability": "nonpayable",
      "type": "function"
    },
    {
      "inputs": [
        {
          "internalType": "uint16",
          "name": "bps",
          "type": "uint16"
        }
      ],
      "name": "setPlatformFeeBps",
      "outputs": [],
      "stateMutability": "nonpayable",
      "type": "function"
    },
    {
      "inputs": [
        {
          "internalType": "address",
          "name": "t",
          "type": "address"
        }
      ],
      "name": "setTreasury",
      "outputs": [],
      "stateMutability": "nonpayable",
      "type": "function"
    },
    {
      "inputs": [
        {
          "internalType": "address",
          "name": "newOwner",
          "type": "address"
        }
      ],
      "name": "transferOwnership",
      "outputs": [],
      "stateMutability": "nonpayable",
      "type": "function"
    },
    {
      "inputs": [],
      "name": "treasury",
      "outputs": [
        {
          "internalType": "address",
          "name": "",
          "type": "address"
        }
      ],
      "stateMutability": "view",
      "type": "function"
    }
  ],
  "bytecode": "0x60803461017b57601f614b5e38819003918201601f191683019291906001600160401b0384118385101761018057816060928492604096875283398101031261017b5780516001600160a01b0391908281169081900361017b5760208201519161ffff83169081840361017b57850151933315610163576000543360018060a01b03198216176000558651913391167f8be0079c531659141344cd1fd0a4f28419497f9722a3daafe3b4186f6b6457e0600080a3821561013457506105dc106100f0576001549161ffff60a01b9060a01b169160018060b01b0319161717600155600255516149c790816101978239f35b835162461bcd60e51b815260206004820152601460248201527f706c6174666f726d46656520746f6f20686967680000000000000000000000006044820152606490fd5b62461bcd60e51b815260206004820152600a602482015269074726561737572793d360b41b6044820152606490fd5b8551631e4fbdf760e01b815260006004820152602490fd5b600080fd5b634e487b7160e01b600052604160045260246000fdfe608060408181526004908136101561001657600080fd5b600092833560e01c90816310f1647314610a965750806322dcd13e14610a705780633bc1f7b3146109b4578063511a4ce71461037557806361d027b31461034c578063715018a6146102ef578063876897e31461022a5780638d01513c146102d25780638d380fb61461027e5780638da5cb5b14610256578063902d55a51461022f578063b632398b1461022a578063be0544c814610209578063f0f44260146101635763f2fde38b146100c957600080fd5b3461015f57602036600319011261015f576001600160a01b0382358181169391929084900361015b576100fa610b6a565b8315610145575050600054826bffffffffffffffffffffffff60a01b821617600055167f8be0079c531659141344cd1fd0a4f28419497f9722a3daafe3b4186f6b6457e0600080a380f35b51631e4fbdf760e01b8152908101849052602490fd5b8480fd5b8280fd5b503461015f57602036600319011261015f576001600160a01b0382358181169391929084900361015b57610195610b6a565b83156101d9575050816001549182167f4ab5be82436d353e61ca18726e984e561f5c1cc7c6d38b29d2553c790434705a8580a36001600160a01b0319161760015580f35b906020606492519162461bcd60e51b8352820152600a602482015269074726561737572793d360b41b6044820152fd5b838234610226578160031936011261022657602090516101f48152f35b5080fd5b610ae0565b838234610226578160031936011261022657602090516b033b2e3c9fd0803ce80000008152f35b838234610226578160031936011261022657905490516001600160a01b039091168152602090f35b50903461015f57602036600319011261015f577f5de302eeb1c80d4fb0c0953b692353f09ddf431411b8eb2034d5e857695619129035916102bd610b6a565b6002548151908152836020820152a160025580f35b838234610226578160031936011261022657602090516105dc8152f35b8334610349578060031936011261034957610308610b6a565b600080546001600160a01b0319811682556001600160a01b03167f8be0079c531659141344cd1fd0a4f28419497f9722a3daafe3b4186f6b6457e08280a380f35b80fd5b83823461022657816003193601126102265760015490516001600160a01b039091168152602090f35b5060c036600319011261015f5767ffffffffffffffff928235848111610226576103a29036908501610ab2565b949093602491823581811161015b576103be9036908401610ab2565b60449291929182359061ffff998a83168093036109b0576084359b6101f4841161097d57600254948d860180871161096b573410610935578a80808060018060a01b03998a600154165af13d15610930573d858111610876578d519061042e601f8201601f191660200183610b27565b81528c60203d92013e5b156108fd578b5192610e0d9283850193858510878611176108eb57610482928695949261047292613b858839608086526080860191610b49565b9060209a8483038c860152610b49565b90308d820152606030910152039089f0801561084f5789516318160ddd60e01b81529084169a868289818f5afa9182156108e1578a926108ae575b50811561089a575b8115610888576001548b5194612fee8087019586118787101761087657926064928f928f8997946102409997610b978a393088528d88015233908701528982166060870152608086015260a01c1660a0840152674563918244f4000060c08401528b60e0840152670de0b6b3a76400006101008401526103e880610120850152610140840152806f0785ee10d5da46d900f436a0000000000461016084015204610180820152896101a0820152600019806101c08301526101e08201528961020082015266b1a2bc2ec5000061022082015203019087f0801561086c571697873b15610806578787516340c10f1960e01b81528a8682015287818581836b033b2e3c9fd0803ce800000096878d8401525af1801561084f57610859575b50875163095ea7b360e01b81528581018b9052868101829052848185818b8e5af1801561084f57610818575b50893b15610814578751634ad7128960e01b81528581019190915286818781838e5af1801561080a579087916107f2575b505080156107ab5782908751928380926303280d3560e11b8252338883015260a435898301528c5af180156107a157610773575b50505b843b1561015f57835163585212fb60e01b815283818381838a5af1801561076957908491610755575b5050843b1561015f578290845192839163f2fde38b60e01b835233908301528183885af1801561074b57610737575b505080516001600160a01b03838116825284166020820152610733919033907f9c5d829b9b23efc461f9aeef91979ec04bb903feb3bee4f26d22114abfc7335b90604090a2516001600160a01b03928316815292909116602083015281906040820190565b0390f35b6107418291610afd565b61034957806106ce565b83513d84823e3d90fd5b61075e90610afd565b61015f57823861069f565b85513d86823e3d90fd5b813d831161079a575b6107868183610b27565b81010312610795573880610673565b600080fd5b503d61077c565b86513d87823e3d90fd5b505050853b1561015f578351631fe4000360e11b815283818381838b5af18015610769579084916107de575b5050610676565b6107e790610afd565b61015f5782386107d7565b6107fb90610afd565b61080657853861063f565b8580fd5b88513d89823e3d90fd5b8680fd5b8481813d8311610848575b61082d8183610b27565b81010312610844575180151503610814573861060e565b8780fd5b503d610823565b89513d8a823e3d90fd5b61086590979197610afd565b95386105e2565b87513d88823e3d90fd5b634e487b7160e01b8d5260418b528b8dfd5b634e487b7160e01b8a5260128852888afd5b6b033b2e3c9fd0803ce800000091506104c5565b9091508681813d83116108da575b6108c68183610b27565b810103126108d6575190386104bd565b8980fd5b503d6108bc565b8b513d8c823e3d90fd5b634e487b7160e01b8e5260418c528c8efd5b8b5162461bcd60e51b81526020818b0152600f818c01526e199959481e19995c8819985a5b1959608a1b81890152606490fd5b610438565b8b5162461bcd60e51b81526020818b01526012818c015271696e73756666696369656e742076616c756560701b81890152606490fd5b634e487b7160e01b8c5260118a528a8cfd5b8a5162461bcd60e51b81526020818a0152600f818b01526e63726561746f7220666565203e352560881b81880152606490fd5b8880fd5b503461015f57602036600319011261015f5781359061ffff80831693848403610806576109df610b6a565b6105dc8511610a3e5750907f84e4fe32bf74c4011a7e1fde79c63acdffaf92a0112cde153e7b0abee665bc6b91600154948251918660a01c1682526020820152a161ffff60a01b1990911660a09190911b61ffff60a01b161760015580f35b606490602084519162461bcd60e51b8352820152600c60248201526b0cccaca40e8dede40d0d2ced60a31b6044820152fd5b83823461022657816003193601126102265760209061ffff60015460a01c169051908152f35b8490346102265781600319360112610226576020906002548152f35b9181601f840112156107955782359167ffffffffffffffff8311610795576020838186019501011161079557565b346107955760003660031901126107955760206040516103e88152f35b67ffffffffffffffff8111610b1157604052565b634e487b7160e01b600052604160045260246000fd5b90601f8019910116810190811067ffffffffffffffff821117610b1157604052565b908060209392818452848401376000828201840152601f01601f1916010190565b6000546001600160a01b03163303610b7e57565b60405163118cdaa760e01b8152336004820152602490fdfe612fee38819003610360601f8201601f19168101906001600160401b0382119082101761041c57610240928291604052610360391261041757610043610360610432565b61034052610052610380610432565b61005d6103a0610432565b6100686103c0610432565b6100736103e0610446565b61007e610400610446565b610420516104405161046051610095610480610446565b906100a16104a0610446565b6104c0516104e051610500516105205161054051610560516102e05261058051610320529c909b919a92999398949794939291906001600160a01b038116156103fe576000546103005260018060a01b03811660018060a01b03196103005116176000556040519e60018060a01b03821660018060a01b0361030051167f8be0079c531659141344cd1fd0a4f28419497f9722a3daafe3b4186f6b6457e0600080a360018055610384600355660aa87bee5380006004556103405160a05260805260c05260e052610100526101205261014052610160526101805234600555436101a0526101c0526101e05261020052610220526102405261026052610280526102e0516102a052610320516102c052346103d0575b50600254156103c7575b604051612b986104568239608051818181610266015281816105ea0152818161094901528181610d1b0152818161148001528181611560015281816115b401528181611601015281816116770152818161178c01528181611a4401528181611d0f0152818161221d0152818161234701526125e4015260a051818181610a44015281816110850152818161110f015281816119bd015281816121280152818161253c0152818161285901526129d1015260c0518181816107f401528181611b800152612281015260e0518181816110430152818161288e01526128b90152610100518181816106cf0152818161134c015261201501526101205181818161130d0152612a0e01526101405181818161061d015281816111e201528181611dca01528181611e82015261206301526101605181818161064e01528181610b0b01528181611df701528181611eaf0152612091015261018051818181610399015261144101526101a0518181816113880152611fbd01526101c051818181610aac0152611a8201526101e051818181610c52015261237f015261020051816111a701526102205181610fc5015261024051818181611bc50152611f4b0152610260518181816104010152611f72015261028051818181610f8a01526124cd01526102a051818181610c8e0152611f9c01526102c05181818161035e01526114ed0152612b9890f35b426002556101c1565b60207ffe8b095e1a768e83a862933c32f2bd9b62b7b87f8fc8843d83ccce205208b65691348152a1386101b7565b604051631e4fbdf760e01b815260006004820152602490fd5b600080fd5b634e487b7160e01b600052604160045260246000fd5b51906001600160a01b038216820361041757565b519061ffff821682036104175756fe608080604052600436101561001d575b50361561001b57600080fd5b005b60003560e01c90816301e6f52114611baf5750806302d05d3f14611b6a57806303fd2a4514611b4d5780630597862414611b2f57806306501a6a1461199a57806306795ed4146119605780631068361f146113ed57806313888717146113d1578063158ef93e146113ab578063176345141461137057806317773ebb1461133157806322dcd13e146112f257806325f14287146112415780632c678c6414610ad05780632ee7d99b146112235780633533048f14611205578063395bf661146111ca5780633f7bcbf61461118f5780633fc80006146110f85780634ad71289146110725780634bde38c81461102d5780634de959311461100f5780634ec72b6114610fe8578063571fe54414610fad5780635776b4a214610f72578063581e564a14610cb15780635929c48114610c7657806369e93e5f14610c375780636f8e599b14610be9578063715018a614610b90578063804fee5f14610b755780638da5cb5b14610b4c578063a5c7d4cd14610b2e578063af493b9614610af3578063b06faf6214610ad0578063b8bac57514610a91578063bf36b53614610a73578063c45a015514610a2e578063cd7736b814610a08578063d79875eb1461054f578063d8270dce14610531578063d96a094a14610447578063dbf09d6614610424578063dcb1d8e8146103e9578063e138818c146103bc578063e640813014610381578063e799ecc014610346578063f2fde38b146102b8578063f4325d671461029a5763fc0c546a14610250573861000f565b34610295576000366003190112610295576040517f00000000000000000000000000000000000000000000000000000000000000006001600160a01b03168152602090f35b600080fd5b34610295576000366003190112610295576020600654604051908152f35b34610295576020366003190112610295576102d1611be8565b6102d9612696565b6001600160a01b0390811690811561032d57600054826bffffffffffffffffffffffff60a01b821617600055167f8be0079c531659141344cd1fd0a4f28419497f9722a3daafe3b4186f6b6457e0600080a3005b604051631e4fbdf760e01b815260006004820152602490fd5b346102955760003660031901126102955760206040517f00000000000000000000000000000000000000000000000000000000000000008152f35b346102955760003660031901126102955760206040517f00000000000000000000000000000000000000000000000000000000000000008152f35b346102955760003660031901126102955760206103d761283c565b6040516001600160a01b039091168152f35b346102955760003660031901126102955760206040517f00000000000000000000000000000000000000000000000000000000000000008152f35b3461029557600036600319011261029557602061043f611dc2565b604051908152f35b60203660031901126102955761045b611e32565b60075460ff811661051f5760101c60ff16156104e85761048060025460035490611cc9565b42106104a9575b602061049d610494611e55565b60043533611f31565b60018055604051908152f35b6004543410156104875760405162461bcd60e51b815260206004820152600d60248201526c10955657d513d3d7d4d3505313609a1b6044820152606490fd5b60405162461bcd60e51b815260206004820152600f60248201526e776169743a2066697273742062757960881b6044820152606490fd5b60405163bcb8b8fb60e01b8152600490fd5b34610295576000366003190112610295576020600254604051908152f35b346102955761055d36611bfe565b90610566611e32565b6007549060ff821661051f5780156109d757610580611e55565b9160ff8160081c161561092d575b506105976129bc565b926105a061283c565b604051946323b872dd60e01b60208701526024943386880152306044880152606496858882015287815260a0810181811067ffffffffffffffff82111761091857604052610617907f00000000000000000000000000000000000000000000000000000000000000006001600160a01b0316612a6d565b600554907f0000000000000000000000000000000000000000000000000000000000000000976106478984611cc9565b97600654927f00000000000000000000000000000000000000000000000000000000000000009961069561067b8c87611cc9565b61068f8c6106898386611c71565b92611cc9565b90611c84565b908082116108eb57906106a791611ca4565b998a156108c0578a9b6127109b999a9b978861ffff8092166106c9908d611c71565b049889917f0000000000000000000000000000000000000000000000000000000000000000166106f9908d611c71565b049a8b9161070691611ca4565b9061071091611ca4565b9a8b101561071d90611d8b565b6107278d88611ca4565b9061073191611cc9565b9061073c8c87611cc9565b9061074691611cc9565b90801561088457670de0b6b3a76400008082029182040361086f579061076b91611c84565b1161082e575050966107ab916107a3887f846c37eef631e0943682d87352ec117c20008eb7f425c9b85ac011a6d4774cc0999a611cc9565b600655611ca4565b6005558061081e575b5050806107ee575b506107c78133612961565b6107cf611dc2565b604080519485526020850192909252908301523391606090a260018055005b610818907f0000000000000000000000000000000000000000000000000000000000000000612961565b836107bc565b61082791612961565b84806107b4565b601b6040519162461bcd60e51b8352602060048401528201527f53454c4c5f53484f554c445f4e4f545f52414953455f505249434500000000006044820152fd5b83634e487b7160e01b60005260116004526000fd5b50505060156040519162461bcd60e51b835260206004840152820152741413d3d317d15354151657d05195115497d4d15313605a1b6044820152fd5b505060056040519162461bcd60e51b8352602060048401528201526406f75743d360dc1b6044820152fd5b50505060066040519162461bcd60e51b835260206004840152820152650dac2e8d05af60d31b6044820152fd5b87634e487b7160e01b60005260416004526000fd5b6040516370a0823160e01b8152306004820152906020826024817f00000000000000000000000000000000000000000000000000000000000000006001600160a01b03165afa80156109cb57600090610997575b60065561ff00191661010017600755508361058e565b506020823d6020116109c3575b816109b160209383611c4f565b81010312610295576101009151610981565b3d91506109a4565b6040513d6000823e3d90fd5b60405162461bcd60e51b81526020600482015260096024820152686e6f20746f6b656e7360b81b6044820152606490fd5b3461029557600036600319011261029557602060ff60075460101c166040519015158152f35b34610295576000366003190112610295576040517f00000000000000000000000000000000000000000000000000000000000000006001600160a01b03168152602090f35b34610295576000366003190112610295576020600554604051908152f35b3461029557600036600319011261029557602060405161ffff7f0000000000000000000000000000000000000000000000000000000000000000168152f35b3461029557600036600319011261029557602060ff600754166040519015158152f35b346102955760003660031901126102955760206040517f00000000000000000000000000000000000000000000000000000000000000008152f35b34610295576000366003190112610295576020600954604051908152f35b34610295576000366003190112610295576000546040516001600160a01b039091168152602090f35b3461029557600036600319011261029557602061043f611cf1565b3461029557600036600319011261029557610ba9612696565b600080546001600160a01b0319811682556001600160a01b03167f8be0079c531659141344cd1fd0a4f28419497f9722a3daafe3b4186f6b6457e08280a3005b34610295577f8aaf31bf77fd5b19dd8c32e81723adb543005478c2b8b1bdd69be544c52ca90e6040610c1a36611bfe565b610c22612696565b816004558060035582519182526020820152a1005b3461029557600036600319011261029557602060405161ffff7f0000000000000000000000000000000000000000000000000000000000000000168152f35b346102955760003660031901126102955760206040517f00000000000000000000000000000000000000000000000000000000000000008152f35b3461029557608036600319011261029557610cca611be8565b610cd2612696565b610cda611e32565b6007549060ff821661051f576001600160a01b0381811692908315610f4057600654906005549282158015610f38575b610f025760019060ff1916176007557f0000000000000000000000000000000000000000000000000000000000000000166040519063095ea7b360e01b938483528660048401526000602484015260209283816044816000875af180156109cb57610ee5575b506040519485526001600160a01b03861660048601526024850184905282856044816000865af19283156109cb5760609560c494610eb7575b5050604051968794859363f305d71960e01b8552600485015260248401526024356044840152604435606484015261dead608484015260643560a48401525af180156109cb57600091600093600092610e6b575b5060006006819055600555604080516001600160a01b0392909216825260208201859052810183905260608101829052610e679190600080516020612b4383398151915290608090a160018055604051938493846040919493926060820195825260208201520152565b0390f35b610ea4919450600080516020612b438339815191529350610e67925060603d606011610eb0575b610e9c8183611c4f565b810190611cd6565b90949193909250610dfd565b503d610e92565b81610ed692903d10610ede575b610ece8183611c4f565b810190611cb1565b508780610da9565b503d610ec4565b610efb90843d8611610ede57610ece8183611c4f565b5087610d70565b60405162461bcd60e51b815260206004820152600e60248201526d656d70747920726573657276657360901b6044820152606490fd5b508315610d0a565b60405162461bcd60e51b815260206004820152600a6024820152693130b2103937baba32b960b11b6044820152606490fd5b346102955760003660031901126102955760206040517f00000000000000000000000000000000000000000000000000000000000000008152f35b346102955760003660031901126102955760206040517f00000000000000000000000000000000000000000000000000000000000000008152f35b346102955760003660031901126102955760206110036129bc565b61ffff60405191168152f35b34610295576000366003190112610295576020600854604051908152f35b34610295576000366003190112610295576040517f00000000000000000000000000000000000000000000000000000000000000006001600160a01b03168152602090f35b34610295576020366003190112610295577f00000000000000000000000000000000000000000000000000000000000000006001600160a01b031633036110e65760075460ff8160081c166110d55760043560065561ff00191661010017600755005b60405162dc149f60e41b8152600490fd5b604051631966391b60e11b8152600490fd5b346102955760003660031901126102955761113d337f00000000000000000000000000000000000000000000000000000000000000006001600160a01b031614611c14565b60075460ff8160101c1661115b5762ff000019166201000017600755005b60405162461bcd60e51b815260206004820152600c60248201526b30b63932b0b23c9037b832b760a11b6044820152606490fd5b346102955760003660031901126102955760206040517f00000000000000000000000000000000000000000000000000000000000000008152f35b346102955760003660031901126102955760206040517f00000000000000000000000000000000000000000000000000000000000000008152f35b34610295576000366003190112610295576020600354604051908152f35b34610295576000366003190112610295576020600454604051908152f35b34610295576000366003190112610295576040516040810181811067ffffffffffffffff8211176112dc57604052600b81526020906a4f5054494f4e5f415f563160a81b60208201526040518092602082528251908160208401526000935b8285106112c3575050604092506000838284010152601f80199101168101030190f35b84810182015186860160400152938101938593506112a0565b634e487b7160e01b600052604160045260246000fd5b3461029557600036600319011261029557602060405161ffff7f0000000000000000000000000000000000000000000000000000000000000000168152f35b3461029557600036600319011261029557602060405161ffff7f0000000000000000000000000000000000000000000000000000000000000000168152f35b346102955760003660031901126102955760206040517f00000000000000000000000000000000000000000000000000000000000000008152f35b3461029557600036600319011261029557602060ff60075460081c166040519015158152f35b3461029557600036600319011261029557602060405160008152f35b3461029557604036600319011261029557611406611be8565b6001600160a01b03602435818116929083900361029557611425611e32565b61142d612696565b60ff6007541661051f5761143f611cf1565b7f00000000000000000000000000000000000000000000000000000000000000001161194e576040516370a0823160e01b81523060048201526020816024817f000000000000000000000000000000000000000000000000000000000000000087165afa9081156109cb5760009161191c575b50479066470de4df82000082106118e957600b549182156118d9575b82156118aa576114de83836126c2565b9283821061189557505090925b7f000000000000000000000000000000000000000000000000000000000000000084106118655761152461151e856127d4565b85611ca4565b611536611530846127d4565b84611ca4565b9560405163095ea7b360e01b908181528487166004820152600060248201526020816044816000897f0000000000000000000000000000000000000000000000000000000000000000165af180156109cb57611846575b506040519081526001600160a01b03861660048201526024810185905260208160448160007f000000000000000000000000000000000000000000000000000000000000000089165af180156109cb57611827575b50610708420191824211611811576040519763f305d71960e01b8952847f00000000000000000000000000000000000000000000000000000000000000001660048a01528560248a015260448901526064880152608487015260a486015260608560c481878588165af19485156109cb576000956117ed575b506040516370a0823160e01b81523060048201526020816024817f000000000000000000000000000000000000000000000000000000000000000086165afa9081156109cb576000916117bb575b50479181611732575b5050936117129185600080516020612b438339815191529661171b575b5060006006556000600555600160ff1960075416176007556040519485948590949392606092608083019660018060a01b03168352602083015260408201520152565b0390a160018055005b61172c9061172761283c565b612961565b866116cf565b929095916040519663a9059cbb60e01b602089015261dead60248901526044880152604487526080870187811067ffffffffffffffff8211176112dc57600080516020612b4383398151915297611712956117b1926040527f000000000000000000000000000000000000000000000000000000000000000016612a6d565b91958193506116b2565b90506020813d6020116117e5575b816117d660209383611c4f565b810103126102955751866116a9565b3d91506117c9565b61180791955060603d606011610eb057610e9c8183611c4f565b915050938561165b565b634e487b7160e01b600052601160045260246000fd5b61183f9060203d602011610ede57610ece8183611c4f565b50876115e2565b61185e9060203d602011610ede57610ece8183611c4f565b508861158d565b60405162461bcd60e51b8152602060048201526008602482015267262810333637b7b960c11b6044820152606490fd5b909492506118a4915084612749565b906114eb565b60405162461bcd60e51b8152602060048201526007602482015266070726963653d360cc1b6044820152606490fd5b91506118e3611dc2565b916114ce565b60405162461bcd60e51b815260206004820152600b60248201526a626e622d746f6f2d6c6f7760a81b6044820152606490fd5b90506020813d602011611946575b8161193760209383611c4f565b810103126102955751846114b2565b3d915061192a565b60405163b4202dd560e01b8152600490fd5b34610295576020366003190112610295576001600160a01b03611981611be8565b16600052600a6020526020604060002054604051908152f35b6040366003190112610295576119ae611be8565b6001600160a01b03906119e4337f0000000000000000000000000000000000000000000000000000000000000000841614611c14565b6119ec611e32565b60ff6007541661051f57611a0c90611a02611e55565b9060243590611f31565b6007549160ff8360101c1615611a2c575b60208260018055604051908152f35b6020600491604051928380926318160ddd60e01b82527f0000000000000000000000000000000000000000000000000000000000000000165afa9081156109cb57600091611afb575b50611aa86127109161ffff7f00000000000000000000000000000000000000000000000000000000000000001690611c71565b048111611ac6576201000060209262ff000019161760075582611a1d565b60405162461bcd60e51b815260206004820152600d60248201526c066697273742d6275792063617609c1b6044820152606490fd5b90506020813d602011611b27575b81611b1660209383611c4f565b810103126102955751611aa8611a75565b3d9150611b09565b34610295576000366003190112610295576020600b54604051908152f35b3461029557600036600319011261029557602060405161dead8152f35b34610295576000366003190112610295576040517f00000000000000000000000000000000000000000000000000000000000000006001600160a01b03168152602090f35b34610295576000366003190112610295576020907f00000000000000000000000000000000000000000000000000000000000000008152f35b600435906001600160a01b038216820361029557565b6040906003190112610295576004359060243590565b15611c1b57565b60405162461bcd60e51b815260206004820152600c60248201526b666163746f7279206f6e6c7960a01b6044820152606490fd5b90601f8019910116810190811067ffffffffffffffff8211176112dc57604052565b8181029291811591840414171561181157565b8115611c8e570490565b634e487b7160e01b600052601260045260246000fd5b9190820391821161181157565b90816020910312610295575180151581036102955790565b9190820180921161181157565b90816060910312610295578051916040602083015192015190565b611cf9611dc2565b6040516318160ddd60e01b8152906020826004817f00000000000000000000000000000000000000000000000000000000000000006001600160a01b03165afa9081156109cb57600091611d55575b611d5292506126c2565b90565b90506020823d602011611d83575b81611d7060209383611c4f565b8101031261029557611d52915190611d48565b3d9150611d63565b15611d9257565b60405162461bcd60e51b8152602060048201526008602482015267736c69707061676560c01b6044820152606490fd5b611def6005547f000000000000000000000000000000000000000000000000000000000000000090611cc9565b611e1c6006547f000000000000000000000000000000000000000000000000000000000000000090611cc9565b8015611e2b57611d5291612749565b5050600090565b600260015414611e43576002600155565b604051633ee5aeb560e01b8152600490fd5b604051636df84eb360e11b8152602081600481305afa60009181611efd575b50611d525750611ea76005547f000000000000000000000000000000000000000000000000000000000000000090611cc9565b611ed46006547f000000000000000000000000000000000000000000000000000000000000000090611cc9565b8015611e2b57670de0b6b3a76400009182810292818404149015171561181157611d5291611c84565b9091506020813d602011611f29575b81611f1960209383611c4f565b8101031261029557519038611e74565b3d9150611f0c565b9034156126665760075460ff8160081c16156125c8575b507f00000000000000000000000000000000000000000000000000000000000000003410612599577f0000000000000000000000000000000000000000000000000000000000000000341161256b57611fe17f00000000000000000000000000000000000000000000000000000000000000007f0000000000000000000000000000000000000000000000000000000000000000611cc9565b43111580612538575b6124b3575b611ff76129bc565b9061200061283c565b906127109461ffff9286612044858261203b827f00000000000000000000000000000000000000000000000000000000000000001634611c71565b04971634611c71565b0490612059826120548834611ca4565b611ca4565b91600554936006547f000000000000000000000000000000000000000000000000000000000000000061208c8188611cc9565b6120c17f0000000000000000000000000000000000000000000000000000000000000000916120bb8386611cc9565b90611c71565b6120d4836120cf8a8c611cc9565b611cc9565b8015612484576120e391611c84565b81811061245557816120f491611ca4565b98838a116124275761211d9d61210a8b86611ca4565b9e8f92831515908161241c575b50611d8b565b6001600160a01b039b7f00000000000000000000000000000000000000000000000000000000000000008d16330361232c575b50506120cf9061216761216d946120cf8b8d611cc9565b94611ca4565b80156122f057670de0b6b3a7640000918281029281840414901517156118115761219691611c84565b11156122ab577fbeae048c6d270d9469f86cf6e8fedda3c60ad770f16c24c9fc131c8e9a09101d96612247956121cd858c97611cc9565b6005556006558061227b575b508061226b575b505060405163a9059cbb60e01b60208201526001600160a01b0387166024820152604480820184905281526122429061221a606482611c4f565b857f000000000000000000000000000000000000000000000000000000000000000016612a6d565b612749565b600b819055604080513481526020810187905290810191909152921691606090a290565b61227491612961565b38806121e0565b6122a5907f0000000000000000000000000000000000000000000000000000000000000000612961565b386121d9565b60405162461bcd60e51b815260206004820152601760248201527f4255595f4d5553545f494e4352454153455f50524943450000000000000000006044820152606490fd5b60405162461bcd60e51b8152602060048201526014602482015273504f4f4c5f454d5054595f41465445525f42555960601b6044820152606490fd5b600491925060208d604051938480926318160ddd60e01b82527f0000000000000000000000000000000000000000000000000000000000000000165afa9081156109cb576000916123e6575b6123a592507f00000000000000000000000000000000000000000000000000000000000000001690611c71565b048d116123b4578c3880612150565b60405162461bcd60e51b815260206004820152600a60248201526907075626c6963206361760b41b6044820152606490fd5b90506020823d602011612414575b8161240160209383611c4f565b81010312610295576123a5915190612378565b3d91506123f4565b905083101538612117565b60405162461bcd60e51b81526020600482015260066024820152656d6174682d7960d01b6044820152606490fd5b60405162461bcd60e51b815260206004820152600760248201526606d6174682d79360cc1b6044820152606490fd5b60405162461bcd60e51b8152602060048201526007602482015266064656e6f6d3d360cc1b6044820152606490fd5b33600052600a6020526124cb34604060002054611cc9565b7f000000000000000000000000000000000000000000000000000000000000000081116125065733600052600a602052604060002055611fef565b60405162461bcd60e51b815260206004820152600a6024820152691b585e0bddd85b1b195d60b21b6044820152606490fd5b50337f00000000000000000000000000000000000000000000000000000000000000006001600160a01b03161415611fea565b60405162461bcd60e51b81526020600482015260066024820152650dac2f05ee8f60d31b6044820152606490fd5b60405162461bcd60e51b81526020600482015260076024820152666d696e2062757960c81b6044820152606490fd5b6040516370a0823160e01b8152306004820152906020826024817f00000000000000000000000000000000000000000000000000000000000000006001600160a01b03165afa80156109cb57600090612632575b60065561ff001916610100176007555038611f48565b506020823d60201161265e575b8161264c60209383611c4f565b8101031261029557610100915161261c565b3d915061263f565b60405162461bcd60e51b81526020600482015260086024820152673d32b9379031373160c11b6044820152606490fd5b6000546001600160a01b031633036126aa57565b60405163118cdaa760e01b8152336004820152602490fd5b90808202906000198184099082808310920391808303921461273857670de0b6b3a76400009082821115612726577faccb18165bd6fe31ae1cf318dc5b51eee0e1ba569b88cd74c1773b91fac10669940990828211900360ee1b910360121c170290565b60405163227bc15360e01b8152600490fd5b5050670de0b6b3a764000091500490565b670de0b6b3a76400009181830291600019848209938380861095039480860395146127c757848311156127265782910981600003821680920460028082600302188083028203028083028203028083028203028083028203028083028203028092029003029360018380600003040190848311900302920304170290565b505090611d529250611c84565b601e8102600019601e8309818082109103908082039114612832576127108181111561272657601e7fbc01a36e2eb1c432ca57a786c226809d495182a9930be0ded288ce703afb7e91940990828211900360fc1b910360041c170290565b5061271091500490565b6040516361d027b360e01b81526001600160a01b036020826004817f000000000000000000000000000000000000000000000000000000000000000085165afa600092816128db575b506128b05750507f000000000000000000000000000000000000000000000000000000000000000090565b8116611d5257507f000000000000000000000000000000000000000000000000000000000000000090565b6020939193813d602011612919575b816128f760209383611c4f565b81010312612915575190828216820361291257509138612885565b80fd5b5080fd5b3d91506128ea565b3d1561295c573d9067ffffffffffffffff82116112dc5760405191612950601f8201601f191660200184611c4f565b82523d6000602084013e565b606090565b6000918291829182916001600160a01b03165af161297d612921565b501561298557565b60405162461bcd60e51b815260206004820152600f60248201526e109390881cd95b990819985a5b1959608a1b6044820152606490fd5b6040516369b28fab60e01b81526020816004817f00000000000000000000000000000000000000000000000000000000000000006001600160a01b03165afa8091600091612a30575b5090611d5257507f000000000000000000000000000000000000000000000000000000000000000090565b6020813d602011612a65575b81612a4960209383611c4f565b8101031261291557519061ffff82168203612912575038612a05565b3d9150612a3c565b600080612a969260018060a01b03169360208151910182865af1612a8f612921565b9083612adf565b8051908115159182612ac4575b5050612aac5750565b60249060405190635274afe760e01b82526004820152fd5b612ad79250602080918301019101611cb1565b153880612aa3565b90612b065750805115612af457805190602001fd5b604051630a12f52160e11b8152600490fd5b81511580612b39575b612b17575090565b604051639996b31560e01b81526001600160a01b039091166004820152602490fd5b50803b15612b0f56fe6b60d326d3c4023c7cb9b6755fc31af3cfbccdeb07a7a8b4d79e201f732324eea264697066735822122041ad1d4a884953cf246292266a1dba7191855b60719fbdff08fab5b00a166b6b64736f6c6343000819003360a06040523461038a57610e0d803803806100198161038f565b928339810160808282031261038a5781516001600160401b03929083811161038a57826100479183016103b4565b602092838301519085821161038a576100619184016103b4565b9361007a60606100736040860161041f565b940161041f565b948251828111610296576003918254916001958684811c94168015610380575b8985101461036a578190601f94858111610319575b5089908583116001146102b7576000926102ac575b505060001982861b1c191690861b1783555b80519384116102965760049687548681811c9116801561028c575b8282101461027757838111610231575b50809285116001146101c857509383949184926000956101bd575b50501b92600019911b1c19161782555b6001600160a01b039081169182156101a55750600580546001600160a01b031980821685179092556040519491939083167f8be0079c531659141344cd1fd0a4f28419497f9722a3daafe3b4186f6b6457e0600080a316906006541617600655436080526109d9908161043482396080518161064e0152f35b602490600060405191631e4fbdf760e01b8352820152fd5b01519350388061011c565b92919084601f1981168960005285600020956000905b8983831061021757505050106101fd575b50505050811b01825561012c565b01519060f884600019921b161c19169055388080806101ef565b8587015189559097019694850194889350908101906101de565b88600052816000208480880160051c82019284891061026e575b0160051c019087905b828110610262575050610101565b60008155018790610254565b9250819261024b565b602289634e487b7160e01b6000525260246000fd5b90607f16906100f1565b634e487b7160e01b600052604160045260246000fd5b0151905038806100c4565b90889350601f19831691876000528b6000209260005b8d82821061030357505084116102eb575b505050811b0183556100d6565b015160001983881b60f8161c191690553880806102de565b8385015186558c979095019493840193016102cd565b90915085600052896000208580850160051c8201928c8610610361575b918a91869594930160051c01915b8281106103525750506100af565b600081558594508a9101610344565b92508192610336565b634e487b7160e01b600052602260045260246000fd5b93607f169361009a565b600080fd5b6040519190601f01601f191682016001600160401b0381118382101761029657604052565b919080601f8401121561038a5782516001600160401b038111610296576020906103e6601f8201601f1916830161038f565b9281845282828701011161038a5760005b81811061040c57508260009394955001015290565b85810183015184820184015282016103f7565b51906001600160a01b038216820361038a5756fe60806040908082526004918236101561001757600080fd5b600092833560e01c92836306fdde031461074557508263075461721461071c578263095ea7b314610671578263176345141461063657826318160ddd1461061757826323b872dd14610525578263313ce5671461050957826340c10f1914610446578263585212fb1461041a57826370a08231146103e3578263715018a6146103865782638da5cb5b1461035d57826395d89b411461023c578263a9059cbb1461020b578263dd62ed3e146101be578263f2fde38b1461012957505063fca3b5aa146100e257600080fd5b34610126576020366003190112610126576100fb610868565b610103610977565b60018060a01b03166bffffffffffffffffffffffff60a01b600654161760065580f35b80fd5b909150346101ba5760203660031901126101ba57610145610868565b9061014e610977565b6001600160a01b039182169283156101a4575050600554826bffffffffffffffffffffffff60a01b821617600555167f8be0079c531659141344cd1fd0a4f28419497f9722a3daafe3b4186f6b6457e08380a380f35b51631e4fbdf760e01b8152908101849052602490fd5b8280fd5b838234610207578060031936011261020757806020926101dc610868565b6101e4610883565b6001600160a01b0391821683526001865283832091168252845220549051908152f35b5080fd5b83823461020757806003193601126102075760209061023561022b610868565b6024359033610899565b5160018152f35b83823461020757816003193601126102075780519082845460018160011c9060018316928315610353575b60209384841081146103405783885290811561032457506001146102cf575b505050829003601f01601f191682019267ffffffffffffffff8411838510176102bc57508291826102b892528261081f565b0390f35b634e487b7160e01b815260418552602490fd5b8787529192508591837f8a35acfbc15ff81a39ae7d344fd709f28e8600b4aa8c65c6b64bfe7fe36bd19b5b8385106103105750505050830101858080610286565b8054888601830152930192849082016102fa565b60ff1916878501525050151560051b8401019050858080610286565b634e487b7160e01b895260228a52602489fd5b91607f1691610267565b83823461020757816003193601126102075760055490516001600160a01b039091168152602090f35b833461012657806003193601126101265761039f610977565b600580546001600160a01b0319811690915581906001600160a01b03167f8be0079c531659141344cd1fd0a4f28419497f9722a3daafe3b4186f6b6457e08280a380f35b8382346102075760203660031901126102075760209181906001600160a01b0361040b610868565b16815280845220549051908152f35b8334610126578060031936011261012657610433610977565b600680546001600160a01b031916905580f35b9150346101ba57806003193601126101ba57610460610868565b60065460243592916001600160a01b0391821633036104f957169283156104e457600254908382018092116104d1575084927fddf252ad1be2c89b69c2b068fc378daa952ba7f163c4a11628f55a4df523b3ef9260209260025585855284835280852082815401905551908152a380f35b634e487b7160e01b865260119052602485fd5b84602492519163ec442f0560e01b8352820152fd5b8251633e34a41b60e21b81528590fd5b8382346102075781600319360112610207576020905160128152f35b83346101265760603660031901126101265761053f610868565b610547610883565b916044359360018060a01b038316808352600160205286832033845260205286832054916000198303610583575b602088610235898989610899565b8683106105eb5781156105d45733156105bd5750825260016020908152868320338452815291869020908590039055829061023587610575565b8751634a1406b160e11b8152908101849052602490fd5b875163e602df0560e01b8152908101849052602490fd5b8751637dc7a0d960e11b8152339181019182526020820193909352604081018790528291506060010390fd5b8382346102075781600319360112610207576020906002549051908152f35b838234610207578160031936011261020757602090517f00000000000000000000000000000000000000000000000000000000000000008152f35b909150346101ba57816003193601126101ba5761068c610868565b602435903315610705576001600160a01b03169182156106ee57508083602095338152600187528181208582528752205582519081527f8c5be1e5ebec7d5bd14f71427d1e84f3dd0314c0f7b2291e5b200ac8c7c3b925843392a35160018152f35b8351634a1406b160e11b8152908101859052602490fd5b835163e602df0560e01b8152808401869052602490fd5b83823461020757816003193601126102075760065490516001600160a01b039091168152602090f35b849192346101ba57826003193601126101ba578260035460018160011c9060018316928315610815575b60209384841081146103405783885290811561032457506001146107bf57505050829003601f01601f191682019267ffffffffffffffff8411838510176102bc57508291826102b892528261081f565b600387529192508591837fc2575a0e9e593c00f959f8c92f12db2869c3395a3b0502d05e2516446f71f85b5b8385106108015750505050830101858080610286565b8054888601830152930192849082016107eb565b91607f169161076f565b6020808252825181830181905290939260005b82811061085457505060409293506000838284010152601f8019910116010190565b818101860151848201604001528501610832565b600435906001600160a01b038216820361087e57565b600080fd5b602435906001600160a01b038216820361087e57565b916001600160a01b0380841692831561095e57169283156109455760009083825281602052604082205490838210610913575091604082827fddf252ad1be2c89b69c2b068fc378daa952ba7f163c4a11628f55a4df523b3ef958760209652828652038282205586815220818154019055604051908152a3565b60405163391434e360e21b81526001600160a01b03919091166004820152602481019190915260448101839052606490fd5b60405163ec442f0560e01b815260006004820152602490fd5b604051634b637e8f60e11b815260006004820152602490fd5b6005546001600160a01b0316330361098b57565b60405163118cdaa760e01b8152336004820152602490fdfea2646970667358221220dadb48e028ac95f993bc0e743696e8d77097e07eff06b49658b44e9f25b706fa64736f6c63430008190033a2646970667358221220925099eda52f26590e581f6540a32bad76121e4c400adf016c277f62907d7dd864736f6c63430008190033",
  "linkReferences": {},
  "deployedLinkReferences": {}
}