{
  "_format": "hh-sol-artifact-1",
  "contractName": "CoinrushToken",
  "sourceName": "contracts/CoinrushToken.sol",
  "abi": [
    {
      "inputs": [
        {
          "internalType": "string",
          "name": "name_",
          "type": "string"
        },
        {
          "internalType": "string",
          "name": "symbol_",
          "type": "string"
        },
        {
          "internalType": "address",
          "name": "initialOwner",
          "type": "address"
        },
        {
          "internalType": "address",
          "name": "minter_",
          "type": "address"
        }
      ],
      "stateMutability": "nonpayable",
      "type": "constructor"
    },
    {
      "inputs": [
        {
          "internalType": "address",
          "name": "spender",
          "type": "address"
        },
        {
          "internalType": "uint256",
          "name": "allowance",
          "type": "uint256"
        },
        {
          "internalType": "uint256",
          "name": "needed",
          "type": "uint256"
        }
      ],
      "name": "ERC20InsufficientAllowance",
      "type": "error"
    },
    {
      "inputs": [
        {
          "internalType": "address",
          "name": "sender",
          "type": "address"
        },
        {
          "internalType": "uint256",
          "name": "balance",
          "type": "uint256"
        },
        {
          "internalType": "uint256",
          "name": "needed",
          "type": "uint256"
        }
      ],
      "name": "ERC20InsufficientBalance",
      "type": "error"
    },
    {
      "inputs": [
        {
          "internalType": "address",
          "name": "approver",
          "type": "address"
        }
      ],
      "name": "ERC20InvalidApprover",
      "type": "error"
    },
    {
      "inputs": [
        {
          "internalType": "address",
          "name": "receiver",
          "type": "address"
        }
      ],
      "name": "ERC20InvalidReceiver",
      "type": "error"
    },
    {
      "inputs": [
        {
          "internalType": "address",
          "name": "sender",
          "type": "address"
        }
      ],
      "name": "ERC20InvalidSender",
      "type": "error"
    },
    {
      "inputs": [
        {
          "internalType": "address",
          "name": "spender",
          "type": "address"
        }
      ],
      "name": "ERC20InvalidSpender",
      "type": "error"
    },
    {
      "inputs": [],
      "name": "NotMinter",
      "type": "error"
    },
    {
      "inputs": [
        {
          "internalType": "address",
          "name": "owner",
          "type": "address"
        }
      ],
      "name": "OwnableInvalidOwner",
      "type": "error"
    },
    {
      "inputs": [
        {
          "internalType": "address",
          "name": "account",
          "type": "address"
        }
      ],
      "name": "OwnableUnauthorizedAccount",
      "type": "error"
    },
    {
      "anonymous": false,
      "inputs": [
        {
          "indexed": true,
          "internalType": "address",
          "name": "owner",
          "type": "address"
        },
        {
          "indexed": true,
          "internalType": "address",
          "name": "spender",
          "type": "address"
        },
        {
          "indexed": false,
          "internalType": "uint256",
          "name": "value",
          "type": "uint256"
        }
      ],
      "name": "Approval",
      "type": "event"
    },
    {
      "anonymous": false,
      "inputs": [
        {
          "indexed": true,
          "internalType": "address",
          "name": "previousOwner",
          "type": "address"
        },
        {
          "indexed": true,
          "internalType": "address",
          "name": "newOwner",
          "type": "address"
        }
      ],
      "name": "OwnershipTransferred",
      "type": "event"
    },
    {
      "anonymous": false,
      "inputs": [
        {
          "indexed": true,
          "internalType": "address",
          "name": "from",
          "type": "address"
        },
        {
          "indexed": true,
          "internalType": "address",
          "name": "to",
          "type": "address"
        },
        {
          "indexed": false,
          "internalType": "uint256",
          "name": "value",
          "type": "uint256"
        }
      ],
      "name": "Transfer",
      "type": "event"
    },
    {
      "inputs": [
        {
          "internalType": "address",
          "name": "owner",
          "type": "address"
        },
        {
          "internalType": "address",
          "name": "spender",
          "type": "address"
        }
      ],
      "name": "allowance",
      "outputs": [
        {
          "internalType": "uint256",
          "name": "",
          "type": "uint256"
        }
      ],
      "stateMutability": "view",
      "type": "function"
    },
    {
      "inputs": [
        {
          "internalType": "address",
          "name": "spender",
          "type": "address"
        },
        {
          "internalType": "uint256",
          "name": "value",
          "type": "uint256"
        }
      ],
      "name": "approve",
      "outputs": [
        {
          "internalType": "bool",
          "name": "",
          "type": "bool"
        }
      ],
      "stateMutability": "nonpayable",
      "type": "function"
    },
    {
      "inputs": [
        {
          "internalType": "address",
          "name": "account",
          "type": "address"
        }
      ],
      "name": "balanceOf",
      "outputs": [
        {
          "internalType": "uint256",
          "name": "",
          "type": "uint256"
        }
      ],
      "stateMutability": "view",
      "type": "function"
    },
    {
      "inputs": [],
      "name": "creationBlock",
      "outputs": [
        {
          "internalType": "uint256",
          "name": "",
          "type": "uint256"
        }
      ],
      "stateMutability": "view",
      "type": "function"
    },
    {
      "inputs": [],
      "name": "decimals",
      "outputs": [
        {
          "internalType": "uint8",
          "name": "",
          "type": "uint8"
        }
      ],
      "stateMutability": "view",
      "type": "function"
    },
    {
      "inputs": [
        {
          "internalType": "address",
          "name": "to",
          "type": "address"
        },
        {
          "internalType": "uint256",
          "name": "amount",
          "type": "uint256"
        }
      ],
      "name": "mint",
      "outputs": [],
      "stateMutability": "nonpayable",
      "type": "function"
    },
    {
      "inputs": [],
      "name": "minter",
      "outputs": [
        {
          "internalType": "address",
          "name": "",
          "type": "address"
        }
      ],
      "stateMutability": "view",
      "type": "function"
    },
    {
      "inputs": [],
      "name": "name",
      "outputs": [
        {
          "internalType": "string",
          "name": "",
          "type": "string"
        }
      ],
      "stateMutability": "view",
      "type": "function"
    },
    {
      "inputs": [],
      "name": "owner",
      "outputs": [
        {
          "internalType": "address",
          "name": "",
          "type": "address"
        }
      ],
      "stateMutability": "view",
      "type": "function"
    },
    {
      "inputs": [],
      "name": "renounceOwnership",
      "outputs": [],
      "stateMutability": "nonpayable",
      "type": "function"
    },
    {
      "inputs": [],
      "name": "revokeMinter",
      "outputs": [],
      "stateMutability": "nonpayable",
      "type": "function"
    },
    {
      "inputs": [
        {
          "internalType": "address",
          "name": "m",
          "type": "address"
        }
      ],
      "name": "setMinter",
      "outputs": [],
      "stateMutability": "nonpayable",
      "type": "function"
    },
    {
      "inputs": [],
      "name": "symbol",
      "outputs": [
        {
          "internalType": "string",
          "name": "",
          "type": "string"
        }
      ],
      "stateMutability": "view",
      "type": "function"
    },
    {
      "inputs": [],
      "name": "totalSupply",
      "outputs": [
        {
          "internalType": "uint256",
          "name": "",
          "type": "uint256"
        }
      ],
      "stateMutability": "view",
      "type": "function"
    },
    {
      "inputs": [
        {
          "internalType": "address",
          "name": "to",
          "type": "address"
        },
        {
          "internalType": "uint256",
          "name": "value",
          "type": "uint256"
        }
      ],
      "name": "transfer",
      "outputs": [
        {
          "internalType": "bool",
          "name": "",
          "type": "bool"
        }
      ],
      "stateMutability": "nonpayable",
      "type": "function"
    },
    {
      "inputs": [
        {
          "internalType": "address",
          "name": "from",
          "type": "address"
        },
        {
          "internalType": "address",
          "name": "to",
          "type": "address"
        },
        {
          "internalType": "uint256",
          "name": "value",
          "type": "uint256"
        }
      ],
      "name": "transferFrom",
      "outputs": [
        {
          "internalType": "bool",
          "name": "",
          "type": "bool"
        }
      ],
      "stateMutability": "nonpayable",
      "type": "function"
    },
    {
      "inputs": [
        {
          "internalType": "address",
          "name": "newOwner",
          "type": "address"
        }
      ],
      "name": "transferOwnership",
      "outputs": [],
      "stateMutability": "nonpayable",
      "type": "function"
    }
  ],
  "bytecode": "0x60a06040523461038a57610e0d803803806100198161038f565b928339810160808282031261038a5781516001600160401b03929083811161038a57826100479183016103b4565b602092838301519085821161038a576100619184016103b4565b9361007a60606100736040860161041f565b940161041f565b948251828111610296576003918254916001958684811c94168015610380575b8985101461036a578190601f94858111610319575b5089908583116001146102b7576000926102ac575b505060001982861b1c191690861b1783555b80519384116102965760049687548681811c9116801561028c575b8282101461027757838111610231575b50809285116001146101c857509383949184926000956101bd575b50501b92600019911b1c19161782555b6001600160a01b039081169182156101a55750600580546001600160a01b031980821685179092556040519491939083167f8be0079c531659141344cd1fd0a4f28419497f9722a3daafe3b4186f6b6457e0600080a316906006541617600655436080526109d9908161043482396080518161064e0152f35b602490600060405191631e4fbdf760e01b8352820152fd5b01519350388061011c565b92919084601f1981168960005285600020956000905b8983831061021757505050106101fd575b50505050811b01825561012c565b01519060f884600019921b161c19169055388080806101ef565b8587015189559097019694850194889350908101906101de565b88600052816000208480880160051c82019284891061026e575b0160051c019087905b828110610262575050610101565b60008155018790610254565b9250819261024b565b602289634e487b7160e01b6000525260246000fd5b90607f16906100f1565b634e487b7160e01b600052604160045260246000fd5b0151905038806100c4565b90889350601f19831691876000528b6000209260005b8d82821061030357505084116102eb575b505050811b0183556100d6565b015160001983881b60f8161c191690553880806102de565b8385015186558c979095019493840193016102cd565b90915085600052896000208580850160051c8201928c8610610361575b918a91869594930160051c01915b8281106103525750506100af565b600081558594508a9101610344565b92508192610336565b634e487b7160e01b600052602260045260246000fd5b93607f169361009a565b600080fd5b6040519190601f01601f191682016001600160401b0381118382101761029657604052565b919080601f8401121561038a5782516001600160401b038111610296576020906103e6601f8201601f1916830161038f565b9281845282828701011161038a5760005b81811061040c57508260009394955001015290565b85810183015184820184015282016103f7565b51906001600160a01b038216820361038a5756fe60806040908082526004918236101561001757600080fd5b600092833560e01c92836306fdde031461074557508263075461721461071c578263095ea7b314610671578263176345141461063657826318160ddd1461061757826323b872dd14610525578263313ce5671461050957826340c10f1914610446578263585212fb1461041a57826370a08231146103e3578263715018a6146103865782638da5cb5b1461035d57826395d89b411461023c578263a9059cbb1461020b578263dd62ed3e146101be578263f2fde38b1461012957505063fca3b5aa146100e257600080fd5b34610126576020366003190112610126576100fb610868565b610103610977565b60018060a01b03166bffffffffffffffffffffffff60a01b600654161760065580f35b80fd5b909150346101ba5760203660031901126101ba57610145610868565b9061014e610977565b6001600160a01b039182169283156101a4575050600554826bffffffffffffffffffffffff60a01b821617600555167f8be0079c531659141344cd1fd0a4f28419497f9722a3daafe3b4186f6b6457e08380a380f35b51631e4fbdf760e01b8152908101849052602490fd5b8280fd5b838234610207578060031936011261020757806020926101dc610868565b6101e4610883565b6001600160a01b0391821683526001865283832091168252845220549051908152f35b5080fd5b83823461020757806003193601126102075760209061023561022b610868565b6024359033610899565b5160018152f35b83823461020757816003193601126102075780519082845460018160011c9060018316928315610353575b60209384841081146103405783885290811561032457506001146102cf575b505050829003601f01601f191682019267ffffffffffffffff8411838510176102bc57508291826102b892528261081f565b0390f35b634e487b7160e01b815260418552602490fd5b8787529192508591837f8a35acfbc15ff81a39ae7d344fd709f28e8600b4aa8c65c6b64bfe7fe36bd19b5b8385106103105750505050830101858080610286565b8054888601830152930192849082016102fa565b60ff1916878501525050151560051b8401019050858080610286565b634e487b7160e01b895260228a52602489fd5b91607f1691610267565b83823461020757816003193601126102075760055490516001600160a01b039091168152602090f35b833461012657806003193601126101265761039f610977565b600580546001600160a01b0319811690915581906001600160a01b03167f8be0079c531659141344cd1fd0a4f28419497f9722a3daafe3b4186f6b6457e08280a380f35b8382346102075760203660031901126102075760209181906001600160a01b0361040b610868565b16815280845220549051908152f35b8334610126578060031936011261012657610433610977565b600680546001600160a01b031916905580f35b9150346101ba57806003193601126101ba57610460610868565b60065460243592916001600160a01b0391821633036104f957169283156104e457600254908382018092116104d1575084927fddf252ad1be2c89b69c2b068fc378daa952ba7f163c4a11628f55a4df523b3ef9260209260025585855284835280852082815401905551908152a380f35b634e487b7160e01b865260119052602485fd5b84602492519163ec442f0560e01b8352820152fd5b8251633e34a41b60e21b81528590fd5b8382346102075781600319360112610207576020905160128152f35b83346101265760603660031901126101265761053f610868565b610547610883565b916044359360018060a01b038316808352600160205286832033845260205286832054916000198303610583575b602088610235898989610899565b8683106105eb5781156105d45733156105bd5750825260016020908152868320338452815291869020908590039055829061023587610575565b8751634a1406b160e11b8152908101849052602490fd5b875163e602df0560e01b8152908101849052602490fd5b8751637dc7a0d960e11b8152339181019182526020820193909352604081018790528291506060010390fd5b8382346102075781600319360112610207576020906002549051908152f35b838234610207578160031936011261020757602090517f00000000000000000000000000000000000000000000000000000000000000008152f35b909150346101ba57816003193601126101ba5761068c610868565b602435903315610705576001600160a01b03169182156106ee57508083602095338152600187528181208582528752205582519081527f8c5be1e5ebec7d5bd14f71427d1e84f3dd0314c0f7b2291e5b200ac8c7c3b925843392a35160018152f35b8351634a1406b160e11b8152908101859052602490fd5b835163e602df0560e01b8152808401869052602490fd5b83823461020757816003193601126102075760065490516001600160a01b039091168152602090f35b849192346101ba57826003193601126101ba578260035460018160011c9060018316928315610815575b60209384841081146103405783885290811561032457506001146107bf57505050829003601f01601f191682019267ffffffffffffffff8411838510176102bc57508291826102b892528261081f565b600387529192508591837fc2575a0e9e593c00f959f8c92f12db2869c3395a3b0502d05e2516446f71f85b5b8385106108015750505050830101858080610286565b8054888601830152930192849082016107eb565b91607f169161076f565b6020808252825181830181905290939260005b82811061085457505060409293506000838284010152601f8019910116010190565b818101860151848201604001528501610832565b600435906001600160a01b038216820361087e57565b600080fd5b602435906001600160a01b038216820361087e57565b916001600160a01b0380841692831561095e57169283156109455760009083825281602052604082205490838210610913575091604082827fddf252ad1be2c89b69c2b068fc378daa952ba7f163c4a11628f55a4df523b3ef958760209652828652038282205586815220818154019055604051908152a3565b60405163391434e360e21b81526001600160a01b03919091166004820152602481019190915260448101839052606490fd5b60405163ec442f0560e01b815260006004820152602490fd5b604051634b637e8f60e11b815260006004820152602490fd5b6005546001600160a01b0316330361098b57565b60405163118cdaa760e01b8152336004820152602490fdfea2646970667358221220dadb48e028ac95f993bc0e743696e8d77097e07eff06b49658b44e9f25b706fa64736f6c63430008190033",
  "linkReferences": {},
  "deployedLinkReferences": {}
}