{"contracts/BondingCurvePool.sol":{"BondingCurvePool":{"abi":[{"inputs":[{"internalType":"address","name":"_factory","type":"address"},{"internalType":"address","name":"_token","type":"address"},{"internalType":"address","name":"_creator","type":"address"},{"internalType":"address","name":"_treasury","type":"address"},{"internalType":"uint16","name":"_creatorFeeBps","type":"uint16"},{"internalType":"uint16","name":"_platformFeeBps","type":"uint16"},{"internalType":"uint256","name":"_x0","type":"uint256"},{"internalType":"uint256","name":"_y0","type":"uint256"},{"internalType":"uint256","name":"_targetCapWei","type":"uint256"},{"internalType":"uint16","name":"_creatorFirstBuyCapBps","type":"uint16"},{"internalType":"uint16","name":"_publicBuyCapBps","type":"uint16"},{"internalType":"uint256","name":"_p0WeiPerToken","type":"uint256"},{"internalType":"uint256","name":"_starterTrancheTokens","type":"uint256"},{"internalType":"uint256","name":"_minBuyWei","type":"uint256"},{"internalType":"uint256","name":"_maxBnbPerTxWei","type":"uint256"},{"internalType":"uint256","name":"_maxBnbPerWalletWei","type":"uint256"},{"internalType":"uint256","name":"_antiWhaleBlocks","type":"uint256"},{"internalType":"uint256","name":"_minLiqBnbWei","type":"uint256"}],"stateMutability":"payable","type":"constructor"},{"inputs":[{"internalType":"address","name":"target","type":"address"}],"name":"AddressEmptyCode","type":"error"},{"inputs":[{"internalType":"address","name":"account","type":"address"}],"name":"AddressInsufficientBalance","type":"error"},{"inputs":[],"name":"AlreadyInitialized","type":"error"},{"inputs":[],"name":"CapNotReached","type":"error"},{"inputs":[],"name":"FailedInnerCall","type":"error"},{"inputs":[],"name":"MathOverflowedMulDiv","type":"error"},{"inputs":[],"name":"NotFactory","type":"error"},{"inputs":[{"internalType":"address","name":"owner","type":"address"}],"name":"OwnableInvalidOwner","type":"error"},{"inputs":[{"internalType":"address","name":"account","type":"address"}],"name":"OwnableUnauthorizedAccount","type":"error"},{"inputs":[],"name":"ReentrancyGuardReentrantCall","type":"error"},{"inputs":[{"internalType":"address","name":"token","type":"address"}],"name":"SafeERC20FailedOperation","type":"error"},{"inputs":[],"name":"TradingDisabled","type":"error"},{"anonymous":false,"inputs":[{"indexed":true,"internalType":"address","name":"buyer","type":"address"},{"indexed":false,"internalType":"uint256","name":"bnbIn","type":"uint256"},{"indexed":false,"internalType":"uint256","name":"tokensOut","type":"uint256"},{"indexed":false,"internalType":"uint256","name":"priceWeiPerToken","type":"uint256"}],"name":"Buy","type":"event"},{"anonymous":false,"inputs":[{"indexed":false,"internalType":"uint256","name":"minEarlyBnb","type":"uint256"},{"indexed":false,"internalType":"uint256","name":"earlyWindowSecs","type":"uint256"}],"name":"EarlyBuyParamsUpdated","type":"event"},{"anonymous":false,"inputs":[{"indexed":false,"internalType":"address","name":"router","type":"address"},{"indexed":false,"internalType":"uint256","name":"bnbUsed","type":"uint256"},{"indexed":false,"internalType":"uint256","name":"tokenUsed","type":"uint256"},{"indexed":false,"internalType":"uint256","name":"lpOut","type":"uint256"}],"name":"Migrated","type":"event"},{"anonymous":false,"inputs":[{"indexed":true,"internalType":"address","name":"previousOwner","type":"address"},{"indexed":true,"internalType":"address","name":"newOwner","type":"address"}],"name":"OwnershipTransferred","type":"event"},{"anonymous":false,"inputs":[{"indexed":false,"internalType":"uint256","name":"amountBNB","type":"uint256"}],"name":"Seeded","type":"event"},{"anonymous":false,"inputs":[{"indexed":true,"internalType":"address","name":"seller","type":"address"},{"indexed":false,"internalType":"uint256","name":"tokenIn","type":"uint256"},{"indexed":false,"internalType":"uint256","name":"bnbOut","type":"uint256"},{"indexed":false,"internalType":"uint256","name":"priceWeiPerToken","type":"uint256"}],"name":"Sell","type":"event"},{"inputs":[],"name":"DEAD","outputs":[{"internalType":"address","name":"","type":"address"}],"stateMutability":"view","type":"function"},{"inputs":[],"name":"STARTER_ENABLED","outputs":[{"internalType":"bool","name":"","type":"bool"}],"stateMutability":"view","type":"function"},{"inputs":[],"name":"antiWhaleBlocks","outputs":[{"internalType":"uint256","name":"","type":"uint256"}],"stateMutability":"view","type":"function"},{"inputs":[{"internalType":"uint256","name":"minTokensOut","type":"uint256"}],"name":"buy","outputs":[{"internalType":"uint256","name":"tokensOut","type":"uint256"}],"stateMutability":"payable","type":"function"},{"inputs":[{"internalType":"address","name":"to","type":"address"},{"internalType":"uint256","name":"minTokensOut","type":"uint256"}],"name":"buyFor","outputs":[{"internalType":"uint256","name":"tokensOut","type":"uint256"}],"stateMutability":"payable","type":"function"},{"inputs":[],"name":"creationBlock","outputs":[{"internalType":"uint256","name":"","type":"uint256"}],"stateMutability":"view","type":"function"},{"inputs":[],"name":"creationTime","outputs":[{"internalType":"uint256","name":"","type":"uint256"}],"stateMutability":"view","type":"function"},{"inputs":[],"name":"creator","outputs":[{"internalType":"address","name":"","type":"address"}],"stateMutability":"view","type":"function"},{"inputs":[],"name":"creatorFeeBps","outputs":[{"internalType":"uint16","name":"","type":"uint16"}],"stateMutability":"view","type":"function"},{"inputs":[],"name":"creatorFirstBuyCapBps","outputs":[{"internalType":"uint16","name":"","type":"uint16"}],"stateMutability":"view","type":"function"},{"inputs":[],"name":"currentPlatformFeeBps","outputs":[{"internalType":"uint16","name":"","type":"uint16"}],"stateMutability":"view","type":"function"},{"inputs":[],"name":"debugSignature","outputs":[{"internalType":"string","name":"","type":"string"}],"stateMutability":"pure","type":"function"},{"inputs":[],"name":"earlyWindowSecs","outputs":[{"internalType":"uint256","name":"","type":"uint256"}],"stateMutability":"view","type":"function"},{"inputs":[],"name":"escrowBnb","outputs":[{"internalType":"uint256","name":"","type":"uint256"}],"stateMutability":"view","type":"function"},{"inputs":[],"name":"factory","outputs":[{"internalType":"address","name":"","type":"address"}],"stateMutability":"view","type":"function"},{"inputs":[],"name":"firstBuyDone","outputs":[{"internalType":"bool","name":"","type":"bool"}],"stateMutability":"view","type":"function"},{"inputs":[{"internalType":"address","name":"router","type":"address"},{"internalType":"uint256","name":"minTokens","type":"uint256"},{"internalType":"uint256","name":"minBNB","type":"uint256"},{"internalType":"uint256","name":"deadline","type":"uint256"}],"name":"graduate","outputs":[{"internalType":"uint256","name":"amtToken","type":"uint256"},{"internalType":"uint256","name":"amtBNB","type":"uint256"},{"internalType":"uint256","name":"lpOut","type":"uint256"}],"stateMutability":"nonpayable","type":"function"},{"inputs":[{"internalType":"uint256","name":"amount","type":"uint256"}],"name":"initTokenReserve","outputs":[],"stateMutability":"nonpayable","type":"function"},{"inputs":[],"name":"initialized","outputs":[{"internalType":"bool","name":"","type":"bool"}],"stateMutability":"view","type":"function"},{"inputs":[],"name":"isMigrated","outputs":[{"internalType":"bool","name":"","type":"bool"}],"stateMutability":"view","type":"function"},{"inputs":[],"name":"lastTradePriceWei","outputs":[{"internalType":"uint256","name":"","type":"uint256"}],"stateMutability":"view","type":"function"},{"inputs":[],"name":"marketCapWei","outputs":[{"internalType":"uint256","name":"","type":"uint256"}],"stateMutability":"view","type":"function"},{"inputs":[],"name":"maxBnbPerTxWei","outputs":[{"internalType":"uint256","name":"","type":"uint256"}],"stateMutability":"view","type":"function"},{"inputs":[],"name":"maxBnbPerWalletWei","outputs":[{"internalType":"uint256","name":"","type":"uint256"}],"stateMutability":"view","type":"function"},{"inputs":[{"internalType":"address","name":"router","type":"address"},{"internalType":"address","name":"lpRecipient","type":"address"}],"name":"migrate","outputs":[],"stateMutability":"nonpayable","type":"function"},{"inputs":[],"name":"migrated","outputs":[{"internalType":"bool","name":"","type":"bool"}],"stateMutability":"view","type":"function"},{"inputs":[],"name":"minBuyWei","outputs":[{"internalType":"uint256","name":"","type":"uint256"}],"stateMutability":"view","type":"function"},{"inputs":[],"name":"minEarlyBnb","outputs":[{"internalType":"uint256","name":"","type":"uint256"}],"stateMutability":"view","type":"function"},{"inputs":[],"name":"minLiqBnbWei","outputs":[{"internalType":"uint256","name":"","type":"uint256"}],"stateMutability":"view","type":"function"},{"inputs":[],"name":"openPublic","outputs":[],"stateMutability":"nonpayable","type":"function"},{"inputs":[],"name":"owner","outputs":[{"internalType":"address","name":"","type":"address"}],"stateMutability":"view","type":"function"},{"inputs":[],"name":"p0WeiPerToken","outputs":[{"internalType":"uint256","name":"","type":"uint256"}],"stateMutability":"view","type":"function"},{"inputs":[],"name":"platform","outputs":[{"internalType":"address","name":"","type":"address"}],"stateMutability":"view","type":"function"},{"inputs":[],"name":"platformFeeBps","outputs":[{"internalType":"uint16","name":"","type":"uint16"}],"stateMutability":"view","type":"function"},{"inputs":[],"name":"platformTreasury","outputs":[{"internalType":"address","name":"","type":"address"}],"stateMutability":"view","type":"function"},{"inputs":[],"name":"priceWeiPerToken","outputs":[{"internalType":"uint256","name":"","type":"uint256"}],"stateMutability":"view","type":"function"},{"inputs":[],"name":"publicBuyCapBps","outputs":[{"internalType":"uint16","name":"","type":"uint16"}],"stateMutability":"view","type":"function"},{"inputs":[],"name":"renounceOwnership","outputs":[],"stateMutability":"nonpayable","type":"function"},{"inputs":[],"name":"reserveNative","outputs":[{"internalType":"uint256","name":"","type":"uint256"}],"stateMutability":"view","type":"function"},{"inputs":[],"name":"reserveToken","outputs":[{"internalType":"uint256","name":"","type":"uint256"}],"stateMutability":"view","type":"function"},{"inputs":[{"internalType":"uint256","name":"tokensIn","type":"uint256"},{"internalType":"uint256","name":"minBnbOut","type":"uint256"}],"name":"sell","outputs":[],"stateMutability":"nonpayable","type":"function"},{"inputs":[{"internalType":"uint256","name":"_minEarlyBnb","type":"uint256"},{"internalType":"uint256","name":"_earlyWindowSecs","type":"uint256"}],"name":"setEarlyBuyParams","outputs":[],"stateMutability":"nonpayable","type":"function"},{"inputs":[{"internalType":"address","name":"","type":"address"}],"name":"spentBnb","outputs":[{"internalType":"uint256","name":"","type":"uint256"}],"stateMutability":"view","type":"function"},{"inputs":[],"name":"starterSold","outputs":[{"internalType":"uint256","name":"","type":"uint256"}],"stateMutability":"view","type":"function"},{"inputs":[],"name":"starterTrancheTokens","outputs":[{"internalType":"uint256","name":"","type":"uint256"}],"stateMutability":"view","type":"function"},{"inputs":[],"name":"targetMarketCapWei","outputs":[{"internalType":"uint256","name":"","type":"uint256"}],"stateMutability":"view","type":"function"},{"inputs":[],"name":"token","outputs":[{"internalType":"address","name":"","type":"address"}],"stateMutability":"view","type":"function"},{"inputs":[{"internalType":"address","name":"newOwner","type":"address"}],"name":"transferOwnership","outputs":[],"stateMutability":"nonpayable","type":"function"},{"inputs":[],"name":"x0","outputs":[{"internalType":"uint256","name":"","type":"uint256"}],"stateMutability":"view","type":"function"},{"inputs":[],"name":"y0","outputs":[{"internalType":"uint256","name":"","type":"uint256"}],"stateMutability":"view","type":"function"},{"stateMutability":"payable","type":"receive"}],"evm":{"bytecode":{"linkReferences":{},"object":"612fee38819003610360601f8201601f19168101906001600160401b0382119082101761041c57610240928291604052610360391261041757610043610360610432565b61034052610052610380610432565b61005d6103a0610432565b6100686103c0610432565b6100736103e0610446565b61007e610400610446565b610420516104405161046051610095610480610446565b906100a16104a0610446565b6104c0516104e051610500516105205161054051610560516102e05261058051610320529c909b919a92999398949794939291906001600160a01b038116156103fe576000546103005260018060a01b03811660018060a01b03196103005116176000556040519e60018060a01b03821660018060a01b0361030051167f8be0079c531659141344cd1fd0a4f28419497f9722a3daafe3b4186f6b6457e0600080a360018055610384600355660aa87bee5380006004556103405160a05260805260c05260e052610100526101205261014052610160526101805234600555436101a0526101c0526101e05261020052610220526102405261026052610280526102e0516102a052610320516102c052346103d0575b50600254156103c7575b604051612b986104568239608051818181610266015281816105ea0152818161094901528181610d1b0152818161148001528181611560015281816115b401528181611601015281816116770152818161178c01528181611a4401528181611d0f0152818161221d0152818161234701526125e4015260a051818181610a44015281816110850152818161110f015281816119bd015281816121280152818161253c0152818161285901526129d1015260c0518181816107f401528181611b800152612281015260e0518181816110430152818161288e01526128b90152610100518181816106cf0152818161134c015261201501526101205181818161130d0152612a0e01526101405181818161061d015281816111e201528181611dca01528181611e82015261206301526101605181818161064e01528181610b0b01528181611df701528181611eaf0152612091015261018051818181610399015261144101526101a0518181816113880152611fbd01526101c051818181610aac0152611a8201526101e051818181610c52015261237f015261020051816111a701526102205181610fc5015261024051818181611bc50152611f4b0152610260518181816104010152611f72015261028051818181610f8a01526124cd01526102a051818181610c8e0152611f9c01526102c05181818161035e01526114ed0152612b9890f35b426002556101c1565b60207ffe8b095e1a768e83a862933c32f2bd9b62b7b87f8fc8843d83ccce205208b65691348152a1386101b7565b604051631e4fbdf760e01b815260006004820152602490fd5b600080fd5b634e487b7160e01b600052604160045260246000fd5b51906001600160a01b038216820361041757565b519061ffff821682036104175756fe608080604052600436101561001d575b50361561001b57600080fd5b005b60003560e01c90816301e6f52114611baf5750806302d05d3f14611b6a57806303fd2a4514611b4d5780630597862414611b2f57806306501a6a1461199a57806306795ed4146119605780631068361f146113ed57806313888717146113d1578063158ef93e146113ab578063176345141461137057806317773ebb1461133157806322dcd13e146112f257806325f14287146112415780632c678c6414610ad05780632ee7d99b146112235780633533048f14611205578063395bf661146111ca5780633f7bcbf61461118f5780633fc80006146110f85780634ad71289146110725780634bde38c81461102d5780634de959311461100f5780634ec72b6114610fe8578063571fe54414610fad5780635776b4a214610f72578063581e564a14610cb15780635929c48114610c7657806369e93e5f14610c375780636f8e599b14610be9578063715018a614610b90578063804fee5f14610b755780638da5cb5b14610b4c578063a5c7d4cd14610b2e578063af493b9614610af3578063b06faf6214610ad0578063b8bac57514610a91578063bf36b53614610a73578063c45a015514610a2e578063cd7736b814610a08578063d79875eb1461054f578063d8270dce14610531578063d96a094a14610447578063dbf09d6614610424578063dcb1d8e8146103e9578063e138818c146103bc578063e640813014610381578063e799ecc014610346578063f2fde38b146102b8578063f4325d671461029a5763fc0c546a14610250573861000f565b34610295576000366003190112610295576040517f00000000000000000000000000000000000000000000000000000000000000006001600160a01b03168152602090f35b600080fd5b34610295576000366003190112610295576020600654604051908152f35b34610295576020366003190112610295576102d1611be8565b6102d9612696565b6001600160a01b0390811690811561032d57600054826bffffffffffffffffffffffff60a01b821617600055167f8be0079c531659141344cd1fd0a4f28419497f9722a3daafe3b4186f6b6457e0600080a3005b604051631e4fbdf760e01b815260006004820152602490fd5b346102955760003660031901126102955760206040517f00000000000000000000000000000000000000000000000000000000000000008152f35b346102955760003660031901126102955760206040517f00000000000000000000000000000000000000000000000000000000000000008152f35b346102955760003660031901126102955760206103d761283c565b6040516001600160a01b039091168152f35b346102955760003660031901126102955760206040517f00000000000000000000000000000000000000000000000000000000000000008152f35b3461029557600036600319011261029557602061043f611dc2565b604051908152f35b60203660031901126102955761045b611e32565b60075460ff811661051f5760101c60ff16156104e85761048060025460035490611cc9565b42106104a9575b602061049d610494611e55565b60043533611f31565b60018055604051908152f35b6004543410156104875760405162461bcd60e51b815260206004820152600d60248201526c10955657d513d3d7d4d3505313609a1b6044820152606490fd5b60405162461bcd60e51b815260206004820152600f60248201526e776169743a2066697273742062757960881b6044820152606490fd5b60405163bcb8b8fb60e01b8152600490fd5b34610295576000366003190112610295576020600254604051908152f35b346102955761055d36611bfe565b90610566611e32565b6007549060ff821661051f5780156109d757610580611e55565b9160ff8160081c161561092d575b506105976129bc565b926105a061283c565b604051946323b872dd60e01b60208701526024943386880152306044880152606496858882015287815260a0810181811067ffffffffffffffff82111761091857604052610617907f00000000000000000000000000000000000000000000000000000000000000006001600160a01b0316612a6d565b600554907f0000000000000000000000000000000000000000000000000000000000000000976106478984611cc9565b97600654927f00000000000000000000000000000000000000000000000000000000000000009961069561067b8c87611cc9565b61068f8c6106898386611c71565b92611cc9565b90611c84565b908082116108eb57906106a791611ca4565b998a156108c0578a9b6127109b999a9b978861ffff8092166106c9908d611c71565b049889917f0000000000000000000000000000000000000000000000000000000000000000166106f9908d611c71565b049a8b9161070691611ca4565b9061071091611ca4565b9a8b101561071d90611d8b565b6107278d88611ca4565b9061073191611cc9565b9061073c8c87611cc9565b9061074691611cc9565b90801561088457670de0b6b3a76400008082029182040361086f579061076b91611c84565b1161082e575050966107ab916107a3887f846c37eef631e0943682d87352ec117c20008eb7f425c9b85ac011a6d4774cc0999a611cc9565b600655611ca4565b6005558061081e575b5050806107ee575b506107c78133612961565b6107cf611dc2565b604080519485526020850192909252908301523391606090a260018055005b610818907f0000000000000000000000000000000000000000000000000000000000000000612961565b836107bc565b61082791612961565b84806107b4565b601b6040519162461bcd60e51b8352602060048401528201527f53454c4c5f53484f554c445f4e4f545f52414953455f505249434500000000006044820152fd5b83634e487b7160e01b60005260116004526000fd5b50505060156040519162461bcd60e51b835260206004840152820152741413d3d317d15354151657d05195115497d4d15313605a1b6044820152fd5b505060056040519162461bcd60e51b8352602060048401528201526406f75743d360dc1b6044820152fd5b50505060066040519162461bcd60e51b835260206004840152820152650dac2e8d05af60d31b6044820152fd5b87634e487b7160e01b60005260416004526000fd5b6040516370a0823160e01b8152306004820152906020826024817f00000000000000000000000000000000000000000000000000000000000000006001600160a01b03165afa80156109cb57600090610997575b60065561ff00191661010017600755508361058e565b506020823d6020116109c3575b816109b160209383611c4f565b81010312610295576101009151610981565b3d91506109a4565b6040513d6000823e3d90fd5b60405162461bcd60e51b81526020600482015260096024820152686e6f20746f6b656e7360b81b6044820152606490fd5b3461029557600036600319011261029557602060ff60075460101c166040519015158152f35b34610295576000366003190112610295576040517f00000000000000000000000000000000000000000000000000000000000000006001600160a01b03168152602090f35b34610295576000366003190112610295576020600554604051908152f35b3461029557600036600319011261029557602060405161ffff7f0000000000000000000000000000000000000000000000000000000000000000168152f35b3461029557600036600319011261029557602060ff600754166040519015158152f35b346102955760003660031901126102955760206040517f00000000000000000000000000000000000000000000000000000000000000008152f35b34610295576000366003190112610295576020600954604051908152f35b34610295576000366003190112610295576000546040516001600160a01b039091168152602090f35b3461029557600036600319011261029557602061043f611cf1565b3461029557600036600319011261029557610ba9612696565b600080546001600160a01b0319811682556001600160a01b03167f8be0079c531659141344cd1fd0a4f28419497f9722a3daafe3b4186f6b6457e08280a3005b34610295577f8aaf31bf77fd5b19dd8c32e81723adb543005478c2b8b1bdd69be544c52ca90e6040610c1a36611bfe565b610c22612696565b816004558060035582519182526020820152a1005b3461029557600036600319011261029557602060405161ffff7f0000000000000000000000000000000000000000000000000000000000000000168152f35b346102955760003660031901126102955760206040517f00000000000000000000000000000000000000000000000000000000000000008152f35b3461029557608036600319011261029557610cca611be8565b610cd2612696565b610cda611e32565b6007549060ff821661051f576001600160a01b0381811692908315610f4057600654906005549282158015610f38575b610f025760019060ff1916176007557f0000000000000000000000000000000000000000000000000000000000000000166040519063095ea7b360e01b938483528660048401526000602484015260209283816044816000875af180156109cb57610ee5575b506040519485526001600160a01b03861660048601526024850184905282856044816000865af19283156109cb5760609560c494610eb7575b5050604051968794859363f305d71960e01b8552600485015260248401526024356044840152604435606484015261dead608484015260643560a48401525af180156109cb57600091600093600092610e6b575b5060006006819055600555604080516001600160a01b0392909216825260208201859052810183905260608101829052610e679190600080516020612b4383398151915290608090a160018055604051938493846040919493926060820195825260208201520152565b0390f35b610ea4919450600080516020612b438339815191529350610e67925060603d606011610eb0575b610e9c8183611c4f565b810190611cd6565b90949193909250610dfd565b503d610e92565b81610ed692903d10610ede575b610ece8183611c4f565b810190611cb1565b508780610da9565b503d610ec4565b610efb90843d8611610ede57610ece8183611c4f565b5087610d70565b60405162461bcd60e51b815260206004820152600e60248201526d656d70747920726573657276657360901b6044820152606490fd5b508315610d0a565b60405162461bcd60e51b815260206004820152600a6024820152693130b2103937baba32b960b11b6044820152606490fd5b346102955760003660031901126102955760206040517f00000000000000000000000000000000000000000000000000000000000000008152f35b346102955760003660031901126102955760206040517f00000000000000000000000000000000000000000000000000000000000000008152f35b346102955760003660031901126102955760206110036129bc565b61ffff60405191168152f35b34610295576000366003190112610295576020600854604051908152f35b34610295576000366003190112610295576040517f00000000000000000000000000000000000000000000000000000000000000006001600160a01b03168152602090f35b34610295576020366003190112610295577f00000000000000000000000000000000000000000000000000000000000000006001600160a01b031633036110e65760075460ff8160081c166110d55760043560065561ff00191661010017600755005b60405162dc149f60e41b8152600490fd5b604051631966391b60e11b8152600490fd5b346102955760003660031901126102955761113d337f00000000000000000000000000000000000000000000000000000000000000006001600160a01b031614611c14565b60075460ff8160101c1661115b5762ff000019166201000017600755005b60405162461bcd60e51b815260206004820152600c60248201526b30b63932b0b23c9037b832b760a11b6044820152606490fd5b346102955760003660031901126102955760206040517f00000000000000000000000000000000000000000000000000000000000000008152f35b346102955760003660031901126102955760206040517f00000000000000000000000000000000000000000000000000000000000000008152f35b34610295576000366003190112610295576020600354604051908152f35b34610295576000366003190112610295576020600454604051908152f35b34610295576000366003190112610295576040516040810181811067ffffffffffffffff8211176112dc57604052600b81526020906a4f5054494f4e5f415f563160a81b60208201526040518092602082528251908160208401526000935b8285106112c3575050604092506000838284010152601f80199101168101030190f35b84810182015186860160400152938101938593506112a0565b634e487b7160e01b600052604160045260246000fd5b3461029557600036600319011261029557602060405161ffff7f0000000000000000000000000000000000000000000000000000000000000000168152f35b3461029557600036600319011261029557602060405161ffff7f0000000000000000000000000000000000000000000000000000000000000000168152f35b346102955760003660031901126102955760206040517f00000000000000000000000000000000000000000000000000000000000000008152f35b3461029557600036600319011261029557602060ff60075460081c166040519015158152f35b3461029557600036600319011261029557602060405160008152f35b3461029557604036600319011261029557611406611be8565b6001600160a01b03602435818116929083900361029557611425611e32565b61142d612696565b60ff6007541661051f5761143f611cf1565b7f00000000000000000000000000000000000000000000000000000000000000001161194e576040516370a0823160e01b81523060048201526020816024817f000000000000000000000000000000000000000000000000000000000000000087165afa9081156109cb5760009161191c575b50479066470de4df82000082106118e957600b549182156118d9575b82156118aa576114de83836126c2565b9283821061189557505090925b7f000000000000000000000000000000000000000000000000000000000000000084106118655761152461151e856127d4565b85611ca4565b611536611530846127d4565b84611ca4565b9560405163095ea7b360e01b908181528487166004820152600060248201526020816044816000897f0000000000000000000000000000000000000000000000000000000000000000165af180156109cb57611846575b506040519081526001600160a01b03861660048201526024810185905260208160448160007f000000000000000000000000000000000000000000000000000000000000000089165af180156109cb57611827575b50610708420191824211611811576040519763f305d71960e01b8952847f00000000000000000000000000000000000000000000000000000000000000001660048a01528560248a015260448901526064880152608487015260a486015260608560c481878588165af19485156109cb576000956117ed575b506040516370a0823160e01b81523060048201526020816024817f000000000000000000000000000000000000000000000000000000000000000086165afa9081156109cb576000916117bb575b50479181611732575b5050936117129185600080516020612b438339815191529661171b575b5060006006556000600555600160ff1960075416176007556040519485948590949392606092608083019660018060a01b03168352602083015260408201520152565b0390a160018055005b61172c9061172761283c565b612961565b866116cf565b929095916040519663a9059cbb60e01b602089015261dead60248901526044880152604487526080870187811067ffffffffffffffff8211176112dc57600080516020612b4383398151915297611712956117b1926040527f000000000000000000000000000000000000000000000000000000000000000016612a6d565b91958193506116b2565b90506020813d6020116117e5575b816117d660209383611c4f565b810103126102955751866116a9565b3d91506117c9565b61180791955060603d606011610eb057610e9c8183611c4f565b915050938561165b565b634e487b7160e01b600052601160045260246000fd5b61183f9060203d602011610ede57610ece8183611c4f565b50876115e2565b61185e9060203d602011610ede57610ece8183611c4f565b508861158d565b60405162461bcd60e51b8152602060048201526008602482015267262810333637b7b960c11b6044820152606490fd5b909492506118a4915084612749565b906114eb565b60405162461bcd60e51b8152602060048201526007602482015266070726963653d360cc1b6044820152606490fd5b91506118e3611dc2565b916114ce565b60405162461bcd60e51b815260206004820152600b60248201526a626e622d746f6f2d6c6f7760a81b6044820152606490fd5b90506020813d602011611946575b8161193760209383611c4f565b810103126102955751846114b2565b3d915061192a565b60405163b4202dd560e01b8152600490fd5b34610295576020366003190112610295576001600160a01b03611981611be8565b16600052600a6020526020604060002054604051908152f35b6040366003190112610295576119ae611be8565b6001600160a01b03906119e4337f0000000000000000000000000000000000000000000000000000000000000000841614611c14565b6119ec611e32565b60ff6007541661051f57611a0c90611a02611e55565b9060243590611f31565b6007549160ff8360101c1615611a2c575b60208260018055604051908152f35b6020600491604051928380926318160ddd60e01b82527f0000000000000000000000000000000000000000000000000000000000000000165afa9081156109cb57600091611afb575b50611aa86127109161ffff7f00000000000000000000000000000000000000000000000000000000000000001690611c71565b048111611ac6576201000060209262ff000019161760075582611a1d565b60405162461bcd60e51b815260206004820152600d60248201526c066697273742d6275792063617609c1b6044820152606490fd5b90506020813d602011611b27575b81611b1660209383611c4f565b810103126102955751611aa8611a75565b3d9150611b09565b34610295576000366003190112610295576020600b54604051908152f35b3461029557600036600319011261029557602060405161dead8152f35b34610295576000366003190112610295576040517f00000000000000000000000000000000000000000000000000000000000000006001600160a01b03168152602090f35b34610295576000366003190112610295576020907f00000000000000000000000000000000000000000000000000000000000000008152f35b600435906001600160a01b038216820361029557565b6040906003190112610295576004359060243590565b15611c1b57565b60405162461bcd60e51b815260206004820152600c60248201526b666163746f7279206f6e6c7960a01b6044820152606490fd5b90601f8019910116810190811067ffffffffffffffff8211176112dc57604052565b8181029291811591840414171561181157565b8115611c8e570490565b634e487b7160e01b600052601260045260246000fd5b9190820391821161181157565b90816020910312610295575180151581036102955790565b9190820180921161181157565b90816060910312610295578051916040602083015192015190565b611cf9611dc2565b6040516318160ddd60e01b8152906020826004817f00000000000000000000000000000000000000000000000000000000000000006001600160a01b03165afa9081156109cb57600091611d55575b611d5292506126c2565b90565b90506020823d602011611d83575b81611d7060209383611c4f565b8101031261029557611d52915190611d48565b3d9150611d63565b15611d9257565b60405162461bcd60e51b8152602060048201526008602482015267736c69707061676560c01b6044820152606490fd5b611def6005547f000000000000000000000000000000000000000000000000000000000000000090611cc9565b611e1c6006547f000000000000000000000000000000000000000000000000000000000000000090611cc9565b8015611e2b57611d5291612749565b5050600090565b600260015414611e43576002600155565b604051633ee5aeb560e01b8152600490fd5b604051636df84eb360e11b8152602081600481305afa60009181611efd575b50611d525750611ea76005547f000000000000000000000000000000000000000000000000000000000000000090611cc9565b611ed46006547f000000000000000000000000000000000000000000000000000000000000000090611cc9565b8015611e2b57670de0b6b3a76400009182810292818404149015171561181157611d5291611c84565b9091506020813d602011611f29575b81611f1960209383611c4f565b8101031261029557519038611e74565b3d9150611f0c565b9034156126665760075460ff8160081c16156125c8575b507f00000000000000000000000000000000000000000000000000000000000000003410612599577f0000000000000000000000000000000000000000000000000000000000000000341161256b57611fe17f00000000000000000000000000000000000000000000000000000000000000007f0000000000000000000000000000000000000000000000000000000000000000611cc9565b43111580612538575b6124b3575b611ff76129bc565b9061200061283c565b906127109461ffff9286612044858261203b827f00000000000000000000000000000000000000000000000000000000000000001634611c71565b04971634611c71565b0490612059826120548834611ca4565b611ca4565b91600554936006547f000000000000000000000000000000000000000000000000000000000000000061208c8188611cc9565b6120c17f0000000000000000000000000000000000000000000000000000000000000000916120bb8386611cc9565b90611c71565b6120d4836120cf8a8c611cc9565b611cc9565b8015612484576120e391611c84565b81811061245557816120f491611ca4565b98838a116124275761211d9d61210a8b86611ca4565b9e8f92831515908161241c575b50611d8b565b6001600160a01b039b7f00000000000000000000000000000000000000000000000000000000000000008d16330361232c575b50506120cf9061216761216d946120cf8b8d611cc9565b94611ca4565b80156122f057670de0b6b3a7640000918281029281840414901517156118115761219691611c84565b11156122ab577fbeae048c6d270d9469f86cf6e8fedda3c60ad770f16c24c9fc131c8e9a09101d96612247956121cd858c97611cc9565b6005556006558061227b575b508061226b575b505060405163a9059cbb60e01b60208201526001600160a01b0387166024820152604480820184905281526122429061221a606482611c4f565b857f000000000000000000000000000000000000000000000000000000000000000016612a6d565b612749565b600b819055604080513481526020810187905290810191909152921691606090a290565b61227491612961565b38806121e0565b6122a5907f0000000000000000000000000000000000000000000000000000000000000000612961565b386121d9565b60405162461bcd60e51b815260206004820152601760248201527f4255595f4d5553545f494e4352454153455f50524943450000000000000000006044820152606490fd5b60405162461bcd60e51b8152602060048201526014602482015273504f4f4c5f454d5054595f41465445525f42555960601b6044820152606490fd5b600491925060208d604051938480926318160ddd60e01b82527f0000000000000000000000000000000000000000000000000000000000000000165afa9081156109cb576000916123e6575b6123a592507f00000000000000000000000000000000000000000000000000000000000000001690611c71565b048d116123b4578c3880612150565b60405162461bcd60e51b815260206004820152600a60248201526907075626c6963206361760b41b6044820152606490fd5b90506020823d602011612414575b8161240160209383611c4f565b81010312610295576123a5915190612378565b3d91506123f4565b905083101538612117565b60405162461bcd60e51b81526020600482015260066024820152656d6174682d7960d01b6044820152606490fd5b60405162461bcd60e51b815260206004820152600760248201526606d6174682d79360cc1b6044820152606490fd5b60405162461bcd60e51b8152602060048201526007602482015266064656e6f6d3d360cc1b6044820152606490fd5b33600052600a6020526124cb34604060002054611cc9565b7f000000000000000000000000000000000000000000000000000000000000000081116125065733600052600a602052604060002055611fef565b60405162461bcd60e51b815260206004820152600a6024820152691b585e0bddd85b1b195d60b21b6044820152606490fd5b50337f00000000000000000000000000000000000000000000000000000000000000006001600160a01b03161415611fea565b60405162461bcd60e51b81526020600482015260066024820152650dac2f05ee8f60d31b6044820152606490fd5b60405162461bcd60e51b81526020600482015260076024820152666d696e2062757960c81b6044820152606490fd5b6040516370a0823160e01b8152306004820152906020826024817f00000000000000000000000000000000000000000000000000000000000000006001600160a01b03165afa80156109cb57600090612632575b60065561ff001916610100176007555038611f48565b506020823d60201161265e575b8161264c60209383611c4f565b8101031261029557610100915161261c565b3d915061263f565b60405162461bcd60e51b81526020600482015260086024820152673d32b9379031373160c11b6044820152606490fd5b6000546001600160a01b031633036126aa57565b60405163118cdaa760e01b8152336004820152602490fd5b90808202906000198184099082808310920391808303921461273857670de0b6b3a76400009082821115612726577faccb18165bd6fe31ae1cf318dc5b51eee0e1ba569b88cd74c1773b91fac10669940990828211900360ee1b910360121c170290565b60405163227bc15360e01b8152600490fd5b5050670de0b6b3a764000091500490565b670de0b6b3a76400009181830291600019848209938380861095039480860395146127c757848311156127265782910981600003821680920460028082600302188083028203028083028203028083028203028083028203028083028203028092029003029360018380600003040190848311900302920304170290565b505090611d529250611c84565b601e8102600019601e8309818082109103908082039114612832576127108181111561272657601e7fbc01a36e2eb1c432ca57a786c226809d495182a9930be0ded288ce703afb7e91940990828211900360fc1b910360041c170290565b5061271091500490565b6040516361d027b360e01b81526001600160a01b036020826004817f000000000000000000000000000000000000000000000000000000000000000085165afa600092816128db575b506128b05750507f000000000000000000000000000000000000000000000000000000000000000090565b8116611d5257507f000000000000000000000000000000000000000000000000000000000000000090565b6020939193813d602011612919575b816128f760209383611c4f565b81010312612915575190828216820361291257509138612885565b80fd5b5080fd5b3d91506128ea565b3d1561295c573d9067ffffffffffffffff82116112dc5760405191612950601f8201601f191660200184611c4f565b82523d6000602084013e565b606090565b6000918291829182916001600160a01b03165af161297d612921565b501561298557565b60405162461bcd60e51b815260206004820152600f60248201526e109390881cd95b990819985a5b1959608a1b6044820152606490fd5b6040516369b28fab60e01b81526020816004817f00000000000000000000000000000000000000000000000000000000000000006001600160a01b03165afa8091600091612a30575b5090611d5257507f000000000000000000000000000000000000000000000000000000000000000090565b6020813d602011612a65575b81612a4960209383611c4f565b8101031261291557519061ffff82168203612912575038612a05565b3d9150612a3c565b600080612a969260018060a01b03169360208151910182865af1612a8f612921565b9083612adf565b8051908115159182612ac4575b5050612aac5750565b60249060405190635274afe760e01b82526004820152fd5b612ad79250602080918301019101611cb1565b153880612aa3565b90612b065750805115612af457805190602001fd5b604051630a12f52160e11b8152600490fd5b81511580612b39575b612b17575090565b604051639996b31560e01b81526001600160a01b039091166004820152602490fd5b50803b15612b0f56fe6b60d326d3c4023c7cb9b6755fc31af3cfbccdeb07a7a8b4d79e201f732324eea264697066735822122041ad1d4a884953cf246292266a1dba7191855b60719fbdff08fab5b00a166b6b64736f6c63430008190033","opcodes":"PUSH2 0x2FEE CODESIZE DUP2 SWAP1 SUB PUSH2 0x360 PUSH1 0x1F DUP3 ADD PUSH1 0x1F NOT AND DUP2 ADD SWAP1 PUSH1 0x1 PUSH1 0x1 PUSH1 0x40 SHL SUB DUP3 GT SWAP1 DUP3 LT OR PUSH2 0x41C JUMPI PUSH2 0x240 SWAP3 DUP3 SWAP2 PUSH1 0x40 MSTORE PUSH2 0x360 CODECOPY SLT PUSH2 0x417 JUMPI PUSH2 0x43 PUSH2 0x360 PUSH2 0x432 JUMP JUMPDEST PUSH2 0x340 MSTORE PUSH2 0x52 PUSH2 0x380 PUSH2 0x432 JUMP JUMPDEST PUSH2 0x5D PUSH2 0x3A0 PUSH2 0x432 JUMP JUMPDEST PUSH2 0x68 PUSH2 0x3C0 PUSH2 0x432 JUMP JUMPDEST PUSH2 0x73 PUSH2 0x3E0 PUSH2 0x446 JUMP JUMPDEST PUSH2 0x7E PUSH2 0x400 PUSH2 0x446 JUMP JUMPDEST PUSH2 0x420 MLOAD PUSH2 0x440 MLOAD PUSH2 0x460 MLOAD PUSH2 0x95 PUSH2 0x480 PUSH2 0x446 JUMP JUMPDEST SWAP1 PUSH2 0xA1 PUSH2 0x4A0 PUSH2 0x446 JUMP JUMPDEST PUSH2 0x4C0 MLOAD PUSH2 0x4E0 MLOAD PUSH2 0x500 MLOAD PUSH2 0x520 MLOAD PUSH2 0x540 MLOAD PUSH2 0x560 MLOAD PUSH2 0x2E0 MSTORE PUSH2 0x580 MLOAD PUSH2 0x320 MSTORE SWAP13 SWAP1 SWAP12 SWAP2 SWAP11 SWAP3 SWAP10 SWAP4 SWAP9 SWAP5 SWAP8 SWAP5 SWAP4 SWAP3 SWAP2 SWAP1 PUSH1 0x1 PUSH1 0x1 PUSH1 0xA0 SHL SUB DUP2 AND ISZERO PUSH2 0x3FE JUMPI PUSH1 0x0 SLOAD PUSH2 0x300 MSTORE PUSH1 0x1 DUP1 PUSH1 0xA0 SHL SUB DUP2 AND PUSH1 0x1 DUP1 PUSH1 0xA0 SHL SUB NOT PUSH2 0x300 MLOAD AND OR PUSH1 0x0 SSTORE PUSH1 0x40 MLOAD SWAP15 PUSH1 0x1 DUP1 PUSH1 0xA0 SHL SUB DUP3 AND PUSH1 0x1 DUP1 PUSH1 0xA0 SHL SUB PUSH2 0x300 MLOAD AND PUSH32 0x8BE0079C531659141344CD1FD0A4F28419497F9722A3DAAFE3B4186F6B6457E0 PUSH1 0x0 DUP1 LOG3 PUSH1 0x1 DUP1 SSTORE PUSH2 0x384 PUSH1 0x3 SSTORE PUSH7 0xAA87BEE538000 PUSH1 0x4 SSTORE PUSH2 0x340 MLOAD PUSH1 0xA0 MSTORE PUSH1 0x80 MSTORE PUSH1 0xC0 MSTORE PUSH1 0xE0 MSTORE PUSH2 0x100 MSTORE PUSH2 0x120 MSTORE PUSH2 0x140 MSTORE PUSH2 0x160 MSTORE PUSH2 0x180 MSTORE CALLVALUE PUSH1 0x5 SSTORE NUMBER PUSH2 0x1A0 MSTORE PUSH2 0x1C0 MSTORE PUSH2 0x1E0 MSTORE PUSH2 0x200 MSTORE PUSH2 0x220 MSTORE PUSH2 0x240 MSTORE PUSH2 0x260 MSTORE PUSH2 0x280 MSTORE PUSH2 0x2E0 MLOAD PUSH2 0x2A0 MSTORE PUSH2 0x320 MLOAD PUSH2 0x2C0 MSTORE CALLVALUE PUSH2 0x3D0 JUMPI JUMPDEST POP PUSH1 0x2 SLOAD ISZERO PUSH2 0x3C7 JUMPI JUMPDEST PUSH1 0x40 MLOAD PUSH2 0x2B98 PUSH2 0x456 DUP3 CODECOPY PUSH1 0x80 MLOAD DUP2 DUP2 DUP2 PUSH2 0x266 ADD MSTORE DUP2 DUP2 PUSH2 0x5EA ADD MSTORE DUP2 DUP2 PUSH2 0x949 ADD MSTORE DUP2 DUP2 PUSH2 0xD1B ADD MSTORE DUP2 DUP2 PUSH2 0x1480 ADD MSTORE DUP2 DUP2 PUSH2 0x1560 ADD MSTORE DUP2 DUP2 PUSH2 0x15B4 ADD MSTORE DUP2 DUP2 PUSH2 0x1601 ADD MSTORE DUP2 DUP2 PUSH2 0x1677 ADD MSTORE DUP2 DUP2 PUSH2 0x178C ADD MSTORE DUP2 DUP2 PUSH2 0x1A44 ADD MSTORE DUP2 DUP2 PUSH2 0x1D0F ADD MSTORE DUP2 DUP2 PUSH2 0x221D ADD MSTORE DUP2 DUP2 PUSH2 0x2347 ADD MSTORE PUSH2 0x25E4 ADD MSTORE PUSH1 0xA0 MLOAD DUP2 DUP2 DUP2 PUSH2 0xA44 ADD MSTORE DUP2 DUP2 PUSH2 0x1085 ADD MSTORE DUP2 DUP2 PUSH2 0x110F ADD MSTORE DUP2 DUP2 PUSH2 0x19BD ADD MSTORE DUP2 DUP2 PUSH2 0x2128 ADD MSTORE DUP2 DUP2 PUSH2 0x253C ADD MSTORE DUP2 DUP2 PUSH2 0x2859 ADD MSTORE PUSH2 0x29D1 ADD MSTORE PUSH1 0xC0 MLOAD DUP2 DUP2 DUP2 PUSH2 0x7F4 ADD MSTORE DUP2 DUP2 PUSH2 0x1B80 ADD MSTORE PUSH2 0x2281 ADD MSTORE PUSH1 0xE0 MLOAD DUP2 DUP2 DUP2 PUSH2 0x1043 ADD MSTORE DUP2 DUP2 PUSH2 0x288E ADD MSTORE PUSH2 0x28B9 ADD MSTORE PUSH2 0x100 MLOAD DUP2 DUP2 DUP2 PUSH2 0x6CF ADD MSTORE DUP2 DUP2 PUSH2 0x134C ADD MSTORE PUSH2 0x2015 ADD MSTORE PUSH2 0x120 MLOAD DUP2 DUP2 DUP2 PUSH2 0x130D ADD MSTORE PUSH2 0x2A0E ADD MSTORE PUSH2 0x140 MLOAD DUP2 DUP2 DUP2 PUSH2 0x61D ADD MSTORE DUP2 DUP2 PUSH2 0x11E2 ADD MSTORE DUP2 DUP2 PUSH2 0x1DCA ADD MSTORE DUP2 DUP2 PUSH2 0x1E82 ADD MSTORE PUSH2 0x2063 ADD MSTORE PUSH2 0x160 MLOAD DUP2 DUP2 DUP2 PUSH2 0x64E ADD MSTORE DUP2 DUP2 PUSH2 0xB0B ADD MSTORE DUP2 DUP2 PUSH2 0x1DF7 ADD MSTORE DUP2 DUP2 PUSH2 0x1EAF ADD MSTORE PUSH2 0x2091 ADD MSTORE PUSH2 0x180 MLOAD DUP2 DUP2 DUP2 PUSH2 0x399 ADD MSTORE PUSH2 0x1441 ADD MSTORE PUSH2 0x1A0 MLOAD DUP2 DUP2 DUP2 PUSH2 0x1388 ADD MSTORE PUSH2 0x1FBD ADD MSTORE PUSH2 0x1C0 MLOAD DUP2 DUP2 DUP2 PUSH2 0xAAC ADD MSTORE PUSH2 0x1A82 ADD MSTORE PUSH2 0x1E0 MLOAD DUP2 DUP2 DUP2 PUSH2 0xC52 ADD MSTORE PUSH2 0x237F ADD MSTORE PUSH2 0x200 MLOAD DUP2 PUSH2 0x11A7 ADD MSTORE PUSH2 0x220 MLOAD DUP2 PUSH2 0xFC5 ADD MSTORE PUSH2 0x240 MLOAD DUP2 DUP2 DUP2 PUSH2 0x1BC5 ADD MSTORE PUSH2 0x1F4B ADD MSTORE PUSH2 0x260 MLOAD DUP2 DUP2 DUP2 PUSH2 0x401 ADD MSTORE PUSH2 0x1F72 ADD MSTORE PUSH2 0x280 MLOAD DUP2 DUP2 DUP2 PUSH2 0xF8A ADD MSTORE PUSH2 0x24CD ADD MSTORE PUSH2 0x2A0 MLOAD DUP2 DUP2 DUP2 PUSH2 0xC8E ADD MSTORE PUSH2 0x1F9C ADD MSTORE PUSH2 0x2C0 MLOAD DUP2 DUP2 DUP2 PUSH2 0x35E ADD MSTORE PUSH2 0x14ED ADD MSTORE PUSH2 0x2B98 SWAP1 RETURN JUMPDEST TIMESTAMP PUSH1 0x2 SSTORE PUSH2 0x1C1 JUMP JUMPDEST PUSH1 0x20 PUSH32 0xFE8B095E1A768E83A862933C32F2BD9B62B7B87F8FC8843D83CCCE205208B656 SWAP2 CALLVALUE DUP2 MSTORE LOG1 CODESIZE PUSH2 0x1B7 JUMP JUMPDEST PUSH1 0x40 MLOAD PUSH4 0x1E4FBDF7 PUSH1 0xE0 SHL DUP2 MSTORE PUSH1 0x0 PUSH1 0x4 DUP3 ADD MSTORE PUSH1 0x24 SWAP1 REVERT JUMPDEST PUSH1 0x0 DUP1 REVERT JUMPDEST PUSH4 0x4E487B71 PUSH1 0xE0 SHL PUSH1 0x0 MSTORE PUSH1 0x41 PUSH1 0x4 MSTORE PUSH1 0x24 PUSH1 0x0 REVERT JUMPDEST MLOAD SWAP1 PUSH1 0x1 PUSH1 0x1 PUSH1 0xA0 SHL SUB DUP3 AND DUP3 SUB PUSH2 0x417 JUMPI JUMP JUMPDEST MLOAD SWAP1 PUSH2 0xFFFF DUP3 AND DUP3 SUB PUSH2 0x417 JUMPI JUMP INVALID PUSH1 0x80 DUP1 PUSH1 0x40 MSTORE PUSH1 0x4 CALLDATASIZE LT ISZERO PUSH2 0x1D JUMPI JUMPDEST POP CALLDATASIZE ISZERO PUSH2 0x1B JUMPI PUSH1 0x0 DUP1 REVERT JUMPDEST STOP JUMPDEST PUSH1 0x0 CALLDATALOAD PUSH1 0xE0 SHR SWAP1 DUP2 PUSH4 0x1E6F521 EQ PUSH2 0x1BAF JUMPI POP DUP1 PUSH4 0x2D05D3F EQ PUSH2 0x1B6A JUMPI DUP1 PUSH4 0x3FD2A45 EQ PUSH2 0x1B4D JUMPI DUP1 PUSH4 0x5978624 EQ PUSH2 0x1B2F JUMPI DUP1 PUSH4 0x6501A6A EQ PUSH2 0x199A JUMPI DUP1 PUSH4 0x6795ED4 EQ PUSH2 0x1960 JUMPI DUP1 PUSH4 0x1068361F EQ PUSH2 0x13ED JUMPI DUP1 PUSH4 0x13888717 EQ PUSH2 0x13D1 JUMPI DUP1 PUSH4 0x158EF93E EQ PUSH2 0x13AB JUMPI DUP1 PUSH4 0x17634514 EQ PUSH2 0x1370 JUMPI DUP1 PUSH4 0x17773EBB EQ PUSH2 0x1331 JUMPI DUP1 PUSH4 0x22DCD13E EQ PUSH2 0x12F2 JUMPI DUP1 PUSH4 0x25F14287 EQ PUSH2 0x1241 JUMPI DUP1 PUSH4 0x2C678C64 EQ PUSH2 0xAD0 JUMPI DUP1 PUSH4 0x2EE7D99B EQ PUSH2 0x1223 JUMPI DUP1 PUSH4 0x3533048F EQ PUSH2 0x1205 JUMPI DUP1 PUSH4 0x395BF661 EQ PUSH2 0x11CA JUMPI DUP1 PUSH4 0x3F7BCBF6 EQ PUSH2 0x118F JUMPI DUP1 PUSH4 0x3FC80006 EQ PUSH2 0x10F8 JUMPI DUP1 PUSH4 0x4AD71289 EQ PUSH2 0x1072 JUMPI DUP1 PUSH4 0x4BDE38C8 EQ PUSH2 0x102D JUMPI DUP1 PUSH4 0x4DE95931 EQ PUSH2 0x100F JUMPI DUP1 PUSH4 0x4EC72B61 EQ PUSH2 0xFE8 JUMPI DUP1 PUSH4 0x571FE544 EQ PUSH2 0xFAD JUMPI DUP1 PUSH4 0x5776B4A2 EQ PUSH2 0xF72 JUMPI DUP1 PUSH4 0x581E564A EQ PUSH2 0xCB1 JUMPI DUP1 PUSH4 0x5929C481 EQ PUSH2 0xC76 JUMPI DUP1 PUSH4 0x69E93E5F EQ PUSH2 0xC37 JUMPI DUP1 PUSH4 0x6F8E599B EQ PUSH2 0xBE9 JUMPI DUP1 PUSH4 0x715018A6 EQ PUSH2 0xB90 JUMPI DUP1 PUSH4 0x804FEE5F EQ PUSH2 0xB75 JUMPI DUP1 PUSH4 0x8DA5CB5B EQ PUSH2 0xB4C JUMPI DUP1 PUSH4 0xA5C7D4CD EQ PUSH2 0xB2E JUMPI DUP1 PUSH4 0xAF493B96 EQ PUSH2 0xAF3 JUMPI DUP1 PUSH4 0xB06FAF62 EQ PUSH2 0xAD0 JUMPI DUP1 PUSH4 0xB8BAC575 EQ PUSH2 0xA91 JUMPI DUP1 PUSH4 0xBF36B536 EQ PUSH2 0xA73 JUMPI DUP1 PUSH4 0xC45A0155 EQ PUSH2 0xA2E JUMPI DUP1 PUSH4 0xCD7736B8 EQ PUSH2 0xA08 JUMPI DUP1 PUSH4 0xD79875EB EQ PUSH2 0x54F JUMPI DUP1 PUSH4 0xD8270DCE EQ PUSH2 0x531 JUMPI DUP1 PUSH4 0xD96A094A EQ PUSH2 0x447 JUMPI DUP1 PUSH4 0xDBF09D66 EQ PUSH2 0x424 JUMPI DUP1 PUSH4 0xDCB1D8E8 EQ PUSH2 0x3E9 JUMPI DUP1 PUSH4 0xE138818C EQ PUSH2 0x3BC JUMPI DUP1 PUSH4 0xE6408130 EQ PUSH2 0x381 JUMPI DUP1 PUSH4 0xE799ECC0 EQ PUSH2 0x346 JUMPI DUP1 PUSH4 0xF2FDE38B EQ PUSH2 0x2B8 JUMPI DUP1 PUSH4 0xF4325D67 EQ PUSH2 0x29A JUMPI PUSH4 0xFC0C546A EQ PUSH2 0x250 JUMPI CODESIZE PUSH2 0xF JUMP JUMPDEST CALLVALUE PUSH2 0x295 JUMPI PUSH1 0x0 CALLDATASIZE PUSH1 0x3 NOT ADD SLT PUSH2 0x295 JUMPI PUSH1 0x40 MLOAD PUSH32 0x0 PUSH1 0x1 PUSH1 0x1 PUSH1 0xA0 SHL SUB AND DUP2 MSTORE PUSH1 0x20 SWAP1 RETURN JUMPDEST PUSH1 0x0 DUP1 REVERT JUMPDEST CALLVALUE PUSH2 0x295 JUMPI PUSH1 0x0 CALLDATASIZE PUSH1 0x3 NOT ADD SLT PUSH2 0x295 JUMPI PUSH1 0x20 PUSH1 0x6 SLOAD PUSH1 0x40 MLOAD SWAP1 DUP2 MSTORE RETURN JUMPDEST CALLVALUE PUSH2 0x295 JUMPI PUSH1 0x20 CALLDATASIZE PUSH1 0x3 NOT ADD SLT PUSH2 0x295 JUMPI PUSH2 0x2D1 PUSH2 0x1BE8 JUMP JUMPDEST PUSH2 0x2D9 PUSH2 0x2696 JUMP JUMPDEST PUSH1 0x1 PUSH1 0x1 PUSH1 0xA0 SHL SUB SWAP1 DUP2 AND SWAP1 DUP2 ISZERO PUSH2 0x32D JUMPI PUSH1 0x0 SLOAD DUP3 PUSH12 0xFFFFFFFFFFFFFFFFFFFFFFFF PUSH1 0xA0 SHL DUP3 AND OR PUSH1 0x0 SSTORE AND PUSH32 0x8BE0079C531659141344CD1FD0A4F28419497F9722A3DAAFE3B4186F6B6457E0 PUSH1 0x0 DUP1 LOG3 STOP JUMPDEST PUSH1 0x40 MLOAD PUSH4 0x1E4FBDF7 PUSH1 0xE0 SHL DUP2 MSTORE PUSH1 0x0 PUSH1 0x4 DUP3 ADD MSTORE PUSH1 0x24 SWAP1 REVERT JUMPDEST CALLVALUE PUSH2 0x295 JUMPI PUSH1 0x0 CALLDATASIZE PUSH1 0x3 NOT ADD SLT PUSH2 0x295 JUMPI PUSH1 0x20 PUSH1 0x40 MLOAD PUSH32 0x0 DUP2 MSTORE RETURN JUMPDEST CALLVALUE PUSH2 0x295 JUMPI PUSH1 0x0 CALLDATASIZE PUSH1 0x3 NOT ADD SLT PUSH2 0x295 JUMPI PUSH1 0x20 PUSH1 0x40 MLOAD PUSH32 0x0 DUP2 MSTORE RETURN JUMPDEST CALLVALUE PUSH2 0x295 JUMPI PUSH1 0x0 CALLDATASIZE PUSH1 0x3 NOT ADD SLT PUSH2 0x295 JUMPI PUSH1 0x20 PUSH2 0x3D7 PUSH2 0x283C JUMP JUMPDEST PUSH1 0x40 MLOAD PUSH1 0x1 PUSH1 0x1 PUSH1 0xA0 SHL SUB SWAP1 SWAP2 AND DUP2 MSTORE RETURN JUMPDEST CALLVALUE PUSH2 0x295 JUMPI PUSH1 0x0 CALLDATASIZE PUSH1 0x3 NOT ADD SLT PUSH2 0x295 JUMPI PUSH1 0x20 PUSH1 0x40 MLOAD PUSH32 0x0 DUP2 MSTORE RETURN JUMPDEST CALLVALUE PUSH2 0x295 JUMPI PUSH1 0x0 CALLDATASIZE PUSH1 0x3 NOT ADD SLT PUSH2 0x295 JUMPI PUSH1 0x20 PUSH2 0x43F PUSH2 0x1DC2 JUMP JUMPDEST PUSH1 0x40 MLOAD SWAP1 DUP2 MSTORE RETURN JUMPDEST PUSH1 0x20 CALLDATASIZE PUSH1 0x3 NOT ADD SLT PUSH2 0x295 JUMPI PUSH2 0x45B PUSH2 0x1E32 JUMP JUMPDEST PUSH1 0x7 SLOAD PUSH1 0xFF DUP2 AND PUSH2 0x51F JUMPI PUSH1 0x10 SHR PUSH1 0xFF AND ISZERO PUSH2 0x4E8 JUMPI PUSH2 0x480 PUSH1 0x2 SLOAD PUSH1 0x3 SLOAD SWAP1 PUSH2 0x1CC9 JUMP JUMPDEST TIMESTAMP LT PUSH2 0x4A9 JUMPI JUMPDEST PUSH1 0x20 PUSH2 0x49D PUSH2 0x494 PUSH2 0x1E55 JUMP JUMPDEST PUSH1 0x4 CALLDATALOAD CALLER PUSH2 0x1F31 JUMP JUMPDEST PUSH1 0x1 DUP1 SSTORE PUSH1 0x40 MLOAD SWAP1 DUP2 MSTORE RETURN JUMPDEST PUSH1 0x4 SLOAD CALLVALUE LT ISZERO PUSH2 0x487 JUMPI PUSH1 0x40 MLOAD PUSH3 0x461BCD PUSH1 0xE5 SHL DUP2 MSTORE PUSH1 0x20 PUSH1 0x4 DUP3 ADD MSTORE PUSH1 0xD PUSH1 0x24 DUP3 ADD MSTORE PUSH13 0x10955657D513D3D7D4D3505313 PUSH1 0x9A SHL PUSH1 0x44 DUP3 ADD MSTORE PUSH1 0x64 SWAP1 REVERT JUMPDEST PUSH1 0x40 MLOAD PUSH3 0x461BCD PUSH1 0xE5 SHL DUP2 MSTORE PUSH1 0x20 PUSH1 0x4 DUP3 ADD MSTORE PUSH1 0xF PUSH1 0x24 DUP3 ADD MSTORE PUSH15 0x776169743A20666972737420627579 PUSH1 0x88 SHL PUSH1 0x44 DUP3 ADD MSTORE PUSH1 0x64 SWAP1 REVERT JUMPDEST PUSH1 0x40 MLOAD PUSH4 0xBCB8B8FB PUSH1 0xE0 SHL DUP2 MSTORE PUSH1 0x4 SWAP1 REVERT JUMPDEST CALLVALUE PUSH2 0x295 JUMPI PUSH1 0x0 CALLDATASIZE PUSH1 0x3 NOT ADD SLT PUSH2 0x295 JUMPI PUSH1 0x20 PUSH1 0x2 SLOAD PUSH1 0x40 MLOAD SWAP1 DUP2 MSTORE RETURN JUMPDEST CALLVALUE PUSH2 0x295 JUMPI PUSH2 0x55D CALLDATASIZE PUSH2 0x1BFE JUMP JUMPDEST SWAP1 PUSH2 0x566 PUSH2 0x1E32 JUMP JUMPDEST PUSH1 0x7 SLOAD SWAP1 PUSH1 0xFF DUP3 AND PUSH2 0x51F JUMPI DUP1 ISZERO PUSH2 0x9D7 JUMPI PUSH2 0x580 PUSH2 0x1E55 JUMP JUMPDEST SWAP2 PUSH1 0xFF DUP2 PUSH1 0x8 SHR AND ISZERO PUSH2 0x92D JUMPI JUMPDEST POP PUSH2 0x597 PUSH2 0x29BC JUMP JUMPDEST SWAP3 PUSH2 0x5A0 PUSH2 0x283C JUMP JUMPDEST PUSH1 0x40 MLOAD SWAP5 PUSH4 0x23B872DD PUSH1 0xE0 SHL PUSH1 0x20 DUP8 ADD MSTORE PUSH1 0x24 SWAP5 CALLER DUP7 DUP9 ADD MSTORE ADDRESS PUSH1 0x44 DUP9 ADD MSTORE PUSH1 0x64 SWAP7 DUP6 DUP9 DUP3 ADD MSTORE DUP8 DUP2 MSTORE PUSH1 0xA0 DUP2 ADD DUP2 DUP2 LT PUSH8 0xFFFFFFFFFFFFFFFF DUP3 GT OR PUSH2 0x918 JUMPI PUSH1 0x40 MSTORE PUSH2 0x617 SWAP1 PUSH32 0x0 PUSH1 0x1 PUSH1 0x1 PUSH1 0xA0 SHL SUB AND PUSH2 0x2A6D JUMP JUMPDEST PUSH1 0x5 SLOAD SWAP1 PUSH32 0x0 SWAP8 PUSH2 0x647 DUP10 DUP5 PUSH2 0x1CC9 JUMP JUMPDEST SWAP8 PUSH1 0x6 SLOAD SWAP3 PUSH32 0x0 SWAP10 PUSH2 0x695 PUSH2 0x67B DUP13 DUP8 PUSH2 0x1CC9 JUMP JUMPDEST PUSH2 0x68F DUP13 PUSH2 0x689 DUP4 DUP7 PUSH2 0x1C71 JUMP JUMPDEST SWAP3 PUSH2 0x1CC9 JUMP JUMPDEST SWAP1 PUSH2 0x1C84 JUMP JUMPDEST SWAP1 DUP1 DUP3 GT PUSH2 0x8EB JUMPI SWAP1 PUSH2 0x6A7 SWAP2 PUSH2 0x1CA4 JUMP JUMPDEST SWAP10 DUP11 ISZERO PUSH2 0x8C0 JUMPI DUP11 SWAP12 PUSH2 0x2710 SWAP12 SWAP10 SWAP11 SWAP12 SWAP8 DUP9 PUSH2 0xFFFF DUP1 SWAP3 AND PUSH2 0x6C9 SWAP1 DUP14 PUSH2 0x1C71 JUMP JUMPDEST DIV SWAP9 DUP10 SWAP2 PUSH32 0x0 AND PUSH2 0x6F9 SWAP1 DUP14 PUSH2 0x1C71 JUMP JUMPDEST DIV SWAP11 DUP12 SWAP2 PUSH2 0x706 SWAP2 PUSH2 0x1CA4 JUMP JUMPDEST SWAP1 PUSH2 0x710 SWAP2 PUSH2 0x1CA4 JUMP JUMPDEST SWAP11 DUP12 LT ISZERO PUSH2 0x71D SWAP1 PUSH2 0x1D8B JUMP JUMPDEST PUSH2 0x727 DUP14 DUP9 PUSH2 0x1CA4 JUMP JUMPDEST SWAP1 PUSH2 0x731 SWAP2 PUSH2 0x1CC9 JUMP JUMPDEST SWAP1 PUSH2 0x73C DUP13 DUP8 PUSH2 0x1CC9 JUMP JUMPDEST SWAP1 PUSH2 0x746 SWAP2 PUSH2 0x1CC9 JUMP JUMPDEST SWAP1 DUP1 ISZERO PUSH2 0x884 JUMPI PUSH8 0xDE0B6B3A7640000 DUP1 DUP3 MUL SWAP2 DUP3 DIV SUB PUSH2 0x86F JUMPI SWAP1 PUSH2 0x76B SWAP2 PUSH2 0x1C84 JUMP JUMPDEST GT PUSH2 0x82E JUMPI POP POP SWAP7 PUSH2 0x7AB SWAP2 PUSH2 0x7A3 DUP9 PUSH32 0x846C37EEF631E0943682D87352EC117C20008EB7F425C9B85AC011A6D4774CC0 SWAP10 SWAP11 PUSH2 0x1CC9 JUMP JUMPDEST PUSH1 0x6 SSTORE PUSH2 0x1CA4 JUMP JUMPDEST PUSH1 0x5 SSTORE DUP1 PUSH2 0x81E JUMPI JUMPDEST POP POP DUP1 PUSH2 0x7EE JUMPI JUMPDEST POP PUSH2 0x7C7 DUP2 CALLER PUSH2 0x2961 JUMP JUMPDEST PUSH2 0x7CF PUSH2 0x1DC2 JUMP JUMPDEST PUSH1 0x40 DUP1 MLOAD SWAP5 DUP6 MSTORE PUSH1 0x20 DUP6 ADD SWAP3 SWAP1 SWAP3 MSTORE SWAP1 DUP4 ADD MSTORE CALLER SWAP2 PUSH1 0x60 SWAP1 LOG2 PUSH1 0x1 DUP1 SSTORE STOP JUMPDEST PUSH2 0x818 SWAP1 PUSH32 0x0 PUSH2 0x2961 JUMP JUMPDEST DUP4 PUSH2 0x7BC JUMP JUMPDEST PUSH2 0x827 SWAP2 PUSH2 0x2961 JUMP JUMPDEST DUP5 DUP1 PUSH2 0x7B4 JUMP JUMPDEST PUSH1 0x1B PUSH1 0x40 MLOAD SWAP2 PUSH3 0x461BCD PUSH1 0xE5 SHL DUP4 MSTORE PUSH1 0x20 PUSH1 0x4 DUP5 ADD MSTORE DUP3 ADD MSTORE PUSH32 0x53454C4C5F53484F554C445F4E4F545F52414953455F50524943450000000000 PUSH1 0x44 DUP3 ADD MSTORE REVERT JUMPDEST DUP4 PUSH4 0x4E487B71 PUSH1 0xE0 SHL PUSH1 0x0 MSTORE PUSH1 0x11 PUSH1 0x4 MSTORE PUSH1 0x0 REVERT JUMPDEST POP POP POP PUSH1 0x15 PUSH1 0x40 MLOAD SWAP2 PUSH3 0x461BCD PUSH1 0xE5 SHL DUP4 MSTORE PUSH1 0x20 PUSH1 0x4 DUP5 ADD MSTORE DUP3 ADD MSTORE PUSH21 0x1413D3D317D15354151657D05195115497D4D15313 PUSH1 0x5A SHL PUSH1 0x44 DUP3 ADD MSTORE REVERT JUMPDEST POP POP PUSH1 0x5 PUSH1 0x40 MLOAD SWAP2 PUSH3 0x461BCD PUSH1 0xE5 SHL DUP4 MSTORE PUSH1 0x20 PUSH1 0x4 DUP5 ADD MSTORE DUP3 ADD MSTORE PUSH5 0x6F75743D3 PUSH1 0xDC SHL PUSH1 0x44 DUP3 ADD MSTORE REVERT JUMPDEST POP POP POP PUSH1 0x6 PUSH1 0x40 MLOAD SWAP2 PUSH3 0x461BCD PUSH1 0xE5 SHL DUP4 MSTORE PUSH1 0x20 PUSH1 0x4 DUP5 ADD MSTORE DUP3 ADD MSTORE PUSH6 0xDAC2E8D05AF PUSH1 0xD3 SHL PUSH1 0x44 DUP3 ADD MSTORE REVERT JUMPDEST DUP8 PUSH4 0x4E487B71 PUSH1 0xE0 SHL PUSH1 0x0 MSTORE PUSH1 0x41 PUSH1 0x4 MSTORE PUSH1 0x0 REVERT JUMPDEST PUSH1 0x40 MLOAD PUSH4 0x70A08231 PUSH1 0xE0 SHL DUP2 MSTORE ADDRESS PUSH1 0x4 DUP3 ADD MSTORE SWAP1 PUSH1 0x20 DUP3 PUSH1 0x24 DUP2 PUSH32 0x0 PUSH1 0x1 PUSH1 0x1 PUSH1 0xA0 SHL SUB AND GAS STATICCALL DUP1 ISZERO PUSH2 0x9CB JUMPI PUSH1 0x0 SWAP1 PUSH2 0x997 JUMPI JUMPDEST PUSH1 0x6 SSTORE PUSH2 0xFF00 NOT AND PUSH2 0x100 OR PUSH1 0x7 SSTORE POP DUP4 PUSH2 0x58E JUMP JUMPDEST POP PUSH1 0x20 DUP3 RETURNDATASIZE PUSH1 0x20 GT PUSH2 0x9C3 JUMPI JUMPDEST DUP2 PUSH2 0x9B1 PUSH1 0x20 SWAP4 DUP4 PUSH2 0x1C4F JUMP JUMPDEST DUP2 ADD SUB SLT PUSH2 0x295 JUMPI PUSH2 0x100 SWAP2 MLOAD PUSH2 0x981 JUMP JUMPDEST RETURNDATASIZE SWAP2 POP PUSH2 0x9A4 JUMP JUMPDEST PUSH1 0x40 MLOAD RETURNDATASIZE PUSH1 0x0 DUP3 RETURNDATACOPY RETURNDATASIZE SWAP1 REVERT JUMPDEST PUSH1 0x40 MLOAD PUSH3 0x461BCD PUSH1 0xE5 SHL DUP2 MSTORE PUSH1 0x20 PUSH1 0x4 DUP3 ADD MSTORE PUSH1 0x9 PUSH1 0x24 DUP3 ADD MSTORE PUSH9 0x6E6F20746F6B656E73 PUSH1 0xB8 SHL PUSH1 0x44 DUP3 ADD MSTORE PUSH1 0x64 SWAP1 REVERT JUMPDEST CALLVALUE PUSH2 0x295 JUMPI PUSH1 0x0 CALLDATASIZE PUSH1 0x3 NOT ADD SLT PUSH2 0x295 JUMPI PUSH1 0x20 PUSH1 0xFF PUSH1 0x7 SLOAD PUSH1 0x10 SHR AND PUSH1 0x40 MLOAD SWAP1 ISZERO ISZERO DUP2 MSTORE RETURN JUMPDEST CALLVALUE PUSH2 0x295 JUMPI PUSH1 0x0 CALLDATASIZE PUSH1 0x3 NOT ADD SLT PUSH2 0x295 JUMPI PUSH1 0x40 MLOAD PUSH32 0x0 PUSH1 0x1 PUSH1 0x1 PUSH1 0xA0 SHL SUB AND DUP2 MSTORE PUSH1 0x20 SWAP1 RETURN JUMPDEST CALLVALUE PUSH2 0x295 JUMPI PUSH1 0x0 CALLDATASIZE PUSH1 0x3 NOT ADD SLT PUSH2 0x295 JUMPI PUSH1 0x20 PUSH1 0x5 SLOAD PUSH1 0x40 MLOAD SWAP1 DUP2 MSTORE RETURN JUMPDEST CALLVALUE PUSH2 0x295 JUMPI PUSH1 0x0 CALLDATASIZE PUSH1 0x3 NOT ADD SLT PUSH2 0x295 JUMPI PUSH1 0x20 PUSH1 0x40 MLOAD PUSH2 0xFFFF PUSH32 0x0 AND DUP2 MSTORE RETURN JUMPDEST CALLVALUE PUSH2 0x295 JUMPI PUSH1 0x0 CALLDATASIZE PUSH1 0x3 NOT ADD SLT PUSH2 0x295 JUMPI PUSH1 0x20 PUSH1 0xFF PUSH1 0x7 SLOAD AND PUSH1 0x40 MLOAD SWAP1 ISZERO ISZERO DUP2 MSTORE RETURN JUMPDEST CALLVALUE PUSH2 0x295 JUMPI PUSH1 0x0 CALLDATASIZE PUSH1 0x3 NOT ADD SLT PUSH2 0x295 JUMPI PUSH1 0x20 PUSH1 0x40 MLOAD PUSH32 0x0 DUP2 MSTORE RETURN JUMPDEST CALLVALUE PUSH2 0x295 JUMPI PUSH1 0x0 CALLDATASIZE PUSH1 0x3 NOT ADD SLT PUSH2 0x295 JUMPI PUSH1 0x20 PUSH1 0x9 SLOAD PUSH1 0x40 MLOAD SWAP1 DUP2 MSTORE RETURN JUMPDEST CALLVALUE PUSH2 0x295 JUMPI PUSH1 0x0 CALLDATASIZE PUSH1 0x3 NOT ADD SLT PUSH2 0x295 JUMPI PUSH1 0x0 SLOAD PUSH1 0x40 MLOAD PUSH1 0x1 PUSH1 0x1 PUSH1 0xA0 SHL SUB SWAP1 SWAP2 AND DUP2 MSTORE PUSH1 0x20 SWAP1 RETURN JUMPDEST CALLVALUE PUSH2 0x295 JUMPI PUSH1 0x0 CALLDATASIZE PUSH1 0x3 NOT ADD SLT PUSH2 0x295 JUMPI PUSH1 0x20 PUSH2 0x43F PUSH2 0x1CF1 JUMP JUMPDEST CALLVALUE PUSH2 0x295 JUMPI PUSH1 0x0 CALLDATASIZE PUSH1 0x3 NOT ADD SLT PUSH2 0x295 JUMPI PUSH2 0xBA9 PUSH2 0x2696 JUMP JUMPDEST PUSH1 0x0 DUP1 SLOAD PUSH1 0x1 PUSH1 0x1 PUSH1 0xA0 SHL SUB NOT DUP2 AND DUP3 SSTORE PUSH1 0x1 PUSH1 0x1 PUSH1 0xA0 SHL SUB AND PUSH32 0x8BE0079C531659141344CD1FD0A4F28419497F9722A3DAAFE3B4186F6B6457E0 DUP3 DUP1 LOG3 STOP JUMPDEST CALLVALUE PUSH2 0x295 JUMPI PUSH32 0x8AAF31BF77FD5B19DD8C32E81723ADB543005478C2B8B1BDD69BE544C52CA90E PUSH1 0x40 PUSH2 0xC1A CALLDATASIZE PUSH2 0x1BFE JUMP JUMPDEST PUSH2 0xC22 PUSH2 0x2696 JUMP JUMPDEST DUP2 PUSH1 0x4 SSTORE DUP1 PUSH1 0x3 SSTORE DUP3 MLOAD SWAP2 DUP3 MSTORE PUSH1 0x20 DUP3 ADD MSTORE LOG1 STOP JUMPDEST CALLVALUE PUSH2 0x295 JUMPI PUSH1 0x0 CALLDATASIZE PUSH1 0x3 NOT ADD SLT PUSH2 0x295 JUMPI PUSH1 0x20 PUSH1 0x40 MLOAD PUSH2 0xFFFF PUSH32 0x0 AND DUP2 MSTORE RETURN JUMPDEST CALLVALUE PUSH2 0x295 JUMPI PUSH1 0x0 CALLDATASIZE PUSH1 0x3 NOT ADD SLT PUSH2 0x295 JUMPI PUSH1 0x20 PUSH1 0x40 MLOAD PUSH32 0x0 DUP2 MSTORE RETURN JUMPDEST CALLVALUE PUSH2 0x295 JUMPI PUSH1 0x80 CALLDATASIZE PUSH1 0x3 NOT ADD SLT PUSH2 0x295 JUMPI PUSH2 0xCCA PUSH2 0x1BE8 JUMP JUMPDEST PUSH2 0xCD2 PUSH2 0x2696 JUMP JUMPDEST PUSH2 0xCDA PUSH2 0x1E32 JUMP JUMPDEST PUSH1 0x7 SLOAD SWAP1 PUSH1 0xFF DUP3 AND PUSH2 0x51F JUMPI PUSH1 0x1 PUSH1 0x1 PUSH1 0xA0 SHL SUB DUP2 DUP2 AND SWAP3 SWAP1 DUP4 ISZERO PUSH2 0xF40 JUMPI PUSH1 0x6 SLOAD SWAP1 PUSH1 0x5 SLOAD SWAP3 DUP3 ISZERO DUP1 ISZERO PUSH2 0xF38 JUMPI JUMPDEST PUSH2 0xF02 JUMPI PUSH1 0x1 SWAP1 PUSH1 0xFF NOT AND OR PUSH1 0x7 SSTORE PUSH32 0x0 AND PUSH1 0x40 MLOAD SWAP1 PUSH4 0x95EA7B3 PUSH1 0xE0 SHL SWAP4 DUP5 DUP4 MSTORE DUP7 PUSH1 0x4 DUP5 ADD MSTORE PUSH1 0x0 PUSH1 0x24 DUP5 ADD MSTORE PUSH1 0x20 SWAP3 DUP4 DUP2 PUSH1 0x44 DUP2 PUSH1 0x0 DUP8 GAS CALL DUP1 ISZERO PUSH2 0x9CB JUMPI PUSH2 0xEE5 JUMPI JUMPDEST POP PUSH1 0x40 MLOAD SWAP5 DUP6 MSTORE PUSH1 0x1 PUSH1 0x1 PUSH1 0xA0 SHL SUB DUP7 AND PUSH1 0x4 DUP7 ADD MSTORE PUSH1 0x24 DUP6 ADD DUP5 SWAP1 MSTORE DUP3 DUP6 PUSH1 0x44 DUP2 PUSH1 0x0 DUP7 GAS CALL SWAP3 DUP4 ISZERO PUSH2 0x9CB JUMPI PUSH1 0x60 SWAP6 PUSH1 0xC4 SWAP5 PUSH2 0xEB7 JUMPI JUMPDEST POP POP PUSH1 0x40 MLOAD SWAP7 DUP8 SWAP5 DUP6 SWAP4 PUSH4 0xF305D719 PUSH1 0xE0 SHL DUP6 MSTORE PUSH1 0x4 DUP6 ADD MSTORE PUSH1 0x24 DUP5 ADD MSTORE PUSH1 0x24 CALLDATALOAD PUSH1 0x44 DUP5 ADD MSTORE PUSH1 0x44 CALLDATALOAD PUSH1 0x64 DUP5 ADD MSTORE PUSH2 0xDEAD PUSH1 0x84 DUP5 ADD MSTORE PUSH1 0x64 CALLDATALOAD PUSH1 0xA4 DUP5 ADD MSTORE GAS CALL DUP1 ISZERO PUSH2 0x9CB JUMPI PUSH1 0x0 SWAP2 PUSH1 0x0 SWAP4 PUSH1 0x0 SWAP3 PUSH2 0xE6B JUMPI JUMPDEST POP PUSH1 0x0 PUSH1 0x6 DUP2 SWAP1 SSTORE PUSH1 0x5 SSTORE PUSH1 0x40 DUP1 MLOAD PUSH1 0x1 PUSH1 0x1 PUSH1 0xA0 SHL SUB SWAP3 SWAP1 SWAP3 AND DUP3 MSTORE PUSH1 0x20 DUP3 ADD DUP6 SWAP1 MSTORE DUP2 ADD DUP4 SWAP1 MSTORE PUSH1 0x60 DUP2 ADD DUP3 SWAP1 MSTORE PUSH2 0xE67 SWAP2 SWAP1 PUSH1 0x0 DUP1 MLOAD PUSH1 0x20 PUSH2 0x2B43 DUP4 CODECOPY DUP2 MLOAD SWAP2 MSTORE SWAP1 PUSH1 0x80 SWAP1 LOG1 PUSH1 0x1 DUP1 SSTORE PUSH1 0x40 MLOAD SWAP4 DUP5 SWAP4 DUP5 PUSH1 0x40 SWAP2 SWAP5 SWAP4 SWAP3 PUSH1 0x60 DUP3 ADD SWAP6 DUP3 MSTORE PUSH1 0x20 DUP3 ADD MSTORE ADD MSTORE JUMP JUMPDEST SUB SWAP1 RETURN JUMPDEST PUSH2 0xEA4 SWAP2 SWAP5 POP PUSH1 0x0 DUP1 MLOAD PUSH1 0x20 PUSH2 0x2B43 DUP4 CODECOPY DUP2 MLOAD SWAP2 MSTORE SWAP4 POP PUSH2 0xE67 SWAP3 POP PUSH1 0x60 RETURNDATASIZE PUSH1 0x60 GT PUSH2 0xEB0 JUMPI JUMPDEST PUSH2 0xE9C DUP2 DUP4 PUSH2 0x1C4F JUMP JUMPDEST DUP2 ADD SWAP1 PUSH2 0x1CD6 JUMP JUMPDEST SWAP1 SWAP5 SWAP2 SWAP4 SWAP1 SWAP3 POP PUSH2 0xDFD JUMP JUMPDEST POP RETURNDATASIZE PUSH2 0xE92 JUMP JUMPDEST DUP2 PUSH2 0xED6 SWAP3 SWAP1 RETURNDATASIZE LT PUSH2 0xEDE JUMPI JUMPDEST PUSH2 0xECE DUP2 DUP4 PUSH2 0x1C4F JUMP JUMPDEST DUP2 ADD SWAP1 PUSH2 0x1CB1 JUMP JUMPDEST POP DUP8 DUP1 PUSH2 0xDA9 JUMP JUMPDEST POP RETURNDATASIZE PUSH2 0xEC4 JUMP JUMPDEST PUSH2 0xEFB SWAP1 DUP5 RETURNDATASIZE DUP7 GT PUSH2 0xEDE JUMPI PUSH2 0xECE DUP2 DUP4 PUSH2 0x1C4F JUMP JUMPDEST POP DUP8 PUSH2 0xD70 JUMP JUMPDEST PUSH1 0x40 MLOAD PUSH3 0x461BCD PUSH1 0xE5 SHL DUP2 MSTORE PUSH1 0x20 PUSH1 0x4 DUP3 ADD MSTORE PUSH1 0xE PUSH1 0x24 DUP3 ADD MSTORE PUSH14 0x656D707479207265736572766573 PUSH1 0x90 SHL PUSH1 0x44 DUP3 ADD MSTORE PUSH1 0x64 SWAP1 REVERT JUMPDEST POP DUP4 ISZERO PUSH2 0xD0A JUMP JUMPDEST PUSH1 0x40 MLOAD PUSH3 0x461BCD PUSH1 0xE5 SHL DUP2 MSTORE PUSH1 0x20 PUSH1 0x4 DUP3 ADD MSTORE PUSH1 0xA PUSH1 0x24 DUP3 ADD MSTORE PUSH10 0x3130B2103937BABA32B9 PUSH1 0xB1 SHL PUSH1 0x44 DUP3 ADD MSTORE PUSH1 0x64 SWAP1 REVERT JUMPDEST CALLVALUE PUSH2 0x295 JUMPI PUSH1 0x0 CALLDATASIZE PUSH1 0x3 NOT ADD SLT PUSH2 0x295 JUMPI PUSH1 0x20 PUSH1 0x40 MLOAD PUSH32 0x0 DUP2 MSTORE RETURN JUMPDEST CALLVALUE PUSH2 0x295 JUMPI PUSH1 0x0 CALLDATASIZE PUSH1 0x3 NOT ADD SLT PUSH2 0x295 JUMPI PUSH1 0x20 PUSH1 0x40 MLOAD PUSH32 0x0 DUP2 MSTORE RETURN JUMPDEST CALLVALUE PUSH2 0x295 JUMPI PUSH1 0x0 CALLDATASIZE PUSH1 0x3 NOT ADD SLT PUSH2 0x295 JUMPI PUSH1 0x20 PUSH2 0x1003 PUSH2 0x29BC JUMP JUMPDEST PUSH2 0xFFFF PUSH1 0x40 MLOAD SWAP2 AND DUP2 MSTORE RETURN JUMPDEST CALLVALUE PUSH2 0x295 JUMPI PUSH1 0x0 CALLDATASIZE PUSH1 0x3 NOT ADD SLT PUSH2 0x295 JUMPI PUSH1 0x20 PUSH1 0x8 SLOAD PUSH1 0x40 MLOAD SWAP1 DUP2 MSTORE RETURN JUMPDEST CALLVALUE PUSH2 0x295 JUMPI PUSH1 0x0 CALLDATASIZE PUSH1 0x3 NOT ADD SLT PUSH2 0x295 JUMPI PUSH1 0x40 MLOAD PUSH32 0x0 PUSH1 0x1 PUSH1 0x1 PUSH1 0xA0 SHL SUB AND DUP2 MSTORE PUSH1 0x20 SWAP1 RETURN JUMPDEST CALLVALUE PUSH2 0x295 JUMPI PUSH1 0x20 CALLDATASIZE PUSH1 0x3 NOT ADD SLT PUSH2 0x295 JUMPI PUSH32 0x0 PUSH1 0x1 PUSH1 0x1 PUSH1 0xA0 SHL SUB AND CALLER SUB PUSH2 0x10E6 JUMPI PUSH1 0x7 SLOAD PUSH1 0xFF DUP2 PUSH1 0x8 SHR AND PUSH2 0x10D5 JUMPI PUSH1 0x4 CALLDATALOAD PUSH1 0x6 SSTORE PUSH2 0xFF00 NOT AND PUSH2 0x100 OR PUSH1 0x7 SSTORE STOP JUMPDEST PUSH1 0x40 MLOAD PUSH3 0xDC149F PUSH1 0xE4 SHL DUP2 MSTORE PUSH1 0x4 SWAP1 REVERT JUMPDEST PUSH1 0x40 MLOAD PUSH4 0x1966391B PUSH1 0xE1 SHL DUP2 MSTORE PUSH1 0x4 SWAP1 REVERT JUMPDEST CALLVALUE PUSH2 0x295 JUMPI PUSH1 0x0 CALLDATASIZE PUSH1 0x3 NOT ADD SLT PUSH2 0x295 JUMPI PUSH2 0x113D CALLER PUSH32 0x0 PUSH1 0x1 PUSH1 0x1 PUSH1 0xA0 SHL SUB AND EQ PUSH2 0x1C14 JUMP JUMPDEST PUSH1 0x7 SLOAD PUSH1 0xFF DUP2 PUSH1 0x10 SHR AND PUSH2 0x115B JUMPI PUSH3 0xFF0000 NOT AND PUSH3 0x10000 OR PUSH1 0x7 SSTORE STOP JUMPDEST PUSH1 0x40 MLOAD PUSH3 0x461BCD PUSH1 0xE5 SHL DUP2 MSTORE PUSH1 0x20 PUSH1 0x4 DUP3 ADD MSTORE PUSH1 0xC PUSH1 0x24 DUP3 ADD MSTORE PUSH12 0x30B63932B0B23C9037B832B7 PUSH1 0xA1 SHL PUSH1 0x44 DUP3 ADD MSTORE PUSH1 0x64 SWAP1 REVERT JUMPDEST CALLVALUE PUSH2 0x295 JUMPI PUSH1 0x0 CALLDATASIZE PUSH1 0x3 NOT ADD SLT PUSH2 0x295 JUMPI PUSH1 0x20 PUSH1 0x40 MLOAD PUSH32 0x0 DUP2 MSTORE RETURN JUMPDEST CALLVALUE PUSH2 0x295 JUMPI PUSH1 0x0 CALLDATASIZE PUSH1 0x3 NOT ADD SLT PUSH2 0x295 JUMPI PUSH1 0x20 PUSH1 0x40 MLOAD PUSH32 0x0 DUP2 MSTORE RETURN JUMPDEST CALLVALUE PUSH2 0x295 JUMPI PUSH1 0x0 CALLDATASIZE PUSH1 0x3 NOT ADD SLT PUSH2 0x295 JUMPI PUSH1 0x20 PUSH1 0x3 SLOAD PUSH1 0x40 MLOAD SWAP1 DUP2 MSTORE RETURN JUMPDEST CALLVALUE PUSH2 0x295 JUMPI PUSH1 0x0 CALLDATASIZE PUSH1 0x3 NOT ADD SLT PUSH2 0x295 JUMPI PUSH1 0x20 PUSH1 0x4 SLOAD PUSH1 0x40 MLOAD SWAP1 DUP2 MSTORE RETURN JUMPDEST CALLVALUE PUSH2 0x295 JUMPI PUSH1 0x0 CALLDATASIZE PUSH1 0x3 NOT ADD SLT PUSH2 0x295 JUMPI PUSH1 0x40 MLOAD PUSH1 0x40 DUP2 ADD DUP2 DUP2 LT PUSH8 0xFFFFFFFFFFFFFFFF DUP3 GT OR PUSH2 0x12DC JUMPI PUSH1 0x40 MSTORE PUSH1 0xB DUP2 MSTORE PUSH1 0x20 SWAP1 PUSH11 0x4F5054494F4E5F415F5631 PUSH1 0xA8 SHL PUSH1 0x20 DUP3 ADD MSTORE PUSH1 0x40 MLOAD DUP1 SWAP3 PUSH1 0x20 DUP3 MSTORE DUP3 MLOAD SWAP1 DUP2 PUSH1 0x20 DUP5 ADD MSTORE PUSH1 0x0 SWAP4 JUMPDEST DUP3 DUP6 LT PUSH2 0x12C3 JUMPI POP POP PUSH1 0x40 SWAP3 POP PUSH1 0x0 DUP4 DUP3 DUP5 ADD ADD MSTORE PUSH1 0x1F DUP1 NOT SWAP2 ADD AND DUP2 ADD SUB ADD SWAP1 RETURN JUMPDEST DUP5 DUP2 ADD DUP3 ADD MLOAD DUP7 DUP7 ADD PUSH1 0x40 ADD MSTORE SWAP4 DUP2 ADD SWAP4 DUP6 SWAP4 POP PUSH2 0x12A0 JUMP JUMPDEST PUSH4 0x4E487B71 PUSH1 0xE0 SHL PUSH1 0x0 MSTORE PUSH1 0x41 PUSH1 0x4 MSTORE PUSH1 0x24 PUSH1 0x0 REVERT JUMPDEST CALLVALUE PUSH2 0x295 JUMPI PUSH1 0x0 CALLDATASIZE PUSH1 0x3 NOT ADD SLT PUSH2 0x295 JUMPI PUSH1 0x20 PUSH1 0x40 MLOAD PUSH2 0xFFFF PUSH32 0x0 AND DUP2 MSTORE RETURN JUMPDEST CALLVALUE PUSH2 0x295 JUMPI PUSH1 0x0 CALLDATASIZE PUSH1 0x3 NOT ADD SLT PUSH2 0x295 JUMPI PUSH1 0x20 PUSH1 0x40 MLOAD PUSH2 0xFFFF PUSH32 0x0 AND DUP2 MSTORE RETURN JUMPDEST CALLVALUE PUSH2 0x295 JUMPI PUSH1 0x0 CALLDATASIZE PUSH1 0x3 NOT ADD SLT PUSH2 0x295 JUMPI PUSH1 0x20 PUSH1 0x40 MLOAD PUSH32 0x0 DUP2 MSTORE RETURN JUMPDEST CALLVALUE PUSH2 0x295 JUMPI PUSH1 0x0 CALLDATASIZE PUSH1 0x3 NOT ADD SLT PUSH2 0x295 JUMPI PUSH1 0x20 PUSH1 0xFF PUSH1 0x7 SLOAD PUSH1 0x8 SHR AND PUSH1 0x40 MLOAD SWAP1 ISZERO ISZERO DUP2 MSTORE RETURN JUMPDEST CALLVALUE PUSH2 0x295 JUMPI PUSH1 0x0 CALLDATASIZE PUSH1 0x3 NOT ADD SLT PUSH2 0x295 JUMPI PUSH1 0x20 PUSH1 0x40 MLOAD PUSH1 0x0 DUP2 MSTORE RETURN JUMPDEST CALLVALUE PUSH2 0x295 JUMPI PUSH1 0x40 CALLDATASIZE PUSH1 0x3 NOT ADD SLT PUSH2 0x295 JUMPI PUSH2 0x1406 PUSH2 0x1BE8 JUMP JUMPDEST PUSH1 0x1 PUSH1 0x1 PUSH1 0xA0 SHL SUB PUSH1 0x24 CALLDATALOAD DUP2 DUP2 AND SWAP3 SWAP1 DUP4 SWAP1 SUB PUSH2 0x295 JUMPI PUSH2 0x1425 PUSH2 0x1E32 JUMP JUMPDEST PUSH2 0x142D PUSH2 0x2696 JUMP JUMPDEST PUSH1 0xFF PUSH1 0x7 SLOAD AND PUSH2 0x51F JUMPI PUSH2 0x143F PUSH2 0x1CF1 JUMP JUMPDEST PUSH32 0x0 GT PUSH2 0x194E JUMPI PUSH1 0x40 MLOAD PUSH4 0x70A08231 PUSH1 0xE0 SHL DUP2 MSTORE ADDRESS PUSH1 0x4 DUP3 ADD MSTORE PUSH1 0x20 DUP2 PUSH1 0x24 DUP2 PUSH32 0x0 DUP8 AND GAS STATICCALL SWAP1 DUP2 ISZERO PUSH2 0x9CB JUMPI PUSH1 0x0 SWAP2 PUSH2 0x191C JUMPI JUMPDEST POP SELFBALANCE SWAP1 PUSH7 0x470DE4DF820000 DUP3 LT PUSH2 0x18E9 JUMPI PUSH1 0xB SLOAD SWAP2 DUP3 ISZERO PUSH2 0x18D9 JUMPI JUMPDEST DUP3 ISZERO PUSH2 0x18AA JUMPI PUSH2 0x14DE DUP4 DUP4 PUSH2 0x26C2 JUMP JUMPDEST SWAP3 DUP4 DUP3 LT PUSH2 0x1895 JUMPI POP POP SWAP1 SWAP3 JUMPDEST PUSH32 0x0 DUP5 LT PUSH2 0x1865 JUMPI PUSH2 0x1524 PUSH2 0x151E DUP6 PUSH2 0x27D4 JUMP JUMPDEST DUP6 PUSH2 0x1CA4 JUMP JUMPDEST PUSH2 0x1536 PUSH2 0x1530 DUP5 PUSH2 0x27D4 JUMP JUMPDEST DUP5 PUSH2 0x1CA4 JUMP JUMPDEST SWAP6 PUSH1 0x40 MLOAD PUSH4 0x95EA7B3 PUSH1 0xE0 SHL SWAP1 DUP2 DUP2 MSTORE DUP5 DUP8 AND PUSH1 0x4 DUP3 ADD MSTORE PUSH1 0x0 PUSH1 0x24 DUP3 ADD MSTORE PUSH1 0x20 DUP2 PUSH1 0x44 DUP2 PUSH1 0x0 DUP10 PUSH32 0x0 AND GAS CALL DUP1 ISZERO PUSH2 0x9CB JUMPI PUSH2 0x1846 JUMPI JUMPDEST POP PUSH1 0x40 MLOAD SWAP1 DUP2 MSTORE PUSH1 0x1 PUSH1 0x1 PUSH1 0xA0 SHL SUB DUP7 AND PUSH1 0x4 DUP3 ADD MSTORE PUSH1 0x24 DUP2 ADD DUP6 SWAP1 MSTORE PUSH1 0x20 DUP2 PUSH1 0x44 DUP2 PUSH1 0x0 PUSH32 0x0 DUP10 AND GAS CALL DUP1 ISZERO PUSH2 0x9CB JUMPI PUSH2 0x1827 JUMPI JUMPDEST POP PUSH2 0x708 TIMESTAMP ADD SWAP2 DUP3 TIMESTAMP GT PUSH2 0x1811 JUMPI PUSH1 0x40 MLOAD SWAP8 PUSH4 0xF305D719 PUSH1 0xE0 SHL DUP10 MSTORE DUP5 PUSH32 0x0 AND PUSH1 0x4 DUP11 ADD MSTORE DUP6 PUSH1 0x24 DUP11 ADD MSTORE PUSH1 0x44 DUP10 ADD MSTORE PUSH1 0x64 DUP9 ADD MSTORE PUSH1 0x84 DUP8 ADD MSTORE PUSH1 0xA4 DUP7 ADD MSTORE PUSH1 0x60 DUP6 PUSH1 0xC4 DUP2 DUP8 DUP6 DUP9 AND GAS CALL SWAP5 DUP6 ISZERO PUSH2 0x9CB JUMPI PUSH1 0x0 SWAP6 PUSH2 0x17ED JUMPI JUMPDEST POP PUSH1 0x40 MLOAD PUSH4 0x70A08231 PUSH1 0xE0 SHL DUP2 MSTORE ADDRESS PUSH1 0x4 DUP3 ADD MSTORE PUSH1 0x20 DUP2 PUSH1 0x24 DUP2 PUSH32 0x0 DUP7 AND GAS STATICCALL SWAP1 DUP2 ISZERO PUSH2 0x9CB JUMPI PUSH1 0x0 SWAP2 PUSH2 0x17BB JUMPI JUMPDEST POP SELFBALANCE SWAP2 DUP2 PUSH2 0x1732 JUMPI JUMPDEST POP POP SWAP4 PUSH2 0x1712 SWAP2 DUP6 PUSH1 0x0 DUP1 MLOAD PUSH1 0x20 PUSH2 0x2B43 DUP4 CODECOPY DUP2 MLOAD SWAP2 MSTORE SWAP7 PUSH2 0x171B JUMPI JUMPDEST POP PUSH1 0x0 PUSH1 0x6 SSTORE PUSH1 0x0 PUSH1 0x5 SSTORE PUSH1 0x1 PUSH1 0xFF NOT PUSH1 0x7 SLOAD AND OR PUSH1 0x7 SSTORE PUSH1 0x40 MLOAD SWAP5 DUP6 SWAP5 DUP6 SWAP1 SWAP5 SWAP4 SWAP3 PUSH1 0x60 SWAP3 PUSH1 0x80 DUP4 ADD SWAP7 PUSH1 0x1 DUP1 PUSH1 0xA0 SHL SUB AND DUP4 MSTORE PUSH1 0x20 DUP4 ADD MSTORE PUSH1 0x40 DUP3 ADD MSTORE ADD MSTORE JUMP JUMPDEST SUB SWAP1 LOG1 PUSH1 0x1 DUP1 SSTORE STOP JUMPDEST PUSH2 0x172C SWAP1 PUSH2 0x1727 PUSH2 0x283C JUMP JUMPDEST PUSH2 0x2961 JUMP JUMPDEST DUP7 PUSH2 0x16CF JUMP JUMPDEST SWAP3 SWAP1 SWAP6 SWAP2 PUSH1 0x40 MLOAD SWAP7 PUSH4 0xA9059CBB PUSH1 0xE0 SHL PUSH1 0x20 DUP10 ADD MSTORE PUSH2 0xDEAD PUSH1 0x24 DUP10 ADD MSTORE PUSH1 0x44 DUP9 ADD MSTORE PUSH1 0x44 DUP8 MSTORE PUSH1 0x80 DUP8 ADD DUP8 DUP2 LT PUSH8 0xFFFFFFFFFFFFFFFF DUP3 GT OR PUSH2 0x12DC JUMPI PUSH1 0x0 DUP1 MLOAD PUSH1 0x20 PUSH2 0x2B43 DUP4 CODECOPY DUP2 MLOAD SWAP2 MSTORE SWAP8 PUSH2 0x1712 SWAP6 PUSH2 0x17B1 SWAP3 PUSH1 0x40 MSTORE PUSH32 0x0 AND PUSH2 0x2A6D JUMP JUMPDEST SWAP2 SWAP6 DUP2 SWAP4 POP PUSH2 0x16B2 JUMP JUMPDEST SWAP1 POP PUSH1 0x20 DUP2 RETURNDATASIZE PUSH1 0x20 GT PUSH2 0x17E5 JUMPI JUMPDEST DUP2 PUSH2 0x17D6 PUSH1 0x20 SWAP4 DUP4 PUSH2 0x1C4F JUMP JUMPDEST DUP2 ADD SUB SLT PUSH2 0x295 JUMPI MLOAD DUP7 PUSH2 0x16A9 JUMP JUMPDEST RETURNDATASIZE SWAP2 POP PUSH2 0x17C9 JUMP JUMPDEST PUSH2 0x1807 SWAP2 SWAP6 POP PUSH1 0x60 RETURNDATASIZE PUSH1 0x60 GT PUSH2 0xEB0 JUMPI PUSH2 0xE9C DUP2 DUP4 PUSH2 0x1C4F JUMP JUMPDEST SWAP2 POP POP SWAP4 DUP6 PUSH2 0x165B JUMP JUMPDEST PUSH4 0x4E487B71 PUSH1 0xE0 SHL PUSH1 0x0 MSTORE PUSH1 0x11 PUSH1 0x4 MSTORE PUSH1 0x24 PUSH1 0x0 REVERT JUMPDEST PUSH2 0x183F SWAP1 PUSH1 0x20 RETURNDATASIZE PUSH1 0x20 GT PUSH2 0xEDE JUMPI PUSH2 0xECE DUP2 DUP4 PUSH2 0x1C4F JUMP JUMPDEST POP DUP8 PUSH2 0x15E2 JUMP JUMPDEST PUSH2 0x185E SWAP1 PUSH1 0x20 RETURNDATASIZE PUSH1 0x20 GT PUSH2 0xEDE JUMPI PUSH2 0xECE DUP2 DUP4 PUSH2 0x1C4F JUMP JUMPDEST POP DUP9 PUSH2 0x158D JUMP JUMPDEST PUSH1 0x40 MLOAD PUSH3 0x461BCD PUSH1 0xE5 SHL DUP2 MSTORE PUSH1 0x20 PUSH1 0x4 DUP3 ADD MSTORE PUSH1 0x8 PUSH1 0x24 DUP3 ADD MSTORE PUSH8 0x262810333637B7B9 PUSH1 0xC1 SHL PUSH1 0x44 DUP3 ADD MSTORE PUSH1 0x64 SWAP1 REVERT JUMPDEST SWAP1 SWAP5 SWAP3 POP PUSH2 0x18A4 SWAP2 POP DUP5 PUSH2 0x2749 JUMP JUMPDEST SWAP1 PUSH2 0x14EB JUMP JUMPDEST PUSH1 0x40 MLOAD PUSH3 0x461BCD PUSH1 0xE5 SHL DUP2 MSTORE PUSH1 0x20 PUSH1 0x4 DUP3 ADD MSTORE PUSH1 0x7 PUSH1 0x24 DUP3 ADD MSTORE PUSH7 0x70726963653D3 PUSH1 0xCC SHL PUSH1 0x44 DUP3 ADD MSTORE PUSH1 0x64 SWAP1 REVERT JUMPDEST SWAP2 POP PUSH2 0x18E3 PUSH2 0x1DC2 JUMP JUMPDEST SWAP2 PUSH2 0x14CE JUMP JUMPDEST PUSH1 0x40 MLOAD PUSH3 0x461BCD PUSH1 0xE5 SHL DUP2 MSTORE PUSH1 0x20 PUSH1 0x4 DUP3 ADD MSTORE PUSH1 0xB PUSH1 0x24 DUP3 ADD MSTORE PUSH11 0x626E622D746F6F2D6C6F77 PUSH1 0xA8 SHL PUSH1 0x44 DUP3 ADD MSTORE PUSH1 0x64 SWAP1 REVERT JUMPDEST SWAP1 POP PUSH1 0x20 DUP2 RETURNDATASIZE PUSH1 0x20 GT PUSH2 0x1946 JUMPI JUMPDEST DUP2 PUSH2 0x1937 PUSH1 0x20 SWAP4 DUP4 PUSH2 0x1C4F JUMP JUMPDEST DUP2 ADD SUB SLT PUSH2 0x295 JUMPI MLOAD DUP5 PUSH2 0x14B2 JUMP JUMPDEST RETURNDATASIZE SWAP2 POP PUSH2 0x192A JUMP JUMPDEST PUSH1 0x40 MLOAD PUSH4 0xB4202DD5 PUSH1 0xE0 SHL DUP2 MSTORE PUSH1 0x4 SWAP1 REVERT JUMPDEST CALLVALUE PUSH2 0x295 JUMPI PUSH1 0x20 CALLDATASIZE PUSH1 0x3 NOT ADD SLT PUSH2 0x295 JUMPI PUSH1 0x1 PUSH1 0x1 PUSH1 0xA0 SHL SUB PUSH2 0x1981 PUSH2 0x1BE8 JUMP JUMPDEST AND PUSH1 0x0 MSTORE PUSH1 0xA PUSH1 0x20 MSTORE PUSH1 0x20 PUSH1 0x40 PUSH1 0x0 KECCAK256 SLOAD PUSH1 0x40 MLOAD SWAP1 DUP2 MSTORE RETURN JUMPDEST PUSH1 0x40 CALLDATASIZE PUSH1 0x3 NOT ADD SLT PUSH2 0x295 JUMPI PUSH2 0x19AE PUSH2 0x1BE8 JUMP JUMPDEST PUSH1 0x1 PUSH1 0x1 PUSH1 0xA0 SHL SUB SWAP1 PUSH2 0x19E4 CALLER PUSH32 0x0 DUP5 AND EQ PUSH2 0x1C14 JUMP JUMPDEST PUSH2 0x19EC PUSH2 0x1E32 JUMP JUMPDEST PUSH1 0xFF PUSH1 0x7 SLOAD AND PUSH2 0x51F JUMPI PUSH2 0x1A0C SWAP1 PUSH2 0x1A02 PUSH2 0x1E55 JUMP JUMPDEST SWAP1 PUSH1 0x24 CALLDATALOAD SWAP1 PUSH2 0x1F31 JUMP JUMPDEST PUSH1 0x7 SLOAD SWAP2 PUSH1 0xFF DUP4 PUSH1 0x10 SHR AND ISZERO PUSH2 0x1A2C JUMPI JUMPDEST PUSH1 0x20 DUP3 PUSH1 0x1 DUP1 SSTORE PUSH1 0x40 MLOAD SWAP1 DUP2 MSTORE RETURN JUMPDEST PUSH1 0x20 PUSH1 0x4 SWAP2 PUSH1 0x40 MLOAD SWAP3 DUP4 DUP1 SWAP3 PUSH4 0x18160DDD PUSH1 0xE0 SHL DUP3 MSTORE PUSH32 0x0 AND GAS STATICCALL SWAP1 DUP2 ISZERO PUSH2 0x9CB JUMPI PUSH1 0x0 SWAP2 PUSH2 0x1AFB JUMPI JUMPDEST POP PUSH2 0x1AA8 PUSH2 0x2710 SWAP2 PUSH2 0xFFFF PUSH32 0x0 AND SWAP1 PUSH2 0x1C71 JUMP JUMPDEST DIV DUP2 GT PUSH2 0x1AC6 JUMPI PUSH3 0x10000 PUSH1 0x20 SWAP3 PUSH3 0xFF0000 NOT AND OR PUSH1 0x7 SSTORE DUP3 PUSH2 0x1A1D JUMP JUMPDEST PUSH1 0x40 MLOAD PUSH3 0x461BCD PUSH1 0xE5 SHL DUP2 MSTORE PUSH1 0x20 PUSH1 0x4 DUP3 ADD MSTORE PUSH1 0xD PUSH1 0x24 DUP3 ADD MSTORE PUSH13 0x66697273742D6275792063617 PUSH1 0x9C SHL PUSH1 0x44 DUP3 ADD MSTORE PUSH1 0x64 SWAP1 REVERT JUMPDEST SWAP1 POP PUSH1 0x20 DUP2 RETURNDATASIZE PUSH1 0x20 GT PUSH2 0x1B27 JUMPI JUMPDEST DUP2 PUSH2 0x1B16 PUSH1 0x20 SWAP4 DUP4 PUSH2 0x1C4F JUMP JUMPDEST DUP2 ADD SUB SLT PUSH2 0x295 JUMPI MLOAD PUSH2 0x1AA8 PUSH2 0x1A75 JUMP JUMPDEST RETURNDATASIZE SWAP2 POP PUSH2 0x1B09 JUMP JUMPDEST CALLVALUE PUSH2 0x295 JUMPI PUSH1 0x0 CALLDATASIZE PUSH1 0x3 NOT ADD SLT PUSH2 0x295 JUMPI PUSH1 0x20 PUSH1 0xB SLOAD PUSH1 0x40 MLOAD SWAP1 DUP2 MSTORE RETURN JUMPDEST CALLVALUE PUSH2 0x295 JUMPI PUSH1 0x0 CALLDATASIZE PUSH1 0x3 NOT ADD SLT PUSH2 0x295 JUMPI PUSH1 0x20 PUSH1 0x40 MLOAD PUSH2 0xDEAD DUP2 MSTORE RETURN JUMPDEST CALLVALUE PUSH2 0x295 JUMPI PUSH1 0x0 CALLDATASIZE PUSH1 0x3 NOT ADD SLT PUSH2 0x295 JUMPI PUSH1 0x40 MLOAD PUSH32 0x0 PUSH1 0x1 PUSH1 0x1 PUSH1 0xA0 SHL SUB AND DUP2 MSTORE PUSH1 0x20 SWAP1 RETURN JUMPDEST CALLVALUE PUSH2 0x295 JUMPI PUSH1 0x0 CALLDATASIZE PUSH1 0x3 NOT ADD SLT PUSH2 0x295 JUMPI PUSH1 0x20 SWAP1 PUSH32 0x0 DUP2 MSTORE RETURN JUMPDEST PUSH1 0x4 CALLDATALOAD SWAP1 PUSH1 0x1 PUSH1 0x1 PUSH1 0xA0 SHL SUB DUP3 AND DUP3 SUB PUSH2 0x295 JUMPI JUMP JUMPDEST PUSH1 0x40 SWAP1 PUSH1 0x3 NOT ADD SLT PUSH2 0x295 JUMPI PUSH1 0x4 CALLDATALOAD SWAP1 PUSH1 0x24 CALLDATALOAD SWAP1 JUMP JUMPDEST ISZERO PUSH2 0x1C1B JUMPI JUMP JUMPDEST PUSH1 0x40 MLOAD PUSH3 0x461BCD PUSH1 0xE5 SHL DUP2 MSTORE PUSH1 0x20 PUSH1 0x4 DUP3 ADD MSTORE PUSH1 0xC PUSH1 0x24 DUP3 ADD MSTORE PUSH12 0x666163746F7279206F6E6C79 PUSH1 0xA0 SHL PUSH1 0x44 DUP3 ADD MSTORE PUSH1 0x64 SWAP1 REVERT JUMPDEST SWAP1 PUSH1 0x1F DUP1 NOT SWAP2 ADD AND DUP2 ADD SWAP1 DUP2 LT PUSH8 0xFFFFFFFFFFFFFFFF DUP3 GT OR PUSH2 0x12DC JUMPI PUSH1 0x40 MSTORE JUMP JUMPDEST DUP2 DUP2 MUL SWAP3 SWAP2 DUP2 ISZERO SWAP2 DUP5 DIV EQ OR ISZERO PUSH2 0x1811 JUMPI JUMP JUMPDEST DUP2 ISZERO PUSH2 0x1C8E JUMPI DIV SWAP1 JUMP JUMPDEST PUSH4 0x4E487B71 PUSH1 0xE0 SHL PUSH1 0x0 MSTORE PUSH1 0x12 PUSH1 0x4 MSTORE PUSH1 0x24 PUSH1 0x0 REVERT JUMPDEST SWAP2 SWAP1 DUP3 SUB SWAP2 DUP3 GT PUSH2 0x1811 JUMPI JUMP JUMPDEST SWAP1 DUP2 PUSH1 0x20 SWAP2 SUB SLT PUSH2 0x295 JUMPI MLOAD DUP1 ISZERO ISZERO DUP2 SUB PUSH2 0x295 JUMPI SWAP1 JUMP JUMPDEST SWAP2 SWAP1 DUP3 ADD DUP1 SWAP3 GT PUSH2 0x1811 JUMPI JUMP JUMPDEST SWAP1 DUP2 PUSH1 0x60 SWAP2 SUB SLT PUSH2 0x295 JUMPI DUP1 MLOAD SWAP2 PUSH1 0x40 PUSH1 0x20 DUP4 ADD MLOAD SWAP3 ADD MLOAD SWAP1 JUMP JUMPDEST PUSH2 0x1CF9 PUSH2 0x1DC2 JUMP JUMPDEST PUSH1 0x40 MLOAD PUSH4 0x18160DDD PUSH1 0xE0 SHL DUP2 MSTORE SWAP1 PUSH1 0x20 DUP3 PUSH1 0x4 DUP2 PUSH32 0x0 PUSH1 0x1 PUSH1 0x1 PUSH1 0xA0 SHL SUB AND GAS STATICCALL SWAP1 DUP2 ISZERO PUSH2 0x9CB JUMPI PUSH1 0x0 SWAP2 PUSH2 0x1D55 JUMPI JUMPDEST PUSH2 0x1D52 SWAP3 POP PUSH2 0x26C2 JUMP JUMPDEST SWAP1 JUMP JUMPDEST SWAP1 POP PUSH1 0x20 DUP3 RETURNDATASIZE PUSH1 0x20 GT PUSH2 0x1D83 JUMPI JUMPDEST DUP2 PUSH2 0x1D70 PUSH1 0x20 SWAP4 DUP4 PUSH2 0x1C4F JUMP JUMPDEST DUP2 ADD SUB SLT PUSH2 0x295 JUMPI PUSH2 0x1D52 SWAP2 MLOAD SWAP1 PUSH2 0x1D48 JUMP JUMPDEST RETURNDATASIZE SWAP2 POP PUSH2 0x1D63 JUMP JUMPDEST ISZERO PUSH2 0x1D92 JUMPI JUMP JUMPDEST PUSH1 0x40 MLOAD PUSH3 0x461BCD PUSH1 0xE5 SHL DUP2 MSTORE PUSH1 0x20 PUSH1 0x4 DUP3 ADD MSTORE PUSH1 0x8 PUSH1 0x24 DUP3 ADD MSTORE PUSH8 0x736C697070616765 PUSH1 0xC0 SHL PUSH1 0x44 DUP3 ADD MSTORE PUSH1 0x64 SWAP1 REVERT JUMPDEST PUSH2 0x1DEF PUSH1 0x5 SLOAD PUSH32 0x0 SWAP1 PUSH2 0x1CC9 JUMP JUMPDEST PUSH2 0x1E1C PUSH1 0x6 SLOAD PUSH32 0x0 SWAP1 PUSH2 0x1CC9 JUMP JUMPDEST DUP1 ISZERO PUSH2 0x1E2B JUMPI PUSH2 0x1D52 SWAP2 PUSH2 0x2749 JUMP JUMPDEST POP POP PUSH1 0x0 SWAP1 JUMP JUMPDEST PUSH1 0x2 PUSH1 0x1 SLOAD EQ PUSH2 0x1E43 JUMPI PUSH1 0x2 PUSH1 0x1 SSTORE JUMP JUMPDEST PUSH1 0x40 MLOAD PUSH4 0x3EE5AEB5 PUSH1 0xE0 SHL DUP2 MSTORE PUSH1 0x4 SWAP1 REVERT JUMPDEST PUSH1 0x40 MLOAD PUSH4 0x6DF84EB3 PUSH1 0xE1 SHL DUP2 MSTORE PUSH1 0x20 DUP2 PUSH1 0x4 DUP2 ADDRESS GAS STATICCALL PUSH1 0x0 SWAP2 DUP2 PUSH2 0x1EFD JUMPI JUMPDEST POP PUSH2 0x1D52 JUMPI POP PUSH2 0x1EA7 PUSH1 0x5 SLOAD PUSH32 0x0 SWAP1 PUSH2 0x1CC9 JUMP JUMPDEST PUSH2 0x1ED4 PUSH1 0x6 SLOAD PUSH32 0x0 SWAP1 PUSH2 0x1CC9 JUMP JUMPDEST DUP1 ISZERO PUSH2 0x1E2B JUMPI PUSH8 0xDE0B6B3A7640000 SWAP2 DUP3 DUP2 MUL SWAP3 DUP2 DUP5 DIV EQ SWAP1 ISZERO OR ISZERO PUSH2 0x1811 JUMPI PUSH2 0x1D52 SWAP2 PUSH2 0x1C84 JUMP JUMPDEST SWAP1 SWAP2 POP PUSH1 0x20 DUP2 RETURNDATASIZE PUSH1 0x20 GT PUSH2 0x1F29 JUMPI JUMPDEST DUP2 PUSH2 0x1F19 PUSH1 0x20 SWAP4 DUP4 PUSH2 0x1C4F JUMP JUMPDEST DUP2 ADD SUB SLT PUSH2 0x295 JUMPI MLOAD SWAP1 CODESIZE PUSH2 0x1E74 JUMP JUMPDEST RETURNDATASIZE SWAP2 POP PUSH2 0x1F0C JUMP JUMPDEST SWAP1 CALLVALUE ISZERO PUSH2 0x2666 JUMPI PUSH1 0x7 SLOAD PUSH1 0xFF DUP2 PUSH1 0x8 SHR AND ISZERO PUSH2 0x25C8 JUMPI JUMPDEST POP PUSH32 0x0 CALLVALUE LT PUSH2 0x2599 JUMPI PUSH32 0x0 CALLVALUE GT PUSH2 0x256B JUMPI PUSH2 0x1FE1 PUSH32 0x0 PUSH32 0x0 PUSH2 0x1CC9 JUMP JUMPDEST NUMBER GT ISZERO DUP1 PUSH2 0x2538 JUMPI JUMPDEST PUSH2 0x24B3 JUMPI JUMPDEST PUSH2 0x1FF7 PUSH2 0x29BC JUMP JUMPDEST SWAP1 PUSH2 0x2000 PUSH2 0x283C JUMP JUMPDEST SWAP1 PUSH2 0x2710 SWAP5 PUSH2 0xFFFF SWAP3 DUP7 PUSH2 0x2044 DUP6 DUP3 PUSH2 0x203B DUP3 PUSH32 0x0 AND CALLVALUE PUSH2 0x1C71 JUMP JUMPDEST DIV SWAP8 AND CALLVALUE PUSH2 0x1C71 JUMP JUMPDEST DIV SWAP1 PUSH2 0x2059 DUP3 PUSH2 0x2054 DUP9 CALLVALUE PUSH2 0x1CA4 JUMP JUMPDEST PUSH2 0x1CA4 JUMP JUMPDEST SWAP2 PUSH1 0x5 SLOAD SWAP4 PUSH1 0x6 SLOAD PUSH32 0x0 PUSH2 0x208C DUP2 DUP9 PUSH2 0x1CC9 JUMP JUMPDEST PUSH2 0x20C1 PUSH32 0x0 SWAP2 PUSH2 0x20BB DUP4 DUP7 PUSH2 0x1CC9 JUMP JUMPDEST SWAP1 PUSH2 0x1C71 JUMP JUMPDEST PUSH2 0x20D4 DUP4 PUSH2 0x20CF DUP11 DUP13 PUSH2 0x1CC9 JUMP JUMPDEST PUSH2 0x1CC9 JUMP JUMPDEST DUP1 ISZERO PUSH2 0x2484 JUMPI PUSH2 0x20E3 SWAP2 PUSH2 0x1C84 JUMP JUMPDEST DUP2 DUP2 LT PUSH2 0x2455 JUMPI DUP2 PUSH2 0x20F4 SWAP2 PUSH2 0x1CA4 JUMP JUMPDEST SWAP9 DUP4 DUP11 GT PUSH2 0x2427 JUMPI PUSH2 0x211D SWAP14 PUSH2 0x210A DUP12 DUP7 PUSH2 0x1CA4 JUMP JUMPDEST SWAP15 DUP16 SWAP3 DUP4 ISZERO ISZERO SWAP1 DUP2 PUSH2 0x241C JUMPI JUMPDEST POP PUSH2 0x1D8B JUMP JUMPDEST PUSH1 0x1 PUSH1 0x1 PUSH1 0xA0 SHL SUB SWAP12 PUSH32 0x0 DUP14 AND CALLER SUB PUSH2 0x232C JUMPI JUMPDEST POP POP PUSH2 0x20CF SWAP1 PUSH2 0x2167 PUSH2 0x216D SWAP5 PUSH2 0x20CF DUP12 DUP14 PUSH2 0x1CC9 JUMP JUMPDEST SWAP5 PUSH2 0x1CA4 JUMP JUMPDEST DUP1 ISZERO PUSH2 0x22F0 JUMPI PUSH8 0xDE0B6B3A7640000 SWAP2 DUP3 DUP2 MUL SWAP3 DUP2 DUP5 DIV EQ SWAP1 ISZERO OR ISZERO PUSH2 0x1811 JUMPI PUSH2 0x2196 SWAP2 PUSH2 0x1C84 JUMP JUMPDEST GT ISZERO PUSH2 0x22AB JUMPI PUSH32 0xBEAE048C6D270D9469F86CF6E8FEDDA3C60AD770F16C24C9FC131C8E9A09101D SWAP7 PUSH2 0x2247 SWAP6 PUSH2 0x21CD DUP6 DUP13 SWAP8 PUSH2 0x1CC9 JUMP JUMPDEST PUSH1 0x5 SSTORE PUSH1 0x6 SSTORE DUP1 PUSH2 0x227B JUMPI JUMPDEST POP DUP1 PUSH2 0x226B JUMPI JUMPDEST POP POP PUSH1 0x40 MLOAD PUSH4 0xA9059CBB PUSH1 0xE0 SHL PUSH1 0x20 DUP3 ADD MSTORE PUSH1 0x1 PUSH1 0x1 PUSH1 0xA0 SHL SUB DUP8 AND PUSH1 0x24 DUP3 ADD MSTORE PUSH1 0x44 DUP1 DUP3 ADD DUP5 SWAP1 MSTORE DUP2 MSTORE PUSH2 0x2242 SWAP1 PUSH2 0x221A PUSH1 0x64 DUP3 PUSH2 0x1C4F JUMP JUMPDEST DUP6 PUSH32 0x0 AND PUSH2 0x2A6D JUMP JUMPDEST PUSH2 0x2749 JUMP JUMPDEST PUSH1 0xB DUP2 SWAP1 SSTORE PUSH1 0x40 DUP1 MLOAD CALLVALUE DUP2 MSTORE PUSH1 0x20 DUP2 ADD DUP8 SWAP1 MSTORE SWAP1 DUP2 ADD SWAP2 SWAP1 SWAP2 MSTORE SWAP3 AND SWAP2 PUSH1 0x60 SWAP1 LOG2 SWAP1 JUMP JUMPDEST PUSH2 0x2274 SWAP2 PUSH2 0x2961 JUMP JUMPDEST CODESIZE DUP1 PUSH2 0x21E0 JUMP JUMPDEST PUSH2 0x22A5 SWAP1 PUSH32 0x0 PUSH2 0x2961 JUMP JUMPDEST CODESIZE PUSH2 0x21D9 JUMP JUMPDEST PUSH1 0x40 MLOAD PUSH3 0x461BCD PUSH1 0xE5 SHL DUP2 MSTORE PUSH1 0x20 PUSH1 0x4 DUP3 ADD MSTORE PUSH1 0x17 PUSH1 0x24 DUP3 ADD MSTORE PUSH32 0x4255595F4D5553545F494E4352454153455F5052494345000000000000000000 PUSH1 0x44 DUP3 ADD MSTORE PUSH1 0x64 SWAP1 REVERT JUMPDEST PUSH1 0x40 MLOAD PUSH3 0x461BCD PUSH1 0xE5 SHL DUP2 MSTORE PUSH1 0x20 PUSH1 0x4 DUP3 ADD MSTORE PUSH1 0x14 PUSH1 0x24 DUP3 ADD MSTORE PUSH20 0x504F4F4C5F454D5054595F41465445525F425559 PUSH1 0x60 SHL PUSH1 0x44 DUP3 ADD MSTORE PUSH1 0x64 SWAP1 REVERT JUMPDEST PUSH1 0x4 SWAP2 SWAP3 POP PUSH1 0x20 DUP14 PUSH1 0x40 MLOAD SWAP4 DUP5 DUP1 SWAP3 PUSH4 0x18160DDD PUSH1 0xE0 SHL DUP3 MSTORE PUSH32 0x0 AND GAS STATICCALL SWAP1 DUP2 ISZERO PUSH2 0x9CB JUMPI PUSH1 0x0 SWAP2 PUSH2 0x23E6 JUMPI JUMPDEST PUSH2 0x23A5 SWAP3 POP PUSH32 0x0 AND SWAP1 PUSH2 0x1C71 JUMP JUMPDEST DIV DUP14 GT PUSH2 0x23B4 JUMPI DUP13 CODESIZE DUP1 PUSH2 0x2150 JUMP JUMPDEST PUSH1 0x40 MLOAD PUSH3 0x461BCD PUSH1 0xE5 SHL DUP2 MSTORE PUSH1 0x20 PUSH1 0x4 DUP3 ADD MSTORE PUSH1 0xA PUSH1 0x24 DUP3 ADD MSTORE PUSH10 0x7075626C69632063617 PUSH1 0xB4 SHL PUSH1 0x44 DUP3 ADD MSTORE PUSH1 0x64 SWAP1 REVERT JUMPDEST SWAP1 POP PUSH1 0x20 DUP3 RETURNDATASIZE PUSH1 0x20 GT PUSH2 0x2414 JUMPI JUMPDEST DUP2 PUSH2 0x2401 PUSH1 0x20 SWAP4 DUP4 PUSH2 0x1C4F JUMP JUMPDEST DUP2 ADD SUB SLT PUSH2 0x295 JUMPI PUSH2 0x23A5 SWAP2 MLOAD SWAP1 PUSH2 0x2378 JUMP JUMPDEST RETURNDATASIZE SWAP2 POP PUSH2 0x23F4 JUMP JUMPDEST SWAP1 POP DUP4 LT ISZERO CODESIZE PUSH2 0x2117 JUMP JUMPDEST PUSH1 0x40 MLOAD PUSH3 0x461BCD PUSH1 0xE5 SHL DUP2 MSTORE PUSH1 0x20 PUSH1 0x4 DUP3 ADD MSTORE PUSH1 0x6 PUSH1 0x24 DUP3 ADD MSTORE PUSH6 0x6D6174682D79 PUSH1 0xD0 SHL PUSH1 0x44 DUP3 ADD MSTORE PUSH1 0x64 SWAP1 REVERT JUMPDEST PUSH1 0x40 MLOAD PUSH3 0x461BCD PUSH1 0xE5 SHL DUP2 MSTORE PUSH1 0x20 PUSH1 0x4 DUP3 ADD MSTORE PUSH1 0x7 PUSH1 0x24 DUP3 ADD MSTORE PUSH7 0x6D6174682D793 PUSH1 0xCC SHL PUSH1 0x44 DUP3 ADD MSTORE PUSH1 0x64 SWAP1 REVERT JUMPDEST PUSH1 0x40 MLOAD PUSH3 0x461BCD PUSH1 0xE5 SHL DUP2 MSTORE PUSH1 0x20 PUSH1 0x4 DUP3 ADD MSTORE PUSH1 0x7 PUSH1 0x24 DUP3 ADD MSTORE PUSH7 0x64656E6F6D3D3 PUSH1 0xCC SHL PUSH1 0x44 DUP3 ADD MSTORE PUSH1 0x64 SWAP1 REVERT JUMPDEST CALLER PUSH1 0x0 MSTORE PUSH1 0xA PUSH1 0x20 MSTORE PUSH2 0x24CB CALLVALUE PUSH1 0x40 PUSH1 0x0 KECCAK256 SLOAD PUSH2 0x1CC9 JUMP JUMPDEST PUSH32 0x0 DUP2 GT PUSH2 0x2506 JUMPI CALLER PUSH1 0x0 MSTORE PUSH1 0xA PUSH1 0x20 MSTORE PUSH1 0x40 PUSH1 0x0 KECCAK256 SSTORE PUSH2 0x1FEF JUMP JUMPDEST PUSH1 0x40 MLOAD PUSH3 0x461BCD PUSH1 0xE5 SHL DUP2 MSTORE PUSH1 0x20 PUSH1 0x4 DUP3 ADD MSTORE PUSH1 0xA PUSH1 0x24 DUP3 ADD MSTORE PUSH10 0x1B585E0BDDD85B1B195D PUSH1 0xB2 SHL PUSH1 0x44 DUP3 ADD MSTORE PUSH1 0x64 SWAP1 REVERT JUMPDEST POP CALLER PUSH32 0x0 PUSH1 0x1 PUSH1 0x1 PUSH1 0xA0 SHL SUB AND EQ ISZERO PUSH2 0x1FEA JUMP JUMPDEST PUSH1 0x40 MLOAD PUSH3 0x461BCD PUSH1 0xE5 SHL DUP2 MSTORE PUSH1 0x20 PUSH1 0x4 DUP3 ADD MSTORE PUSH1 0x6 PUSH1 0x24 DUP3 ADD MSTORE PUSH6 0xDAC2F05EE8F PUSH1 0xD3 SHL PUSH1 0x44 DUP3 ADD MSTORE PUSH1 0x64 SWAP1 REVERT JUMPDEST PUSH1 0x40 MLOAD PUSH3 0x461BCD PUSH1 0xE5 SHL DUP2 MSTORE PUSH1 0x20 PUSH1 0x4 DUP3 ADD MSTORE PUSH1 0x7 PUSH1 0x24 DUP3 ADD MSTORE PUSH7 0x6D696E20627579 PUSH1 0xC8 SHL PUSH1 0x44 DUP3 ADD MSTORE PUSH1 0x64 SWAP1 REVERT JUMPDEST PUSH1 0x40 MLOAD PUSH4 0x70A08231 PUSH1 0xE0 SHL DUP2 MSTORE ADDRESS PUSH1 0x4 DUP3 ADD MSTORE SWAP1 PUSH1 0x20 DUP3 PUSH1 0x24 DUP2 PUSH32 0x0 PUSH1 0x1 PUSH1 0x1 PUSH1 0xA0 SHL SUB AND GAS STATICCALL DUP1 ISZERO PUSH2 0x9CB JUMPI PUSH1 0x0 SWAP1 PUSH2 0x2632 JUMPI JUMPDEST PUSH1 0x6 SSTORE PUSH2 0xFF00 NOT AND PUSH2 0x100 OR PUSH1 0x7 SSTORE POP CODESIZE PUSH2 0x1F48 JUMP JUMPDEST POP PUSH1 0x20 DUP3 RETURNDATASIZE PUSH1 0x20 GT PUSH2 0x265E JUMPI JUMPDEST DUP2 PUSH2 0x264C PUSH1 0x20 SWAP4 DUP4 PUSH2 0x1C4F JUMP JUMPDEST DUP2 ADD SUB SLT PUSH2 0x295 JUMPI PUSH2 0x100 SWAP2 MLOAD PUSH2 0x261C JUMP JUMPDEST RETURNDATASIZE SWAP2 POP PUSH2 0x263F JUMP JUMPDEST PUSH1 0x40 MLOAD PUSH3 0x461BCD PUSH1 0xE5 SHL DUP2 MSTORE PUSH1 0x20 PUSH1 0x4 DUP3 ADD MSTORE PUSH1 0x8 PUSH1 0x24 DUP3 ADD MSTORE PUSH8 0x3D32B93790313731 PUSH1 0xC1 SHL PUSH1 0x44 DUP3 ADD MSTORE PUSH1 0x64 SWAP1 REVERT JUMPDEST PUSH1 0x0 SLOAD PUSH1 0x1 PUSH1 0x1 PUSH1 0xA0 SHL SUB AND CALLER SUB PUSH2 0x26AA JUMPI JUMP JUMPDEST PUSH1 0x40 MLOAD PUSH4 0x118CDAA7 PUSH1 0xE0 SHL DUP2 MSTORE CALLER PUSH1 0x4 DUP3 ADD MSTORE PUSH1 0x24 SWAP1 REVERT JUMPDEST SWAP1 DUP1 DUP3 MUL SWAP1 PUSH1 0x0 NOT DUP2 DUP5 MULMOD SWAP1 DUP3 DUP1 DUP4 LT SWAP3 SUB SWAP2 DUP1 DUP4 SUB SWAP3 EQ PUSH2 0x2738 JUMPI PUSH8 0xDE0B6B3A7640000 SWAP1 DUP3 DUP3 GT ISZERO PUSH2 0x2726 JUMPI PUSH32 0xACCB18165BD6FE31AE1CF318DC5B51EEE0E1BA569B88CD74C1773B91FAC10669 SWAP5 MULMOD SWAP1 DUP3 DUP3 GT SWAP1 SUB PUSH1 0xEE SHL SWAP2 SUB PUSH1 0x12 SHR OR MUL SWAP1 JUMP JUMPDEST PUSH1 0x40 MLOAD PUSH4 0x227BC153 PUSH1 0xE0 SHL DUP2 MSTORE PUSH1 0x4 SWAP1 REVERT JUMPDEST POP POP PUSH8 0xDE0B6B3A7640000 SWAP2 POP DIV SWAP1 JUMP JUMPDEST PUSH8 0xDE0B6B3A7640000 SWAP2 DUP2 DUP4 MUL SWAP2 PUSH1 0x0 NOT DUP5 DUP3 MULMOD SWAP4 DUP4 DUP1 DUP7 LT SWAP6 SUB SWAP5 DUP1 DUP7 SUB SWAP6 EQ PUSH2 0x27C7 JUMPI DUP5 DUP4 GT ISZERO PUSH2 0x2726 JUMPI DUP3 SWAP2 MULMOD DUP2 PUSH1 0x0 SUB DUP3 AND DUP1 SWAP3 DIV PUSH1 0x2 DUP1 DUP3 PUSH1 0x3 MUL XOR DUP1 DUP4 MUL DUP3 SUB MUL DUP1 DUP4 MUL DUP3 SUB MUL DUP1 DUP4 MUL DUP3 SUB MUL DUP1 DUP4 MUL DUP3 SUB MUL DUP1 DUP4 MUL DUP3 SUB MUL DUP1 SWAP3 MUL SWAP1 SUB MUL SWAP4 PUSH1 0x1 DUP4 DUP1 PUSH1 0x0 SUB DIV ADD SWAP1 DUP5 DUP4 GT SWAP1 SUB MUL SWAP3 SUB DIV OR MUL SWAP1 JUMP JUMPDEST POP POP SWAP1 PUSH2 0x1D52 SWAP3 POP PUSH2 0x1C84 JUMP JUMPDEST PUSH1 0x1E DUP2 MUL PUSH1 0x0 NOT PUSH1 0x1E DUP4 MULMOD DUP2 DUP1 DUP3 LT SWAP2 SUB SWAP1 DUP1 DUP3 SUB SWAP2 EQ PUSH2 0x2832 JUMPI PUSH2 0x2710 DUP2 DUP2 GT ISZERO PUSH2 0x2726 JUMPI PUSH1 0x1E PUSH32 0xBC01A36E2EB1C432CA57A786C226809D495182A9930BE0DED288CE703AFB7E91 SWAP5 MULMOD SWAP1 DUP3 DUP3 GT SWAP1 SUB PUSH1 0xFC SHL SWAP2 SUB PUSH1 0x4 SHR OR MUL SWAP1 JUMP JUMPDEST POP PUSH2 0x2710 SWAP2 POP DIV SWAP1 JUMP JUMPDEST PUSH1 0x40 MLOAD PUSH4 0x61D027B3 PUSH1 0xE0 SHL DUP2 MSTORE PUSH1 0x1 PUSH1 0x1 PUSH1 0xA0 SHL SUB PUSH1 0x20 DUP3 PUSH1 0x4 DUP2 PUSH32 0x0 DUP6 AND GAS STATICCALL PUSH1 0x0 SWAP3 DUP2 PUSH2 0x28DB JUMPI JUMPDEST POP PUSH2 0x28B0 JUMPI POP POP PUSH32 0x0 SWAP1 JUMP JUMPDEST DUP2 AND PUSH2 0x1D52 JUMPI POP PUSH32 0x0 SWAP1 JUMP JUMPDEST PUSH1 0x20 SWAP4 SWAP2 SWAP4 DUP2 RETURNDATASIZE PUSH1 0x20 GT PUSH2 0x2919 JUMPI JUMPDEST DUP2 PUSH2 0x28F7 PUSH1 0x20 SWAP4 DUP4 PUSH2 0x1C4F JUMP JUMPDEST DUP2 ADD SUB SLT PUSH2 0x2915 JUMPI MLOAD SWAP1 DUP3 DUP3 AND DUP3 SUB PUSH2 0x2912 JUMPI POP SWAP2 CODESIZE PUSH2 0x2885 JUMP JUMPDEST DUP1 REVERT JUMPDEST POP DUP1 REVERT JUMPDEST RETURNDATASIZE SWAP2 POP PUSH2 0x28EA JUMP JUMPDEST RETURNDATASIZE ISZERO PUSH2 0x295C JUMPI RETURNDATASIZE SWAP1 PUSH8 0xFFFFFFFFFFFFFFFF DUP3 GT PUSH2 0x12DC JUMPI PUSH1 0x40 MLOAD SWAP2 PUSH2 0x2950 PUSH1 0x1F DUP3 ADD PUSH1 0x1F NOT AND PUSH1 0x20 ADD DUP5 PUSH2 0x1C4F JUMP JUMPDEST DUP3 MSTORE RETURNDATASIZE PUSH1 0x0 PUSH1 0x20 DUP5 ADD RETURNDATACOPY JUMP JUMPDEST PUSH1 0x60 SWAP1 JUMP JUMPDEST PUSH1 0x0 SWAP2 DUP3 SWAP2 DUP3 SWAP2 DUP3 SWAP2 PUSH1 0x1 PUSH1 0x1 PUSH1 0xA0 SHL SUB AND GAS CALL PUSH2 0x297D PUSH2 0x2921 JUMP JUMPDEST POP ISZERO PUSH2 0x2985 JUMPI JUMP JUMPDEST PUSH1 0x40 MLOAD PUSH3 0x461BCD PUSH1 0xE5 SHL DUP2 MSTORE PUSH1 0x20 PUSH1 0x4 DUP3 ADD MSTORE PUSH1 0xF PUSH1 0x24 DUP3 ADD MSTORE PUSH15 0x109390881CD95B990819985A5B1959 PUSH1 0x8A SHL PUSH1 0x44 DUP3 ADD MSTORE PUSH1 0x64 SWAP1 REVERT JUMPDEST PUSH1 0x40 MLOAD PUSH4 0x69B28FAB PUSH1 0xE0 SHL DUP2 MSTORE PUSH1 0x20 DUP2 PUSH1 0x4 DUP2 PUSH32 0x0 PUSH1 0x1 PUSH1 0x1 PUSH1 0xA0 SHL SUB AND GAS STATICCALL DUP1 SWAP2 PUSH1 0x0 SWAP2 PUSH2 0x2A30 JUMPI JUMPDEST POP SWAP1 PUSH2 0x1D52 JUMPI POP PUSH32 0x0 SWAP1 JUMP JUMPDEST PUSH1 0x20 DUP2 RETURNDATASIZE PUSH1 0x20 GT PUSH2 0x2A65 JUMPI JUMPDEST DUP2 PUSH2 0x2A49 PUSH1 0x20 SWAP4 DUP4 PUSH2 0x1C4F JUMP JUMPDEST DUP2 ADD SUB SLT PUSH2 0x2915 JUMPI MLOAD SWAP1 PUSH2 0xFFFF DUP3 AND DUP3 SUB PUSH2 0x2912 JUMPI POP CODESIZE PUSH2 0x2A05 JUMP JUMPDEST RETURNDATASIZE SWAP2 POP PUSH2 0x2A3C JUMP JUMPDEST PUSH1 0x0 DUP1 PUSH2 0x2A96 SWAP3 PUSH1 0x1 DUP1 PUSH1 0xA0 SHL SUB AND SWAP4 PUSH1 0x20 DUP2 MLOAD SWAP2 ADD DUP3 DUP7 GAS CALL PUSH2 0x2A8F PUSH2 0x2921 JUMP JUMPDEST SWAP1 DUP4 PUSH2 0x2ADF JUMP JUMPDEST DUP1 MLOAD SWAP1 DUP2 ISZERO ISZERO SWAP2 DUP3 PUSH2 0x2AC4 JUMPI JUMPDEST POP POP PUSH2 0x2AAC JUMPI POP JUMP JUMPDEST PUSH1 0x24 SWAP1 PUSH1 0x40 MLOAD SWAP1 PUSH4 0x5274AFE7 PUSH1 0xE0 SHL DUP3 MSTORE PUSH1 0x4 DUP3 ADD MSTORE REVERT JUMPDEST PUSH2 0x2AD7 SWAP3 POP PUSH1 0x20 DUP1 SWAP2 DUP4 ADD ADD SWAP2 ADD PUSH2 0x1CB1 JUMP JUMPDEST ISZERO CODESIZE DUP1 PUSH2 0x2AA3 JUMP JUMPDEST SWAP1 PUSH2 0x2B06 JUMPI POP DUP1 MLOAD ISZERO PUSH2 0x2AF4 JUMPI DUP1 MLOAD SWAP1 PUSH1 0x20 ADD REVERT JUMPDEST PUSH1 0x40 MLOAD PUSH4 0xA12F521 PUSH1 0xE1 SHL DUP2 MSTORE PUSH1 0x4 SWAP1 REVERT JUMPDEST DUP2 MLOAD ISZERO DUP1 PUSH2 0x2B39 JUMPI JUMPDEST PUSH2 0x2B17 JUMPI POP SWAP1 JUMP JUMPDEST PUSH1 0x40 MLOAD PUSH4 0x9996B315 PUSH1 0xE0 SHL DUP2 MSTORE PUSH1 0x1 PUSH1 0x1 PUSH1 0xA0 SHL SUB SWAP1 SWAP2 AND PUSH1 0x4 DUP3 ADD MSTORE PUSH1 0x24 SWAP1 REVERT JUMPDEST POP DUP1 EXTCODESIZE ISZERO PUSH2 0x2B0F JUMP INVALID PUSH12 0x60D326D3C4023C7CB9B6755F 0xC3 BYTE RETURN 0xCF 0xBC 0xCD 0xEB SMOD 0xA7 0xA8 0xB4 0xD7 SWAP15 KECCAK256 0x1F PUSH20 0x2324EEA264697066735822122041AD1D4A884953 0xCF 0x24 PUSH3 0x92266A SAR 0xBA PUSH18 0x91855B60719FBDFF08FAB5B00A166B6B6473 PUSH16 0x6C634300081900330000000000000000 "},"methodIdentifiers":{"DEAD()":"03fd2a45","STARTER_ENABLED()":"13888717","antiWhaleBlocks()":"5929c481","buy(uint256)":"d96a094a","buyFor(address,uint256)":"06501a6a","creationBlock()":"17634514","creationTime()":"d8270dce","creator()":"02d05d3f","creatorFeeBps()":"17773ebb","creatorFirstBuyCapBps()":"b8bac575","currentPlatformFeeBps()":"4ec72b61","debugSignature()":"25f14287","earlyWindowSecs()":"3533048f","escrowBnb()":"a5c7d4cd","factory()":"c45a0155","firstBuyDone()":"cd7736b8","graduate(address,uint256,uint256,uint256)":"581e564a","initTokenReserve(uint256)":"4ad71289","initialized()":"158ef93e","isMigrated()":"b06faf62","lastTradePriceWei()":"05978624","marketCapWei()":"804fee5f","maxBnbPerTxWei()":"dcb1d8e8","maxBnbPerWalletWei()":"5776b4a2","migrate(address,address)":"1068361f","migrated()":"2c678c64","minBuyWei()":"01e6f521","minEarlyBnb()":"2ee7d99b","minLiqBnbWei()":"e799ecc0","openPublic()":"3fc80006","owner()":"8da5cb5b","p0WeiPerToken()":"3f7bcbf6","platform()":"4bde38c8","platformFeeBps()":"22dcd13e","platformTreasury()":"e138818c","priceWeiPerToken()":"dbf09d66","publicBuyCapBps()":"69e93e5f","renounceOwnership()":"715018a6","reserveNative()":"bf36b536","reserveToken()":"f4325d67","sell(uint256,uint256)":"d79875eb","setEarlyBuyParams(uint256,uint256)":"6f8e599b","spentBnb(address)":"06795ed4","starterSold()":"4de95931","starterTrancheTokens()":"571fe544","targetMarketCapWei()":"e6408130","token()":"fc0c546a","transferOwnership(address)":"f2fde38b","x0()":"395bf661","y0()":"af493b96"}}}}}